{
  "contractName": "QuissceQoin",
  "abi": [
    {
      "inputs": [],
      "stateMutability": "nonpayable",
      "type": "constructor"
    },
    {
      "anonymous": false,
      "inputs": [
        {
          "indexed": true,
          "internalType": "address",
          "name": "owner",
          "type": "address"
        },
        {
          "indexed": true,
          "internalType": "address",
          "name": "spender",
          "type": "address"
        },
        {
          "indexed": false,
          "internalType": "uint256",
          "name": "value",
          "type": "uint256"
        }
      ],
      "name": "Approval",
      "type": "event"
    },
    {
      "anonymous": false,
      "inputs": [
        {
          "indexed": true,
          "internalType": "address",
          "name": "from",
          "type": "address"
        },
        {
          "indexed": true,
          "internalType": "address",
          "name": "to",
          "type": "address"
        },
        {
          "indexed": false,
          "internalType": "uint256",
          "name": "value",
          "type": "uint256"
        }
      ],
      "name": "Transfer",
      "type": "event"
    },
    {
      "inputs": [],
      "name": "admin",
      "outputs": [
        {
          "internalType": "address",
          "name": "",
          "type": "address"
        }
      ],
      "stateMutability": "view",
      "type": "function",
      "constant": true
    },
    {
      "inputs": [
        {
          "internalType": "address",
          "name": "owner",
          "type": "address"
        },
        {
          "internalType": "address",
          "name": "spender",
          "type": "address"
        }
      ],
      "name": "allowance",
      "outputs": [
        {
          "internalType": "uint256",
          "name": "",
          "type": "uint256"
        }
      ],
      "stateMutability": "view",
      "type": "function",
      "constant": true
    },
    {
      "inputs": [
        {
          "internalType": "address",
          "name": "spender",
          "type": "address"
        },
        {
          "internalType": "uint256",
          "name": "amount",
          "type": "uint256"
        }
      ],
      "name": "approve",
      "outputs": [
        {
          "internalType": "bool",
          "name": "",
          "type": "bool"
        }
      ],
      "stateMutability": "nonpayable",
      "type": "function"
    },
    {
      "inputs": [
        {
          "internalType": "address",
          "name": "account",
          "type": "address"
        }
      ],
      "name": "balanceOf",
      "outputs": [
        {
          "internalType": "uint256",
          "name": "",
          "type": "uint256"
        }
      ],
      "stateMutability": "view",
      "type": "function",
      "constant": true
    },
    {
      "inputs": [],
      "name": "cap",
      "outputs": [
        {
          "internalType": "uint256",
          "name": "",
          "type": "uint256"
        }
      ],
      "stateMutability": "view",
      "type": "function",
      "constant": true
    },
    {
      "inputs": [],
      "name": "decimals",
      "outputs": [
        {
          "internalType": "uint8",
          "name": "",
          "type": "uint8"
        }
      ],
      "stateMutability": "view",
      "type": "function",
      "constant": true
    },
    {
      "inputs": [
        {
          "internalType": "address",
          "name": "spender",
          "type": "address"
        },
        {
          "internalType": "uint256",
          "name": "subtractedValue",
          "type": "uint256"
        }
      ],
      "name": "decreaseAllowance",
      "outputs": [
        {
          "internalType": "bool",
          "name": "",
          "type": "bool"
        }
      ],
      "stateMutability": "nonpayable",
      "type": "function"
    },
    {
      "inputs": [
        {
          "internalType": "address",
          "name": "spender",
          "type": "address"
        },
        {
          "internalType": "uint256",
          "name": "addedValue",
          "type": "uint256"
        }
      ],
      "name": "increaseAllowance",
      "outputs": [
        {
          "internalType": "bool",
          "name": "",
          "type": "bool"
        }
      ],
      "stateMutability": "nonpayable",
      "type": "function"
    },
    {
      "inputs": [],
      "name": "name",
      "outputs": [
        {
          "internalType": "string",
          "name": "",
          "type": "string"
        }
      ],
      "stateMutability": "view",
      "type": "function",
      "constant": true
    },
    {
      "inputs": [],
      "name": "symbol",
      "outputs": [
        {
          "internalType": "string",
          "name": "",
          "type": "string"
        }
      ],
      "stateMutability": "view",
      "type": "function",
      "constant": true
    },
    {
      "inputs": [],
      "name": "totalSupply",
      "outputs": [
        {
          "internalType": "uint256",
          "name": "",
          "type": "uint256"
        }
      ],
      "stateMutability": "view",
      "type": "function",
      "constant": true
    },
    {
      "inputs": [
        {
          "internalType": "address",
          "name": "recipient",
          "type": "address"
        },
        {
          "internalType": "uint256",
          "name": "amount",
          "type": "uint256"
        }
      ],
      "name": "transfer",
      "outputs": [
        {
          "internalType": "bool",
          "name": "",
          "type": "bool"
        }
      ],
      "stateMutability": "nonpayable",
      "type": "function"
    },
    {
      "inputs": [
        {
          "internalType": "address",
          "name": "sender",
          "type": "address"
        },
        {
          "internalType": "address",
          "name": "recipient",
          "type": "address"
        },
        {
          "internalType": "uint256",
          "name": "amount",
          "type": "uint256"
        }
      ],
      "name": "transferFrom",
      "outputs": [
        {
          "internalType": "bool",
          "name": "",
          "type": "bool"
        }
      ],
      "stateMutability": "nonpayable",
      "type": "function"
    },
    {
      "inputs": [
        {
          "internalType": "address",
          "name": "to",
          "type": "address"
        },
        {
          "internalType": "uint256",
          "name": "amount",
          "type": "uint256"
        }
      ],
      "name": "mint",
      "outputs": [],
      "stateMutability": "nonpayable",
      "type": "function"
    },
    {
      "inputs": [
        {
          "internalType": "uint256",
          "name": "amount",
          "type": "uint256"
        }
      ],
      "name": "burn",
      "outputs": [],
      "stateMutability": "nonpayable",
      "type": "function"
    }
  ],
  "bytecode": "0x60a06040523480156200001157600080fd5b506a3913517ebd3c0c650000006040518060400160405280600c81526020017f5175697373636520516f696e00000000000000000000000000000000000000008152506040518060400160405280600481526020017f51574953000000000000000000000000000000000000000000000000000000008152508160039080519060200190620000a292919062000154565b508060049080519060200190620000bb92919062000154565b5050506000811162000104576040517f08c379a0000000000000000000000000000000000000000000000000000000008152600401620000fb906200022b565b60405180910390fd5b80608081815250505033600560006101000a81548173ffffffffffffffffffffffffffffffffffffffff021916908373ffffffffffffffffffffffffffffffffffffffff160217905550620002ec565b82805462000162906200025e565b90600052602060002090601f016020900481019282620001865760008555620001d2565b82601f10620001a157805160ff1916838001178555620001d2565b82800160010185558215620001d2579182015b82811115620001d1578251825591602001919060010190620001b4565b5b509050620001e19190620001e5565b5090565b5b8082111562000200576000816000905550600101620001e6565b5090565b6000620002136015836200024d565b91506200022082620002c3565b602082019050919050565b60006020820190508181036000830152620002468162000204565b9050919050565b600082825260208201905092915050565b600060028204905060018216806200027757607f821691505b602082108114156200028e576200028d62000294565b5b50919050565b7f4e487b7100000000000000000000000000000000000000000000000000000000600052602260045260246000fd5b7f45524332304361707065643a2063617020697320300000000000000000000000600082015250565b608051611c056200030860003960006104f50152611c056000f3fe608060405234801561001057600080fd5b50600436106100f55760003560e01c806340c10f1911610097578063a457c2d711610066578063a457c2d714610288578063a9059cbb146102b8578063dd62ed3e146102e8578063f851a44014610318576100f5565b806340c10f191461020257806342966c681461021e57806370a082311461023a57806395d89b411461026a576100f5565b806323b872dd116100d357806323b872dd14610166578063313ce56714610196578063355274ea146101b457806339509351146101d2576100f5565b806306fdde03146100fa578063095ea7b31461011857806318160ddd14610148575b600080fd5b610102610336565b60405161010f91906114b3565b60405180910390f35b610132600480360381019061012d91906111f7565b6103c8565b60405161013f9190611498565b60405180910390f35b6101506103e6565b60405161015d9190611655565b60405180910390f35b610180600480360381019061017b91906111a4565b6103f0565b60405161018d9190611498565b60405180910390f35b61019e6104e8565b6040516101ab9190611670565b60405180910390f35b6101bc6104f1565b6040516101c99190611655565b60405180910390f35b6101ec60048036038101906101e791906111f7565b610519565b6040516101f99190611498565b60405180910390f35b61021c600480360381019061021791906111f7565b6105c5565b005b61023860048036038101906102339190611237565b610663565b005b610254600480360381019061024f9190611137565b610670565b6040516102619190611655565b60405180910390f35b6102726106b8565b60405161027f91906114b3565b60405180910390f35b6102a2600480360381019061029d91906111f7565b61074a565b6040516102af9190611498565b60405180910390f35b6102d260048036038101906102cd91906111f7565b610835565b6040516102df9190611498565b60405180910390f35b61030260048036038101906102fd9190611164565b610853565b60405161030f9190611655565b60405180910390f35b6103206108da565b60405161032d919061147d565b60405180910390f35b606060038054610345906117b9565b80601f0160208091040260200160405190810160405280929190818152602001828054610371906117b9565b80156103be5780601f10610393576101008083540402835291602001916103be565b820191906000526020600020905b8154815290600101906020018083116103a157829003601f168201915b5050505050905090565b60006103dc6103d5610900565b8484610908565b6001905092915050565b6000600254905090565b60006103fd848484610ad3565b6000600160008673ffffffffffffffffffffffffffffffffffffffff1673ffffffffffffffffffffffffffffffffffffffff1681526020019081526020016000206000610448610900565b73ffffffffffffffffffffffffffffffffffffffff1673ffffffffffffffffffffffffffffffffffffffff168152602001908152602001600020549050828110156104c8576040517f08c379a00000000000000000000000000000000000000000000000000000000081526004016104bf90611575565b60405180910390fd5b6104dc856104d4610900565b858403610908565b60019150509392505050565b60006012905090565b60007f0000000000000000000000000000000000000000000000000000000000000000905090565b60006105bb610526610900565b848460016000610534610900565b73ffffffffffffffffffffffffffffffffffffffff1673ffffffffffffffffffffffffffffffffffffffff16815260200190815260200160002060008873ffffffffffffffffffffffffffffffffffffffff1673ffffffffffffffffffffffffffffffffffffffff168152602001908152602001600020546105b691906116a7565b610908565b6001905092915050565b600560009054906101000a900473ffffffffffffffffffffffffffffffffffffffff1673ffffffffffffffffffffffffffffffffffffffff163373ffffffffffffffffffffffffffffffffffffffff1614610655576040517f08c379a000000000000000000000000000000000000000000000000000000000815260040161064c90611555565b60405180910390fd5b61065f8282610d54565b5050565b61066d3382610d62565b50565b60008060008373ffffffffffffffffffffffffffffffffffffffff1673ffffffffffffffffffffffffffffffffffffffff168152602001908152602001600020549050919050565b6060600480546106c7906117b9565b80601f01602080910402602001604051908101604052809291908181526020018280546106f3906117b9565b80156107405780601f1061071557610100808354040283529160200191610740565b820191906000526020600020905b81548152906001019060200180831161072357829003601f168201915b5050505050905090565b60008060016000610759610900565b73ffffffffffffffffffffffffffffffffffffffff1673ffffffffffffffffffffffffffffffffffffffff16815260200190815260200160002060008573ffffffffffffffffffffffffffffffffffffffff1673ffffffffffffffffffffffffffffffffffffffff16815260200190815260200160002054905082811015610816576040517f08c379a000000000000000000000000000000000000000000000000000000000815260040161080d90611615565b60405180910390fd5b61082a610821610900565b85858403610908565b600191505092915050565b6000610849610842610900565b8484610ad3565b6001905092915050565b6000600160008473ffffffffffffffffffffffffffffffffffffffff1673ffffffffffffffffffffffffffffffffffffffff16815260200190815260200160002060008373ffffffffffffffffffffffffffffffffffffffff1673ffffffffffffffffffffffffffffffffffffffff16815260200190815260200160002054905092915050565b600560009054906101000a900473ffffffffffffffffffffffffffffffffffffffff1681565b600033905090565b600073ffffffffffffffffffffffffffffffffffffffff168373ffffffffffffffffffffffffffffffffffffffff161415610978576040517f08c379a000000000000000000000000000000000000000000000000000000000815260040161096f906115f5565b60405180910390fd5b600073ffffffffffffffffffffffffffffffffffffffff168273ffffffffffffffffffffffffffffffffffffffff1614156109e8576040517f08c379a00000000000000000000000000000000000000000000000000000000081526004016109df90611515565b60405180910390fd5b80600160008573ffffffffffffffffffffffffffffffffffffffff1673ffffffffffffffffffffffffffffffffffffffff16815260200190815260200160002060008473ffffffffffffffffffffffffffffffffffffffff1673ffffffffffffffffffffffffffffffffffffffff168152602001908152602001600020819055508173ffffffffffffffffffffffffffffffffffffffff168373ffffffffffffffffffffffffffffffffffffffff167f8c5be1e5ebec7d5bd14f71427d1e84f3dd0314c0f7b2291e5b200ac8c7c3b92583604051610ac69190611655565b60405180910390a3505050565b600073ffffffffffffffffffffffffffffffffffffffff168373ffffffffffffffffffffffffffffffffffffffff161415610b43576040517f08c379a0000000000000000000000000000000000000000000000000000000008152600401610b3a906115b5565b60405180910390fd5b600073ffffffffffffffffffffffffffffffffffffffff168273ffffffffffffffffffffffffffffffffffffffff161415610bb3576040517f08c379a0000000000000000000000000000000000000000000000000000000008152600401610baa906114d5565b60405180910390fd5b610bbe838383610f39565b60008060008573ffffffffffffffffffffffffffffffffffffffff1673ffffffffffffffffffffffffffffffffffffffff16815260200190815260200160002054905081811015610c44576040517f08c379a0000000000000000000000000000000000000000000000000000000008152600401610c3b90611535565b60405180910390fd5b8181036000808673ffffffffffffffffffffffffffffffffffffffff1673ffffffffffffffffffffffffffffffffffffffff16815260200190815260200160002081905550816000808573ffffffffffffffffffffffffffffffffffffffff1673ffffffffffffffffffffffffffffffffffffffff1681526020019081526020016000206000828254610cd791906116a7565b925050819055508273ffffffffffffffffffffffffffffffffffffffff168473ffffffffffffffffffffffffffffffffffffffff167fddf252ad1be2c89b69c2b068fc378daa952ba7f163c4a11628f55a4df523b3ef84604051610d3b9190611655565b60405180910390a3610d4e848484610f3e565b50505050565b610d5e8282610f43565b5050565b600073ffffffffffffffffffffffffffffffffffffffff168273ffffffffffffffffffffffffffffffffffffffff161415610dd2576040517f08c379a0000000000000000000000000000000000000000000000000000000008152600401610dc990611595565b60405180910390fd5b610dde82600083610f39565b60008060008473ffffffffffffffffffffffffffffffffffffffff1673ffffffffffffffffffffffffffffffffffffffff16815260200190815260200160002054905081811015610e64576040517f08c379a0000000000000000000000000000000000000000000000000000000008152600401610e5b906114f5565b60405180910390fd5b8181036000808573ffffffffffffffffffffffffffffffffffffffff1673ffffffffffffffffffffffffffffffffffffffff168152602001908152602001600020819055508160026000828254610ebb91906116fd565b92505081905550600073ffffffffffffffffffffffffffffffffffffffff168373ffffffffffffffffffffffffffffffffffffffff167fddf252ad1be2c89b69c2b068fc378daa952ba7f163c4a11628f55a4df523b3ef84604051610f209190611655565b60405180910390a3610f3483600084610f3e565b505050565b505050565b505050565b610f4b6104f1565b81610f546103e6565b610f5e91906116a7565b1115610f9f576040517f08c379a0000000000000000000000000000000000000000000000000000000008152600401610f96906115d5565b60405180910390fd5b610fa98282610fad565b5050565b600073ffffffffffffffffffffffffffffffffffffffff168273ffffffffffffffffffffffffffffffffffffffff16141561101d576040517f08c379a000000000000000000000000000000000000000000000000000000000815260040161101490611635565b60405180910390fd5b61102960008383610f39565b806002600082825461103b91906116a7565b92505081905550806000808473ffffffffffffffffffffffffffffffffffffffff1673ffffffffffffffffffffffffffffffffffffffff168152602001908152602001600020600082825461109091906116a7565b925050819055508173ffffffffffffffffffffffffffffffffffffffff16600073ffffffffffffffffffffffffffffffffffffffff167fddf252ad1be2c89b69c2b068fc378daa952ba7f163c4a11628f55a4df523b3ef836040516110f59190611655565b60405180910390a361110960008383610f3e565b5050565b60008135905061111c81611ba1565b92915050565b60008135905061113181611bb8565b92915050565b60006020828403121561114d5761114c611849565b5b600061115b8482850161110d565b91505092915050565b6000806040838503121561117b5761117a611849565b5b60006111898582860161110d565b925050602061119a8582860161110d565b9150509250929050565b6000806000606084860312156111bd576111bc611849565b5b60006111cb8682870161110d565b93505060206111dc8682870161110d565b92505060406111ed86828701611122565b9150509250925092565b6000806040838503121561120e5761120d611849565b5b600061121c8582860161110d565b925050602061122d85828601611122565b9150509250929050565b60006020828403121561124d5761124c611849565b5b600061125b84828501611122565b91505092915050565b61126d81611731565b82525050565b61127c81611743565b82525050565b600061128d8261168b565b6112978185611696565b93506112a7818560208601611786565b6112b08161184e565b840191505092915050565b60006112c8602383611696565b91506112d38261185f565b604082019050919050565b60006112eb602283611696565b91506112f6826118ae565b604082019050919050565b600061130e602283611696565b9150611319826118fd565b604082019050919050565b6000611331602683611696565b915061133c8261194c565b604082019050919050565b6000611354600a83611696565b915061135f8261199b565b602082019050919050565b6000611377602883611696565b9150611382826119c4565b604082019050919050565b600061139a602183611696565b91506113a582611a13565b604082019050919050565b60006113bd602583611696565b91506113c882611a62565b604082019050919050565b60006113e0601983611696565b91506113eb82611ab1565b602082019050919050565b6000611403602483611696565b915061140e82611ada565b604082019050919050565b6000611426602583611696565b915061143182611b29565b604082019050919050565b6000611449601f83611696565b915061145482611b78565b602082019050919050565b6114688161176f565b82525050565b61147781611779565b82525050565b60006020820190506114926000830184611264565b92915050565b60006020820190506114ad6000830184611273565b92915050565b600060208201905081810360008301526114cd8184611282565b905092915050565b600060208201905081810360008301526114ee816112bb565b9050919050565b6000602082019050818103600083015261150e816112de565b9050919050565b6000602082019050818103600083015261152e81611301565b9050919050565b6000602082019050818103600083015261154e81611324565b9050919050565b6000602082019050818103600083015261156e81611347565b9050919050565b6000602082019050818103600083015261158e8161136a565b9050919050565b600060208201905081810360008301526115ae8161138d565b9050919050565b600060208201905081810360008301526115ce816113b0565b9050919050565b600060208201905081810360008301526115ee816113d3565b9050919050565b6000602082019050818103600083015261160e816113f6565b9050919050565b6000602082019050818103600083015261162e81611419565b9050919050565b6000602082019050818103600083015261164e8161143c565b9050919050565b600060208201905061166a600083018461145f565b92915050565b6000602082019050611685600083018461146e565b92915050565b600081519050919050565b600082825260208201905092915050565b60006116b28261176f565b91506116bd8361176f565b9250827fffffffffffffffffffffffffffffffffffffffffffffffffffffffffffffffff038211156116f2576116f16117eb565b5b828201905092915050565b60006117088261176f565b91506117138361176f565b925082821015611726576117256117eb565b5b828203905092915050565b600061173c8261174f565b9050919050565b60008115159050919050565b600073ffffffffffffffffffffffffffffffffffffffff82169050919050565b6000819050919050565b600060ff82169050919050565b60005b838110156117a4578082015181840152602081019050611789565b838111156117b3576000848401525b50505050565b600060028204905060018216806117d157607f821691505b602082108114156117e5576117e461181a565b5b50919050565b7f4e487b7100000000000000000000000000000000000000000000000000000000600052601160045260246000fd5b7f4e487b7100000000000000000000000000000000000000000000000000000000600052602260045260246000fd5b600080fd5b6000601f19601f8301169050919050565b7f45524332303a207472616e7366657220746f20746865207a65726f206164647260008201527f6573730000000000000000000000000000000000000000000000000000000000602082015250565b7f45524332303a206275726e20616d6f756e7420657863656564732062616c616e60008201527f6365000000000000000000000000000000000000000000000000000000000000602082015250565b7f45524332303a20617070726f766520746f20746865207a65726f20616464726560008201527f7373000000000000000000000000000000000000000000000000000000000000602082015250565b7f45524332303a207472616e7366657220616d6f756e742065786365656473206260008201527f616c616e63650000000000000000000000000000000000000000000000000000602082015250565b7f6f6e6c792061646d696e00000000000000000000000000000000000000000000600082015250565b7f45524332303a207472616e7366657220616d6f756e742065786365656473206160008201527f6c6c6f77616e6365000000000000000000000000000000000000000000000000602082015250565b7f45524332303a206275726e2066726f6d20746865207a65726f2061646472657360008201527f7300000000000000000000000000000000000000000000000000000000000000602082015250565b7f45524332303a207472616e736665722066726f6d20746865207a65726f20616460008201527f6472657373000000000000000000000000000000000000000000000000000000602082015250565b7f45524332304361707065643a2063617020657863656564656400000000000000600082015250565b7f45524332303a20617070726f76652066726f6d20746865207a65726f2061646460008201527f7265737300000000000000000000000000000000000000000000000000000000602082015250565b7f45524332303a2064656372656173656420616c6c6f77616e63652062656c6f7760008201527f207a65726f000000000000000000000000000000000000000000000000000000602082015250565b7f45524332303a206d696e7420746f20746865207a65726f206164647265737300600082015250565b611baa81611731565b8114611bb557600080fd5b50565b611bc18161176f565b8114611bcc57600080fd5b5056fea264697066735822122098de7acc48846e08cc301583e5f2071acbe668610638328ad3b033fb7ad49d6564736f6c63430008050033",
  "immutableReferences": {
    "631": [
      {
        "length": 32,
        "start": 1269
      }
    ]
  },
  "source": "pragma solidity ^0.8.5;\n\nimport \"@openzeppelin/contracts/token/ERC20/ERC20.sol\";\nimport \"@openzeppelin/contracts/token/ERC20/extensions/ERC20Capped.sol\";\n\ncontract QuissceQoin is ERC20, ERC20Capped {\n    address public admin;\n\n    constructor() ERC20(\"Quissce Qoin\", \"QWIS\") ERC20Capped(69_000_000e18) {\n        admin = msg.sender;\n    }\n\n    function _mint(address account, uint256 amount)\n        internal\n        virtual\n        override(ERC20, ERC20Capped)\n    {\n        return super._mint(account, amount);\n    }\n\n    function mint(address to, uint256 amount) external {\n        require(msg.sender == admin, \"only admin\");\n        _mint(to, amount);\n    }\n\n    function burn(uint256 amount) external {\n        _burn(msg.sender, amount);\n    }\n}\n",
  "sourcePath": "/Users/alevine/quissce-qoin/src/contracts/QuissceQoin.sol",
  "compiler": {
    "name": "solc",
    "version": "0.8.5+commit.a4f2e591.Emscripten.clang"
  },
  "schemaVersion": "3.4.3",
  "updatedAt": "2021-09-02T10:38:57.944Z",
  "networkType": "ethereum",
  "devdoc": {
    "kind": "dev",
    "methods": {
      "allowance(address,address)": {
        "details": "See {IERC20-allowance}."
      },
      "approve(address,uint256)": {
        "details": "See {IERC20-approve}. Requirements: - `spender` cannot be the zero address."
      },
      "balanceOf(address)": {
        "details": "See {IERC20-balanceOf}."
      },
      "cap()": {
        "details": "Returns the cap on the token's total supply."
      },
      "decimals()": {
        "details": "Returns the number of decimals used to get its user representation. For example, if `decimals` equals `2`, a balance of `505` tokens should be displayed to a user as `5.05` (`505 / 10 ** 2`). Tokens usually opt for a value of 18, imitating the relationship between Ether and Wei. This is the value {ERC20} uses, unless this function is overridden; NOTE: This information is only used for _display_ purposes: it in no way affects any of the arithmetic of the contract, including {IERC20-balanceOf} and {IERC20-transfer}."
      },
      "decreaseAllowance(address,uint256)": {
        "details": "Atomically decreases the allowance granted to `spender` by the caller. This is an alternative to {approve} that can be used as a mitigation for problems described in {IERC20-approve}. Emits an {Approval} event indicating the updated allowance. Requirements: - `spender` cannot be the zero address. - `spender` must have allowance for the caller of at least `subtractedValue`."
      },
      "increaseAllowance(address,uint256)": {
        "details": "Atomically increases the allowance granted to `spender` by the caller. This is an alternative to {approve} that can be used as a mitigation for problems described in {IERC20-approve}. Emits an {Approval} event indicating the updated allowance. Requirements: - `spender` cannot be the zero address."
      },
      "name()": {
        "details": "Returns the name of the token."
      },
      "symbol()": {
        "details": "Returns the symbol of the token, usually a shorter version of the name."
      },
      "totalSupply()": {
        "details": "See {IERC20-totalSupply}."
      },
      "transfer(address,uint256)": {
        "details": "See {IERC20-transfer}. Requirements: - `recipient` cannot be the zero address. - the caller must have a balance of at least `amount`."
      },
      "transferFrom(address,address,uint256)": {
        "details": "See {IERC20-transferFrom}. Emits an {Approval} event indicating the updated allowance. This is not required by the EIP. See the note at the beginning of {ERC20}. Requirements: - `sender` and `recipient` cannot be the zero address. - `sender` must have a balance of at least `amount`. - the caller must have allowance for ``sender``'s tokens of at least `amount`."
      }
    },
    "version": 1
  },
  "userdoc": {
    "kind": "user",
    "methods": {},
    "version": 1
  }
}