{
  "contractName": "QuissceDadDollars",
  "abi": [
    {
      "inputs": [
        {
          "internalType": "contract QuissceDads",
          "name": "_quissceDads",
          "type": "address"
        }
      ],
      "stateMutability": "nonpayable",
      "type": "constructor"
    },
    {
      "anonymous": false,
      "inputs": [
        {
          "indexed": true,
          "internalType": "address",
          "name": "owner",
          "type": "address"
        },
        {
          "indexed": true,
          "internalType": "address",
          "name": "spender",
          "type": "address"
        },
        {
          "indexed": false,
          "internalType": "uint256",
          "name": "value",
          "type": "uint256"
        }
      ],
      "name": "Approval",
      "type": "event"
    },
    {
      "anonymous": false,
      "inputs": [
        {
          "indexed": true,
          "internalType": "address",
          "name": "from",
          "type": "address"
        },
        {
          "indexed": true,
          "internalType": "address",
          "name": "to",
          "type": "address"
        },
        {
          "indexed": false,
          "internalType": "uint256",
          "name": "value",
          "type": "uint256"
        }
      ],
      "name": "Transfer",
      "type": "event"
    },
    {
      "inputs": [],
      "name": "admin",
      "outputs": [
        {
          "internalType": "address",
          "name": "",
          "type": "address"
        }
      ],
      "stateMutability": "view",
      "type": "function",
      "constant": true
    },
    {
      "inputs": [
        {
          "internalType": "address",
          "name": "owner",
          "type": "address"
        },
        {
          "internalType": "address",
          "name": "spender",
          "type": "address"
        }
      ],
      "name": "allowance",
      "outputs": [
        {
          "internalType": "uint256",
          "name": "",
          "type": "uint256"
        }
      ],
      "stateMutability": "view",
      "type": "function",
      "constant": true
    },
    {
      "inputs": [
        {
          "internalType": "address",
          "name": "spender",
          "type": "address"
        },
        {
          "internalType": "uint256",
          "name": "amount",
          "type": "uint256"
        }
      ],
      "name": "approve",
      "outputs": [
        {
          "internalType": "bool",
          "name": "",
          "type": "bool"
        }
      ],
      "stateMutability": "nonpayable",
      "type": "function"
    },
    {
      "inputs": [
        {
          "internalType": "address",
          "name": "account",
          "type": "address"
        }
      ],
      "name": "balanceOf",
      "outputs": [
        {
          "internalType": "uint256",
          "name": "",
          "type": "uint256"
        }
      ],
      "stateMutability": "view",
      "type": "function",
      "constant": true
    },
    {
      "inputs": [
        {
          "internalType": "address",
          "name": "",
          "type": "address"
        }
      ],
      "name": "claimedDadDollars",
      "outputs": [
        {
          "internalType": "uint256",
          "name": "",
          "type": "uint256"
        }
      ],
      "stateMutability": "view",
      "type": "function",
      "constant": true
    },
    {
      "inputs": [],
      "name": "decimals",
      "outputs": [
        {
          "internalType": "uint8",
          "name": "",
          "type": "uint8"
        }
      ],
      "stateMutability": "view",
      "type": "function",
      "constant": true
    },
    {
      "inputs": [
        {
          "internalType": "address",
          "name": "spender",
          "type": "address"
        },
        {
          "internalType": "uint256",
          "name": "subtractedValue",
          "type": "uint256"
        }
      ],
      "name": "decreaseAllowance",
      "outputs": [
        {
          "internalType": "bool",
          "name": "",
          "type": "bool"
        }
      ],
      "stateMutability": "nonpayable",
      "type": "function"
    },
    {
      "inputs": [
        {
          "internalType": "address",
          "name": "spender",
          "type": "address"
        },
        {
          "internalType": "uint256",
          "name": "addedValue",
          "type": "uint256"
        }
      ],
      "name": "increaseAllowance",
      "outputs": [
        {
          "internalType": "bool",
          "name": "",
          "type": "bool"
        }
      ],
      "stateMutability": "nonpayable",
      "type": "function"
    },
    {
      "inputs": [],
      "name": "name",
      "outputs": [
        {
          "internalType": "string",
          "name": "",
          "type": "string"
        }
      ],
      "stateMutability": "view",
      "type": "function",
      "constant": true
    },
    {
      "inputs": [],
      "name": "symbol",
      "outputs": [
        {
          "internalType": "string",
          "name": "",
          "type": "string"
        }
      ],
      "stateMutability": "view",
      "type": "function",
      "constant": true
    },
    {
      "inputs": [],
      "name": "totalSupply",
      "outputs": [
        {
          "internalType": "uint256",
          "name": "",
          "type": "uint256"
        }
      ],
      "stateMutability": "view",
      "type": "function",
      "constant": true
    },
    {
      "inputs": [
        {
          "internalType": "address",
          "name": "recipient",
          "type": "address"
        },
        {
          "internalType": "uint256",
          "name": "amount",
          "type": "uint256"
        }
      ],
      "name": "transfer",
      "outputs": [
        {
          "internalType": "bool",
          "name": "",
          "type": "bool"
        }
      ],
      "stateMutability": "nonpayable",
      "type": "function"
    },
    {
      "inputs": [
        {
          "internalType": "address",
          "name": "sender",
          "type": "address"
        },
        {
          "internalType": "address",
          "name": "recipient",
          "type": "address"
        },
        {
          "internalType": "uint256",
          "name": "amount",
          "type": "uint256"
        }
      ],
      "name": "transferFrom",
      "outputs": [
        {
          "internalType": "bool",
          "name": "",
          "type": "bool"
        }
      ],
      "stateMutability": "nonpayable",
      "type": "function"
    },
    {
      "inputs": [],
      "name": "claimDadDollars",
      "outputs": [],
      "stateMutability": "nonpayable",
      "type": "function"
    },
    {
      "inputs": [
        {
          "internalType": "uint256",
          "name": "amount",
          "type": "uint256"
        }
      ],
      "name": "burn",
      "outputs": [],
      "stateMutability": "nonpayable",
      "type": "function"
    }
  ],
  "bytecode": "0x60806040523480156200001157600080fd5b5060405162000f4238038062000f4283398101604081905262000034916200018a565b604080518082018252601381527f517569737363652044616420446f6c6c6172730000000000000000000000000060208083019182528351808501909452600584526414511113d360da1b9084015281519192916200009691600391620000e4565b508051620000ac906004906020840190620000e4565b505060058054336001600160a01b031991821617909155600680549091166001600160a01b03939093169290921790915550620001f9565b828054620000f290620001bc565b90600052602060002090601f01602090048101928262000116576000855562000161565b82601f106200013157805160ff191683800117855562000161565b8280016001018555821562000161579182015b828111156200016157825182559160200191906001019062000144565b506200016f92915062000173565b5090565b5b808211156200016f576000815560010162000174565b6000602082840312156200019d57600080fd5b81516001600160a01b0381168114620001b557600080fd5b9392505050565b600181811c90821680620001d157607f821691505b60208210811415620001f357634e487b7160e01b600052602260045260246000fd5b50919050565b610d3980620002096000396000f3fe608060405234801561001057600080fd5b50600436106100f55760003560e01c806342966c6811610097578063a457c2d711610066578063a457c2d7146101f0578063a9059cbb14610203578063dd62ed3e14610216578063f851a4401461024f57600080fd5b806342966c68146101a257806370a08231146101b757806395d89b41146101e05780639903455f146101e857600080fd5b806323b872dd116100d357806323b872dd1461014d5780633087940f14610160578063313ce56714610180578063395093511461018f57600080fd5b806306fdde03146100fa578063095ea7b31461011857806318160ddd1461013b575b600080fd5b61010261027a565b60405161010f9190610c0f565b60405180910390f35b61012b610126366004610bb3565b61030c565b604051901515815260200161010f565b6002545b60405190815260200161010f565b61012b61015b366004610b77565b610322565b61013f61016e366004610b22565b60076020526000908152604090205481565b6040516012815260200161010f565b61012b61019d366004610bb3565b6103d1565b6101b56101b0366004610bdd565b61040d565b005b61013f6101c5366004610b22565b6001600160a01b031660009081526020819052604090205490565b61010261041a565b6101b5610429565b61012b6101fe366004610bb3565b610547565b61012b610211366004610bb3565b6105e0565b61013f610224366004610b44565b6001600160a01b03918216600090815260016020908152604080832093909416825291909152205490565b600554610262906001600160a01b031681565b6040516001600160a01b03909116815260200161010f565b60606003805461028990610cb2565b80601f01602080910402602001604051908101604052809291908181526020018280546102b590610cb2565b80156103025780601f106102d757610100808354040283529160200191610302565b820191906000526020600020905b8154815290600101906020018083116102e557829003601f168201915b5050505050905090565b60006103193384846105ed565b50600192915050565b600061032f848484610712565b6001600160a01b0384166000908152600160209081526040808320338452909152902054828110156103b95760405162461bcd60e51b815260206004820152602860248201527f45524332303a207472616e7366657220616d6f756e74206578636565647320616044820152676c6c6f77616e636560c01b60648201526084015b60405180910390fd5b6103c685338584036105ed565b506001949350505050565b3360008181526001602090815260408083206001600160a01b03871684529091528120549091610319918590610408908690610c64565b6105ed565b61041733826108e1565b50565b60606004805461028990610cb2565b600654604051635293cdab60e11b81523360048201526000916001600160a01b03169063a5279b569060240160206040518083038186803b15801561046d57600080fd5b505afa158015610481573d6000803e3d6000fd5b505050506040513d601f19601f820116820180604052508101906104a59190610bf6565b336000908152600760205260408120549192506104c28284610c9b565b1161050f5760405162461bcd60e51b815260206004820152601860248201527f6e6f20636c61696d61626c652064616420646f6c6c617273000000000000000060448201526064016103b0565b6105343361051d8385610c9b565b61052f90670de0b6b3a7640000610c7c565b610a27565b5033600090815260076020526040902055565b3360009081526001602090815260408083206001600160a01b0386168452909152812054828110156105c95760405162461bcd60e51b815260206004820152602560248201527f45524332303a2064656372656173656420616c6c6f77616e63652062656c6f77604482015264207a65726f60d81b60648201526084016103b0565b6105d633858584036105ed565b5060019392505050565b6000610319338484610712565b6001600160a01b03831661064f5760405162461bcd60e51b8152602060048201526024808201527f45524332303a20617070726f76652066726f6d20746865207a65726f206164646044820152637265737360e01b60648201526084016103b0565b6001600160a01b0382166106b05760405162461bcd60e51b815260206004820152602260248201527f45524332303a20617070726f766520746f20746865207a65726f206164647265604482015261737360f01b60648201526084016103b0565b6001600160a01b0383811660008181526001602090815260408083209487168084529482529182902085905590518481527f8c5be1e5ebec7d5bd14f71427d1e84f3dd0314c0f7b2291e5b200ac8c7c3b92591015b60405180910390a3505050565b6001600160a01b0383166107765760405162461bcd60e51b815260206004820152602560248201527f45524332303a207472616e736665722066726f6d20746865207a65726f206164604482015264647265737360d81b60648201526084016103b0565b6001600160a01b0382166107d85760405162461bcd60e51b815260206004820152602360248201527f45524332303a207472616e7366657220746f20746865207a65726f206164647260448201526265737360e81b60648201526084016103b0565b6001600160a01b038316600090815260208190526040902054818110156108505760405162461bcd60e51b815260206004820152602660248201527f45524332303a207472616e7366657220616d6f756e7420657863656564732062604482015265616c616e636560d01b60648201526084016103b0565b6001600160a01b03808516600090815260208190526040808220858503905591851681529081208054849290610887908490610c64565b92505081905550826001600160a01b0316846001600160a01b03167fddf252ad1be2c89b69c2b068fc378daa952ba7f163c4a11628f55a4df523b3ef846040516108d391815260200190565b60405180910390a350505050565b6001600160a01b0382166109415760405162461bcd60e51b815260206004820152602160248201527f45524332303a206275726e2066726f6d20746865207a65726f206164647265736044820152607360f81b60648201526084016103b0565b6001600160a01b038216600090815260208190526040902054818110156109b55760405162461bcd60e51b815260206004820152602260248201527f45524332303a206275726e20616d6f756e7420657863656564732062616c616e604482015261636560f01b60648201526084016103b0565b6001600160a01b03831660009081526020819052604081208383039055600280548492906109e4908490610c9b565b90915550506040518281526000906001600160a01b038516907fddf252ad1be2c89b69c2b068fc378daa952ba7f163c4a11628f55a4df523b3ef90602001610705565b6001600160a01b038216610a7d5760405162461bcd60e51b815260206004820152601f60248201527f45524332303a206d696e7420746f20746865207a65726f20616464726573730060448201526064016103b0565b8060026000828254610a8f9190610c64565b90915550506001600160a01b03821660009081526020819052604081208054839290610abc908490610c64565b90915550506040518181526001600160a01b038316906000907fddf252ad1be2c89b69c2b068fc378daa952ba7f163c4a11628f55a4df523b3ef9060200160405180910390a35050565b80356001600160a01b0381168114610b1d57600080fd5b919050565b600060208284031215610b3457600080fd5b610b3d82610b06565b9392505050565b60008060408385031215610b5757600080fd5b610b6083610b06565b9150610b6e60208401610b06565b90509250929050565b600080600060608486031215610b8c57600080fd5b610b9584610b06565b9250610ba360208501610b06565b9150604084013590509250925092565b60008060408385031215610bc657600080fd5b610bcf83610b06565b946020939093013593505050565b600060208284031215610bef57600080fd5b5035919050565b600060208284031215610c0857600080fd5b5051919050565b600060208083528351808285015260005b81811015610c3c57858101830151858201604001528201610c20565b81811115610c4e576000604083870101525b50601f01601f1916929092016040019392505050565b60008219821115610c7757610c77610ced565b500190565b6000816000190483118215151615610c9657610c96610ced565b500290565b600082821015610cad57610cad610ced565b500390565b600181811c90821680610cc657607f821691505b60208210811415610ce757634e487b7160e01b600052602260045260246000fd5b50919050565b634e487b7160e01b600052601160045260246000fdfea26469706673582212202c6829fc0bd9838bcd5df7d7a16a2fb937174599285bba420840a0ea5767b4d464736f6c63430008050033",
  "immutableReferences": {},
  "source": "pragma solidity ^0.8.5;\n\nimport \"@openzeppelin/contracts/token/ERC20/ERC20.sol\";\nimport \"./QuissceDads.sol\";\n\ncontract QuissceDadDollars is ERC20 {\n    address public admin;\n    QuissceDads quissceDads;\n\n    mapping(address => uint256) public claimedDadDollars;\n\n    constructor(QuissceDads _quissceDads)\n        ERC20(\"Quissce Dad Dollars\", \"QDDOL\")\n    {\n        admin = msg.sender;\n        quissceDads = _quissceDads;\n    }\n\n    function claimDadDollars() external {\n        uint256 claimableAmount = quissceDads.claimableDadDollars(msg.sender);\n        uint256 claimedAmount = claimedDadDollars[msg.sender];\n\n        require(\n            claimableAmount - claimedAmount > 0,\n            \"no claimable dad dollars\"\n        );\n        _mint(msg.sender, (claimableAmount - claimedAmount) * 10**18);\n        claimedDadDollars[msg.sender] = claimableAmount;\n    }\n\n    function burn(uint256 amount) external {\n        _burn(msg.sender, amount);\n    }\n}\n",
  "sourcePath": "/Users/alevine/quissce-qoin/src/contracts/QuissceDadDollars.sol",
  "compiler": {
    "name": "solc",
    "version": "0.8.5+commit.a4f2e591.Emscripten.clang"
  },
  "schemaVersion": "3.4.3",
  "updatedAt": "2021-09-06T18:10:52.966Z",
  "networkType": "ethereum",
  "devdoc": {
    "kind": "dev",
    "methods": {
      "allowance(address,address)": {
        "details": "See {IERC20-allowance}."
      },
      "approve(address,uint256)": {
        "details": "See {IERC20-approve}. Requirements: - `spender` cannot be the zero address."
      },
      "balanceOf(address)": {
        "details": "See {IERC20-balanceOf}."
      },
      "decimals()": {
        "details": "Returns the number of decimals used to get its user representation. For example, if `decimals` equals `2`, a balance of `505` tokens should be displayed to a user as `5.05` (`505 / 10 ** 2`). Tokens usually opt for a value of 18, imitating the relationship between Ether and Wei. This is the value {ERC20} uses, unless this function is overridden; NOTE: This information is only used for _display_ purposes: it in no way affects any of the arithmetic of the contract, including {IERC20-balanceOf} and {IERC20-transfer}."
      },
      "decreaseAllowance(address,uint256)": {
        "details": "Atomically decreases the allowance granted to `spender` by the caller. This is an alternative to {approve} that can be used as a mitigation for problems described in {IERC20-approve}. Emits an {Approval} event indicating the updated allowance. Requirements: - `spender` cannot be the zero address. - `spender` must have allowance for the caller of at least `subtractedValue`."
      },
      "increaseAllowance(address,uint256)": {
        "details": "Atomically increases the allowance granted to `spender` by the caller. This is an alternative to {approve} that can be used as a mitigation for problems described in {IERC20-approve}. Emits an {Approval} event indicating the updated allowance. Requirements: - `spender` cannot be the zero address."
      },
      "name()": {
        "details": "Returns the name of the token."
      },
      "symbol()": {
        "details": "Returns the symbol of the token, usually a shorter version of the name."
      },
      "totalSupply()": {
        "details": "See {IERC20-totalSupply}."
      },
      "transfer(address,uint256)": {
        "details": "See {IERC20-transfer}. Requirements: - `recipient` cannot be the zero address. - the caller must have a balance of at least `amount`."
      },
      "transferFrom(address,address,uint256)": {
        "details": "See {IERC20-transferFrom}. Emits an {Approval} event indicating the updated allowance. This is not required by the EIP. See the note at the beginning of {ERC20}. Requirements: - `sender` and `recipient` cannot be the zero address. - `sender` must have a balance of at least `amount`. - the caller must have allowance for ``sender``'s tokens of at least `amount`."
      }
    },
    "version": 1
  },
  "userdoc": {
    "kind": "user",
    "methods": {},
    "version": 1
  }
}