{
  "contractName": "QuissceDads",
  "abi": [
    {
      "inputs": [
        {
          "internalType": "contract QuissceQoin",
          "name": "_quissceQoin",
          "type": "address"
        }
      ],
      "stateMutability": "nonpayable",
      "type": "constructor"
    },
    {
      "anonymous": false,
      "inputs": [
        {
          "indexed": true,
          "internalType": "address",
          "name": "owner",
          "type": "address"
        },
        {
          "indexed": true,
          "internalType": "address",
          "name": "approved",
          "type": "address"
        },
        {
          "indexed": true,
          "internalType": "uint256",
          "name": "tokenId",
          "type": "uint256"
        }
      ],
      "name": "Approval",
      "type": "event"
    },
    {
      "anonymous": false,
      "inputs": [
        {
          "indexed": true,
          "internalType": "address",
          "name": "owner",
          "type": "address"
        },
        {
          "indexed": true,
          "internalType": "address",
          "name": "operator",
          "type": "address"
        },
        {
          "indexed": false,
          "internalType": "bool",
          "name": "approved",
          "type": "bool"
        }
      ],
      "name": "ApprovalForAll",
      "type": "event"
    },
    {
      "anonymous": false,
      "inputs": [
        {
          "indexed": true,
          "internalType": "address",
          "name": "from",
          "type": "address"
        },
        {
          "indexed": true,
          "internalType": "address",
          "name": "to",
          "type": "address"
        },
        {
          "indexed": true,
          "internalType": "uint256",
          "name": "tokenId",
          "type": "uint256"
        }
      ],
      "name": "Transfer",
      "type": "event"
    },
    {
      "inputs": [
        {
          "internalType": "address",
          "name": "to",
          "type": "address"
        },
        {
          "internalType": "uint256",
          "name": "tokenId",
          "type": "uint256"
        }
      ],
      "name": "approve",
      "outputs": [],
      "stateMutability": "nonpayable",
      "type": "function"
    },
    {
      "inputs": [
        {
          "internalType": "address",
          "name": "owner",
          "type": "address"
        }
      ],
      "name": "balanceOf",
      "outputs": [
        {
          "internalType": "uint256",
          "name": "",
          "type": "uint256"
        }
      ],
      "stateMutability": "view",
      "type": "function",
      "constant": true
    },
    {
      "inputs": [
        {
          "internalType": "uint256",
          "name": "tokenId",
          "type": "uint256"
        }
      ],
      "name": "burn",
      "outputs": [],
      "stateMutability": "nonpayable",
      "type": "function"
    },
    {
      "inputs": [
        {
          "internalType": "address",
          "name": "",
          "type": "address"
        }
      ],
      "name": "claimableDadDollars",
      "outputs": [
        {
          "internalType": "uint256",
          "name": "",
          "type": "uint256"
        }
      ],
      "stateMutability": "view",
      "type": "function",
      "constant": true
    },
    {
      "inputs": [],
      "name": "dadCounter",
      "outputs": [
        {
          "internalType": "uint256",
          "name": "",
          "type": "uint256"
        }
      ],
      "stateMutability": "view",
      "type": "function",
      "constant": true
    },
    {
      "inputs": [
        {
          "internalType": "uint256",
          "name": "",
          "type": "uint256"
        }
      ],
      "name": "dadDataArray",
      "outputs": [
        {
          "internalType": "uint256",
          "name": "id",
          "type": "uint256"
        },
        {
          "internalType": "string",
          "name": "firstName",
          "type": "string"
        },
        {
          "internalType": "string",
          "name": "lastName",
          "type": "string"
        },
        {
          "internalType": "string",
          "name": "favoriteFood",
          "type": "string"
        },
        {
          "internalType": "string",
          "name": "hobbies",
          "type": "string"
        },
        {
          "internalType": "uint256",
          "name": "dadScore",
          "type": "uint256"
        },
        {
          "internalType": "bool",
          "name": "isBurned",
          "type": "bool"
        },
        {
          "internalType": "uint256",
          "name": "salePrice",
          "type": "uint256"
        }
      ],
      "stateMutability": "view",
      "type": "function",
      "constant": true
    },
    {
      "inputs": [
        {
          "internalType": "uint256",
          "name": "tokenId",
          "type": "uint256"
        }
      ],
      "name": "getApproved",
      "outputs": [
        {
          "internalType": "address",
          "name": "",
          "type": "address"
        }
      ],
      "stateMutability": "view",
      "type": "function",
      "constant": true
    },
    {
      "inputs": [
        {
          "internalType": "address",
          "name": "owner",
          "type": "address"
        },
        {
          "internalType": "address",
          "name": "operator",
          "type": "address"
        }
      ],
      "name": "isApprovedForAll",
      "outputs": [
        {
          "internalType": "bool",
          "name": "",
          "type": "bool"
        }
      ],
      "stateMutability": "view",
      "type": "function",
      "constant": true
    },
    {
      "inputs": [],
      "name": "name",
      "outputs": [
        {
          "internalType": "string",
          "name": "",
          "type": "string"
        }
      ],
      "stateMutability": "view",
      "type": "function",
      "constant": true
    },
    {
      "inputs": [
        {
          "internalType": "uint256",
          "name": "tokenId",
          "type": "uint256"
        }
      ],
      "name": "ownerOf",
      "outputs": [
        {
          "internalType": "address",
          "name": "",
          "type": "address"
        }
      ],
      "stateMutability": "view",
      "type": "function",
      "constant": true
    },
    {
      "inputs": [],
      "name": "quissceQoin",
      "outputs": [
        {
          "internalType": "contract QuissceQoin",
          "name": "",
          "type": "address"
        }
      ],
      "stateMutability": "view",
      "type": "function",
      "constant": true
    },
    {
      "inputs": [
        {
          "internalType": "address",
          "name": "from",
          "type": "address"
        },
        {
          "internalType": "address",
          "name": "to",
          "type": "address"
        },
        {
          "internalType": "uint256",
          "name": "tokenId",
          "type": "uint256"
        }
      ],
      "name": "safeTransferFrom",
      "outputs": [],
      "stateMutability": "nonpayable",
      "type": "function"
    },
    {
      "inputs": [
        {
          "internalType": "address",
          "name": "from",
          "type": "address"
        },
        {
          "internalType": "address",
          "name": "to",
          "type": "address"
        },
        {
          "internalType": "uint256",
          "name": "tokenId",
          "type": "uint256"
        },
        {
          "internalType": "bytes",
          "name": "_data",
          "type": "bytes"
        }
      ],
      "name": "safeTransferFrom",
      "outputs": [],
      "stateMutability": "nonpayable",
      "type": "function"
    },
    {
      "inputs": [
        {
          "internalType": "address",
          "name": "operator",
          "type": "address"
        },
        {
          "internalType": "bool",
          "name": "approved",
          "type": "bool"
        }
      ],
      "name": "setApprovalForAll",
      "outputs": [],
      "stateMutability": "nonpayable",
      "type": "function"
    },
    {
      "inputs": [],
      "name": "symbol",
      "outputs": [
        {
          "internalType": "string",
          "name": "",
          "type": "string"
        }
      ],
      "stateMutability": "view",
      "type": "function",
      "constant": true
    },
    {
      "inputs": [
        {
          "internalType": "uint256",
          "name": "index",
          "type": "uint256"
        }
      ],
      "name": "tokenByIndex",
      "outputs": [
        {
          "internalType": "uint256",
          "name": "",
          "type": "uint256"
        }
      ],
      "stateMutability": "view",
      "type": "function",
      "constant": true
    },
    {
      "inputs": [
        {
          "internalType": "address",
          "name": "owner",
          "type": "address"
        },
        {
          "internalType": "uint256",
          "name": "index",
          "type": "uint256"
        }
      ],
      "name": "tokenOfOwnerByIndex",
      "outputs": [
        {
          "internalType": "uint256",
          "name": "",
          "type": "uint256"
        }
      ],
      "stateMutability": "view",
      "type": "function",
      "constant": true
    },
    {
      "inputs": [],
      "name": "totalSupply",
      "outputs": [
        {
          "internalType": "uint256",
          "name": "",
          "type": "uint256"
        }
      ],
      "stateMutability": "view",
      "type": "function",
      "constant": true
    },
    {
      "inputs": [
        {
          "internalType": "address",
          "name": "from",
          "type": "address"
        },
        {
          "internalType": "address",
          "name": "to",
          "type": "address"
        },
        {
          "internalType": "uint256",
          "name": "tokenId",
          "type": "uint256"
        }
      ],
      "name": "transferFrom",
      "outputs": [],
      "stateMutability": "nonpayable",
      "type": "function"
    },
    {
      "inputs": [],
      "name": "getDadData",
      "outputs": [
        {
          "components": [
            {
              "internalType": "uint256",
              "name": "id",
              "type": "uint256"
            },
            {
              "internalType": "string",
              "name": "firstName",
              "type": "string"
            },
            {
              "internalType": "string",
              "name": "lastName",
              "type": "string"
            },
            {
              "internalType": "string",
              "name": "favoriteFood",
              "type": "string"
            },
            {
              "internalType": "string",
              "name": "hobbies",
              "type": "string"
            },
            {
              "internalType": "uint256",
              "name": "dadScore",
              "type": "uint256"
            },
            {
              "internalType": "bool",
              "name": "isBurned",
              "type": "bool"
            },
            {
              "internalType": "uint256",
              "name": "salePrice",
              "type": "uint256"
            }
          ],
          "internalType": "struct QuissceDads.Dad[]",
          "name": "",
          "type": "tuple[]"
        }
      ],
      "stateMutability": "view",
      "type": "function",
      "constant": true
    },
    {
      "inputs": [],
      "name": "getDadsOwnedByAddress",
      "outputs": [
        {
          "components": [
            {
              "internalType": "uint256",
              "name": "id",
              "type": "uint256"
            },
            {
              "internalType": "string",
              "name": "firstName",
              "type": "string"
            },
            {
              "internalType": "string",
              "name": "lastName",
              "type": "string"
            },
            {
              "internalType": "string",
              "name": "favoriteFood",
              "type": "string"
            },
            {
              "internalType": "string",
              "name": "hobbies",
              "type": "string"
            },
            {
              "internalType": "uint256",
              "name": "dadScore",
              "type": "uint256"
            },
            {
              "internalType": "bool",
              "name": "isBurned",
              "type": "bool"
            },
            {
              "internalType": "uint256",
              "name": "salePrice",
              "type": "uint256"
            }
          ],
          "internalType": "struct QuissceDads.Dad[]",
          "name": "",
          "type": "tuple[]"
        }
      ],
      "stateMutability": "view",
      "type": "function",
      "constant": true
    },
    {
      "inputs": [
        {
          "internalType": "string",
          "name": "firstName",
          "type": "string"
        },
        {
          "internalType": "string",
          "name": "lastName",
          "type": "string"
        },
        {
          "internalType": "string",
          "name": "favoriteFood",
          "type": "string"
        },
        {
          "internalType": "string",
          "name": "hobbies",
          "type": "string"
        },
        {
          "internalType": "string",
          "name": "tokenURI",
          "type": "string"
        }
      ],
      "name": "createDad",
      "outputs": [
        {
          "internalType": "uint256",
          "name": "",
          "type": "uint256"
        }
      ],
      "stateMutability": "nonpayable",
      "type": "function"
    },
    {
      "inputs": [
        {
          "internalType": "uint256",
          "name": "dadId",
          "type": "uint256"
        },
        {
          "internalType": "uint256",
          "name": "amount",
          "type": "uint256"
        }
      ],
      "name": "updateSalePrice",
      "outputs": [],
      "stateMutability": "nonpayable",
      "type": "function"
    },
    {
      "inputs": [
        {
          "internalType": "uint256",
          "name": "dadId",
          "type": "uint256"
        }
      ],
      "name": "buyDadWithQuissceQoin",
      "outputs": [],
      "stateMutability": "nonpayable",
      "type": "function"
    },
    {
      "inputs": [
        {
          "internalType": "uint256",
          "name": "dadId",
          "type": "uint256"
        }
      ],
      "name": "burnDad",
      "outputs": [],
      "stateMutability": "nonpayable",
      "type": "function"
    },
    {
      "inputs": [
        {
          "internalType": "bytes4",
          "name": "interfaceId",
          "type": "bytes4"
        }
      ],
      "name": "supportsInterface",
      "outputs": [
        {
          "internalType": "bool",
          "name": "",
          "type": "bool"
        }
      ],
      "stateMutability": "view",
      "type": "function",
      "constant": true
    },
    {
      "inputs": [
        {
          "internalType": "uint256",
          "name": "tokenId",
          "type": "uint256"
        }
      ],
      "name": "tokenURI",
      "outputs": [
        {
          "internalType": "string",
          "name": "",
          "type": "string"
        }
      ],
      "stateMutability": "view",
      "type": "function",
      "constant": true
    }
  ],
  "bytecode": "0x60806040523480156200001157600080fd5b506040516200328f3803806200328f83398101604081905262000034916200016f565b604080518082018252600c81526b51756973736365204461647360a01b6020808301918252835180850190945260048452631451105160e21b9084015281519192916200008491600091620000c9565b5080516200009a906001906020840190620000c9565b5050600b80546001600160a01b0319166001600160a01b039390931692909217909155506000600c55620001de565b828054620000d790620001a1565b90600052602060002090601f016020900481019282620000fb576000855562000146565b82601f106200011657805160ff191683800117855562000146565b8280016001018555821562000146579182015b828111156200014657825182559160200191906001019062000129565b506200015492915062000158565b5090565b5b8082111562000154576000815560010162000159565b6000602082840312156200018257600080fd5b81516001600160a01b03811681146200019a57600080fd5b9392505050565b600181811c90821680620001b657607f821691505b60208210811415620001d857634e487b7160e01b600052602260045260246000fd5b50919050565b6130a180620001ee6000396000f3fe608060405234801561001057600080fd5b50600436106101a95760003560e01c80636352211e116100f9578063a22cb46511610097578063bee8a23a11610071578063bee8a23a146103ab578063c87b56dd146103b4578063e356380b146103c7578063e985e9c5146103cf57600080fd5b8063a22cb46514610365578063a5279b5614610378578063b88d4fde1461039857600080fd5b8063770efa1a116100d3578063770efa1a1461030e57806386ee212c1461032157806391fb0dd41461033657806395d89b411461035d57600080fd5b80636352211e146102d5578063691c35fc146102e857806370a08231146102fb57600080fd5b80632f745c5911610166578063446d07d711610140578063446d07d714610289578063471830511461029c5780634896672e146102af5780634f6ccce7146102c257600080fd5b80632f745c591461025057806342842e0e1461026357806342966c681461027657600080fd5b806301ffc9a7146101ae57806306fdde03146101d6578063081812fc146101eb578063095ea7b31461021657806318160ddd1461022b57806323b872dd1461023d575b600080fd5b6101c16101bc366004612acd565b61040b565b60405190151581526020015b60405180910390f35b6101de61041c565b6040516101cd9190612dd3565b6101fe6101f9366004612bd9565b6104ae565b6040516001600160a01b0390911681526020016101cd565b610229610224366004612a86565b61053b565b005b6008545b6040519081526020016101cd565b61022961024b366004612997565b610651565b61022f61025e366004612a86565b610683565b610229610271366004612997565b610719565b610229610284366004612bd9565b610734565b610229610297366004612bd9565b6107ae565b600b546101fe906001600160a01b031681565b6102296102bd366004612bf2565b6109e6565b61022f6102d0366004612bd9565b610a91565b6101fe6102e3366004612bd9565b610b24565b61022f6102f6366004612b07565b610b9b565b61022f610309366004612949565b610e6a565b61022961031c366004612bd9565b610ef1565b61032961100f565b6040516101cd9190612ce0565b610349610344366004612bd9565b6112ea565b6040516101cd989796959493929190612e89565b6101de611564565b610229610373366004612a4f565b611573565b61022f610386366004612949565b600e6020526000908152604090205481565b6102296103a63660046129d3565b611638565b61022f600c5481565b6101de6103c2366004612bd9565b611670565b61032961167b565b6101c16103dd366004612964565b6001600160a01b03918216600090815260056020908152604080832093909416825291909152205460ff1690565b600061041682611a14565b92915050565b60606000805461042b90612f6f565b80601f016020809104026020016040519081016040528092919081815260200182805461045790612f6f565b80156104a45780601f10610479576101008083540402835291602001916104a4565b820191906000526020600020905b81548152906001019060200180831161048757829003601f168201915b5050505050905090565b60006104b982611a39565b61051f5760405162461bcd60e51b815260206004820152602c60248201527f4552433732313a20617070726f76656420717565727920666f72206e6f6e657860448201526b34b9ba32b73a103a37b5b2b760a11b60648201526084015b60405180910390fd5b506000908152600460205260409020546001600160a01b031690565b600061054682610b24565b9050806001600160a01b0316836001600160a01b031614156105b45760405162461bcd60e51b815260206004820152602160248201527f4552433732313a20617070726f76616c20746f2063757272656e74206f776e656044820152603960f91b6064820152608401610516565b336001600160a01b03821614806105d057506105d081336103dd565b6106425760405162461bcd60e51b815260206004820152603860248201527f4552433732313a20617070726f76652063616c6c6572206973206e6f74206f7760448201527f6e6572206e6f7220617070726f76656420666f7220616c6c00000000000000006064820152608401610516565b61064c8383611a56565b505050565b61065c335b82611ac4565b6106785760405162461bcd60e51b815260040161051690612e38565b61064c838383611bae565b600061068e83610e6a565b82106106f05760405162461bcd60e51b815260206004820152602b60248201527f455243373231456e756d657261626c653a206f776e657220696e646578206f7560448201526a74206f6620626f756e647360a81b6064820152608401610516565b506001600160a01b03919091166000908152600660209081526040808320938352929052205490565b61064c83838360405180602001604052806000815250611638565b61073d33610656565b6107a25760405162461bcd60e51b815260206004820152603060248201527f4552433732314275726e61626c653a2063616c6c6572206973206e6f74206f7760448201526f1b995c881b9bdc88185c1c1c9bdd995960821b6064820152608401610516565b6107ab81611d59565b50565b6107b781610b24565b6001600160a01b0316336001600160a01b031614156108185760405162461bcd60e51b815260206004820152601d60248201527f616c726561647920746865206f776e6572206f662074686973206461640000006044820152606401610516565b600d818154811061082b5761082b61301b565b9060005260206000209060080201600701546000141561088d5760405162461bcd60e51b815260206004820152601860248201527f7468697320646164206973206e6f7420666f722073616c6500000000000000006044820152606401610516565b30610897826104ae565b6001600160a01b0316146108dc5760405162461bcd60e51b815260206004820152600c60248201526b1b9bdd08185c1c1c9bdd995960a21b6044820152606401610516565b600b546001600160a01b03166323b872dd336108f784610b24565b600d858154811061090a5761090a61301b565b60009182526020909120600760089092020101546040516001600160e01b031960e086901b1681526001600160a01b0393841660048201529290911660248301526044820152606401602060405180830381600087803b15801561096d57600080fd5b505af1158015610981573d6000803e3d6000fd5b505050506040513d601f19601f820116820180604052508101906109a59190612ab0565b506109b96109b282610b24565b3383611bae565b6000600d82815481106109ce576109ce61301b565b90600052602060002090600802016007018190555050565b6109ef82610b24565b6001600160a01b0316336001600160a01b031614610a645760405162461bcd60e51b815260206004820152602c60248201527f6f6e6c792074686520646164206f776e65722063616e2075706461746520746860448201526b652073616c6520707269636560a01b6064820152608401610516565b80600d8381548110610a7857610a7861301b565b9060005260206000209060080201600701819055505050565b6000610a9c60085490565b8210610aff5760405162461bcd60e51b815260206004820152602c60248201527f455243373231456e756d657261626c653a20676c6f62616c20696e646578206f60448201526b7574206f6620626f756e647360a01b6064820152608401610516565b60088281548110610b1257610b1261301b565b90600052602060002001549050919050565b6000818152600260205260408120546001600160a01b0316806104165760405162461bcd60e51b815260206004820152602960248201527f4552433732313a206f776e657220717565727920666f72206e6f6e657869737460448201526832b73a103a37b5b2b760b91b6064820152608401610516565b600b546040516323b872dd60e01b815233600482015230602482015269152d02c7e14af680000060448201526000916001600160a01b0316906323b872dd90606401602060405180830381600087803b158015610bf757600080fd5b505af1158015610c0b573d6000803e3d6000fd5b505050506040513d601f19601f82011682018060405250810190610c2f9190612ab0565b506000600c5490506000604051806101000160405280838152602001898152602001888152602001878152602001868152602001610c6d848b611d62565b8152600060208083018290526040909201819052600d8054600181018255915282517fd7b6990105719101dabeb77144f2a3385c8033acd3af97e9423a695e81ad1eb5600890920291820190815583830151805194955085949193610cf7937fd7b6990105719101dabeb77144f2a3385c8033acd3af97e9423a695e81ad1eb601929101906127c8565b5060408201518051610d139160028401916020909101906127c8565b5060608201518051610d2f9160038401916020909101906127c8565b5060808201518051610d4b9160048401916020909101906127c8565b5060a0820151600582015560c082015160068201805460ff191691151591909117905560e090910151600790910155610d843383611da2565b610d8e8285611dbc565b60005b600d54811015610e4857600d8181548110610dae57610dae61301b565b600091825260209091206006600890920201015460ff16610e36576000610dd482610b24565b9050600d8281548110610de957610de961301b565b906000526020600020906008020160050154600e6000836001600160a01b03166001600160a01b031681526020019081526020016000206000828254610e2f9190612f00565b9091555050505b80610e4081612faa565b915050610d91565b50600c8054906000610e5983612faa565b909155509198975050505050505050565b60006001600160a01b038216610ed55760405162461bcd60e51b815260206004820152602a60248201527f4552433732313a2062616c616e636520717565727920666f7220746865207a65604482015269726f206164647265737360b01b6064820152608401610516565b506001600160a01b031660009081526003602052604090205490565b610efa81610734565b60005b600d54811015610f7d5781600d8281548110610f1b57610f1b61301b565b9060005260206000209060080201600001541415610f6b576001600d8281548110610f4857610f4861301b565b60009182526020909120600890910201600601805460ff19169115159190911790555b80610f7581612faa565b915050610efd565b50600b5460405163a9059cbb60e01b8152336004820152690a968163f0a57b40000060248201526001600160a01b039091169063a9059cbb90604401602060405180830381600087803b158015610fd357600080fd5b505af1158015610fe7573d6000803e3d6000fd5b505050506040513d601f19601f8201168201806040525081019061100b9190612ab0565b5050565b6060600d805480602002602001604051908101604052809291908181526020016000905b828210156112e15783829060005260206000209060080201604051806101000160405290816000820154815260200160018201805461107190612f6f565b80601f016020809104026020016040519081016040528092919081815260200182805461109d90612f6f565b80156110ea5780601f106110bf576101008083540402835291602001916110ea565b820191906000526020600020905b8154815290600101906020018083116110cd57829003601f168201915b5050505050815260200160028201805461110390612f6f565b80601f016020809104026020016040519081016040528092919081815260200182805461112f90612f6f565b801561117c5780601f106111515761010080835404028352916020019161117c565b820191906000526020600020905b81548152906001019060200180831161115f57829003601f168201915b5050505050815260200160038201805461119590612f6f565b80601f01602080910402602001604051908101604052809291908181526020018280546111c190612f6f565b801561120e5780601f106111e35761010080835404028352916020019161120e565b820191906000526020600020905b8154815290600101906020018083116111f157829003601f168201915b5050505050815260200160048201805461122790612f6f565b80601f016020809104026020016040519081016040528092919081815260200182805461125390612f6f565b80156112a05780601f10611275576101008083540402835291602001916112a0565b820191906000526020600020905b81548152906001019060200180831161128357829003601f168201915b50505091835250506005820154602080830191909152600683015460ff16151560408301526007909201546060909101529082526001929092019101611033565b50505050905090565b600d81815481106112fa57600080fd5b6000918252602090912060089091020180546001820180549193509061131f90612f6f565b80601f016020809104026020016040519081016040528092919081815260200182805461134b90612f6f565b80156113985780601f1061136d57610100808354040283529160200191611398565b820191906000526020600020905b81548152906001019060200180831161137b57829003601f168201915b5050505050908060020180546113ad90612f6f565b80601f01602080910402602001604051908101604052809291908181526020018280546113d990612f6f565b80156114265780601f106113fb57610100808354040283529160200191611426565b820191906000526020600020905b81548152906001019060200180831161140957829003601f168201915b50505050509080600301805461143b90612f6f565b80601f016020809104026020016040519081016040528092919081815260200182805461146790612f6f565b80156114b45780601f10611489576101008083540402835291602001916114b4565b820191906000526020600020905b81548152906001019060200180831161149757829003601f168201915b5050505050908060040180546114c990612f6f565b80601f01602080910402602001604051908101604052809291908181526020018280546114f590612f6f565b80156115425780601f1061151757610100808354040283529160200191611542565b820191906000526020600020905b81548152906001019060200180831161152557829003601f168201915b50505050600583015460068401546007909401549293909260ff909116915088565b60606001805461042b90612f6f565b6001600160a01b0382163314156115cc5760405162461bcd60e51b815260206004820152601960248201527f4552433732313a20617070726f766520746f2063616c6c6572000000000000006044820152606401610516565b3360008181526005602090815260408083206001600160a01b03871680855290835292819020805460ff191686151590811790915590519081529192917f17307eab39ab6107e8899845ad3d59bd9653f200f220920489ca2b5937696c31910160405180910390a35050565b6116423383611ac4565b61165e5760405162461bcd60e51b815260040161051690612e38565b61166a84848484611e47565b50505050565b606061041682611e7a565b6060600061168833610e6a565b905060008167ffffffffffffffff8111156116a5576116a5613031565b60405190808252806020026020018201604052801561172057816020015b61170d604051806101000160405280600081526020016060815260200160608152602001606081526020016060815260200160008152602001600015158152602001600081525090565b8152602001906001900390816116c35790505b50905060005b8151811015611a0d57600d61173b3383610683565b8154811061174b5761174b61301b565b9060005260206000209060080201604051806101000160405290816000820154815260200160018201805461177f90612f6f565b80601f01602080910402602001604051908101604052809291908181526020018280546117ab90612f6f565b80156117f85780601f106117cd576101008083540402835291602001916117f8565b820191906000526020600020905b8154815290600101906020018083116117db57829003601f168201915b5050505050815260200160028201805461181190612f6f565b80601f016020809104026020016040519081016040528092919081815260200182805461183d90612f6f565b801561188a5780601f1061185f5761010080835404028352916020019161188a565b820191906000526020600020905b81548152906001019060200180831161186d57829003601f168201915b505050505081526020016003820180546118a390612f6f565b80601f01602080910402602001604051908101604052809291908181526020018280546118cf90612f6f565b801561191c5780601f106118f15761010080835404028352916020019161191c565b820191906000526020600020905b8154815290600101906020018083116118ff57829003601f168201915b5050505050815260200160048201805461193590612f6f565b80601f016020809104026020016040519081016040528092919081815260200182805461196190612f6f565b80156119ae5780601f10611983576101008083540402835291602001916119ae565b820191906000526020600020905b81548152906001019060200180831161199157829003601f168201915b505050918352505060058201546020820152600682015460ff161515604082015260079091015460609091015282518390839081106119ef576119ef61301b565b60200260200101819052508080611a0590612faa565b915050611726565b5092915050565b60006001600160e01b0319821663780e9d6360e01b1480610416575061041682611fe9565b6000908152600260205260409020546001600160a01b0316151590565b600081815260046020526040902080546001600160a01b0319166001600160a01b0384169081179091558190611a8b82610b24565b6001600160a01b03167f8c5be1e5ebec7d5bd14f71427d1e84f3dd0314c0f7b2291e5b200ac8c7c3b92560405160405180910390a45050565b6000611acf82611a39565b611b305760405162461bcd60e51b815260206004820152602c60248201527f4552433732313a206f70657261746f7220717565727920666f72206e6f6e657860448201526b34b9ba32b73a103a37b5b2b760a11b6064820152608401610516565b6000611b3b83610b24565b9050806001600160a01b0316846001600160a01b03161480611b765750836001600160a01b0316611b6b846104ae565b6001600160a01b0316145b80611ba657506001600160a01b0380821660009081526005602090815260408083209388168352929052205460ff165b949350505050565b826001600160a01b0316611bc182610b24565b6001600160a01b031614611c295760405162461bcd60e51b815260206004820152602960248201527f4552433732313a207472616e73666572206f6620746f6b656e2074686174206960448201526839903737ba1037bbb760b91b6064820152608401610516565b6001600160a01b038216611c8b5760405162461bcd60e51b8152602060048201526024808201527f4552433732313a207472616e7366657220746f20746865207a65726f206164646044820152637265737360e01b6064820152608401610516565b611c96838383612039565b611ca1600082611a56565b6001600160a01b0383166000908152600360205260408120805460019290611cca908490612f2c565b90915550506001600160a01b0382166000908152600360205260408120805460019290611cf8908490612f00565b909155505060008181526002602052604080822080546001600160a01b0319166001600160a01b0386811691821790925591518493918716917fddf252ad1be2c89b69c2b068fc378daa952ba7f163c4a11628f55a4df523b3ef91a4505050565b6107ab81612044565b60008044428585604051602001611d7c9493929190612c6f565b60408051601f1981840301815291905280516020909101209050611ba66103e882612fc5565b61100b828260405180602001604052806000815250612084565b611dc582611a39565b611e285760405162461bcd60e51b815260206004820152602e60248201527f45524337323155524953746f726167653a2055524920736574206f66206e6f6e60448201526d32bc34b9ba32b73a103a37b5b2b760911b6064820152608401610516565b6000828152600a60209081526040909120825161064c928401906127c8565b611e52848484611bae565b611e5e848484846120b7565b61166a5760405162461bcd60e51b815260040161051690612de6565b6060611e8582611a39565b611eeb5760405162461bcd60e51b815260206004820152603160248201527f45524337323155524953746f726167653a2055524920717565727920666f72206044820152703737b732bc34b9ba32b73a103a37b5b2b760791b6064820152608401610516565b6000828152600a602052604081208054611f0490612f6f565b80601f0160208091040260200160405190810160405280929190818152602001828054611f3090612f6f565b8015611f7d5780601f10611f5257610100808354040283529160200191611f7d565b820191906000526020600020905b815481529060010190602001808311611f6057829003601f168201915b505050505090506000611f9b60408051602081019091526000815290565b9050805160001415611fae575092915050565b815115611fe0578082604051602001611fc8929190612c40565b60405160208183030381529060405292505050919050565b611ba6846121c4565b60006001600160e01b031982166380ac58cd60e01b148061201a57506001600160e01b03198216635b5e139f60e01b145b8061041657506301ffc9a760e01b6001600160e01b0319831614610416565b61064c83838361229c565b61204d81612354565b6000818152600a60205260409020805461206690612f6f565b1590506107ab576000818152600a602052604081206107ab9161284c565b61208e83836123fb565b61209b60008484846120b7565b61064c5760405162461bcd60e51b815260040161051690612de6565b60006001600160a01b0384163b156121b957604051630a85bd0160e11b81526001600160a01b0385169063150b7a02906120fb903390899088908890600401612ca3565b602060405180830381600087803b15801561211557600080fd5b505af1925050508015612145575060408051601f3d908101601f1916820190925261214291810190612aea565b60015b61219f573d808015612173576040519150601f19603f3d011682016040523d82523d6000602084013e612178565b606091505b5080516121975760405162461bcd60e51b815260040161051690612de6565b805181602001fd5b6001600160e01b031916630a85bd0160e11b149050611ba6565b506001949350505050565b60606121cf82611a39565b6122335760405162461bcd60e51b815260206004820152602f60248201527f4552433732314d657461646174613a2055524920717565727920666f72206e6f60448201526e3732bc34b9ba32b73a103a37b5b2b760891b6064820152608401610516565b600061224a60408051602081019091526000815290565b9050600081511161226a5760405180602001604052806000815250612295565b806122748461253a565b604051602001612285929190612c40565b6040516020818303038152906040525b9392505050565b6001600160a01b0383166122f7576122f281600880546000838152600960205260408120829055600182018355919091527ff3f7a9fe364faab93b216da50a3214154f22a0a2b415b23a84c8169e8b636ee30155565b61231a565b816001600160a01b0316836001600160a01b03161461231a5761231a8382612638565b6001600160a01b0382166123315761064c816126d5565b826001600160a01b0316826001600160a01b03161461064c5761064c8282612784565b600061235f82610b24565b905061236d81600084612039565b612378600083611a56565b6001600160a01b03811660009081526003602052604081208054600192906123a1908490612f2c565b909155505060008281526002602052604080822080546001600160a01b0319169055518391906001600160a01b038416907fddf252ad1be2c89b69c2b068fc378daa952ba7f163c4a11628f55a4df523b3ef908390a45050565b6001600160a01b0382166124515760405162461bcd60e51b815260206004820181905260248201527f4552433732313a206d696e7420746f20746865207a65726f20616464726573736044820152606401610516565b61245a81611a39565b156124a75760405162461bcd60e51b815260206004820152601c60248201527f4552433732313a20746f6b656e20616c7265616479206d696e746564000000006044820152606401610516565b6124b360008383612039565b6001600160a01b03821660009081526003602052604081208054600192906124dc908490612f00565b909155505060008181526002602052604080822080546001600160a01b0319166001600160a01b03861690811790915590518392907fddf252ad1be2c89b69c2b068fc378daa952ba7f163c4a11628f55a4df523b3ef908290a45050565b60608161255e5750506040805180820190915260018152600360fc1b602082015290565b8160005b8115612588578061257281612faa565b91506125819050600a83612f18565b9150612562565b60008167ffffffffffffffff8111156125a3576125a3613031565b6040519080825280601f01601f1916602001820160405280156125cd576020820181803683370190505b5090505b8415611ba6576125e2600183612f2c565b91506125ef600a86612fc5565b6125fa906030612f00565b60f81b81838151811061260f5761260f61301b565b60200101906001600160f81b031916908160001a905350612631600a86612f18565b94506125d1565b6000600161264584610e6a565b61264f9190612f2c565b6000838152600760205260409020549091508082146126a2576001600160a01b03841660009081526006602090815260408083208584528252808320548484528184208190558352600790915290208190555b5060009182526007602090815260408084208490556001600160a01b039094168352600681528383209183525290812055565b6008546000906126e790600190612f2c565b6000838152600960205260408120546008805493945090928490811061270f5761270f61301b565b9060005260206000200154905080600883815481106127305761273061301b565b600091825260208083209091019290925582815260099091526040808220849055858252812055600880548061276857612768613005565b6001900381819060005260206000200160009055905550505050565b600061278f83610e6a565b6001600160a01b039093166000908152600660209081526040808320868452825280832085905593825260079052919091209190915550565b8280546127d490612f6f565b90600052602060002090601f0160209004810192826127f6576000855561283c565b82601f1061280f57805160ff191683800117855561283c565b8280016001018555821561283c579182015b8281111561283c578251825591602001919060010190612821565b50612848929150612882565b5090565b50805461285890612f6f565b6000825580601f10612868575050565b601f0160209004906000526020600020908101906107ab91905b5b808211156128485760008155600101612883565b600067ffffffffffffffff808411156128b2576128b2613031565b604051601f8501601f19908116603f011681019082821181831017156128da576128da613031565b816040528093508581528686860111156128f357600080fd5b858560208301376000602087830101525050509392505050565b80356001600160a01b038116811461292457600080fd5b919050565b600082601f83011261293a57600080fd5b61229583833560208501612897565b60006020828403121561295b57600080fd5b6122958261290d565b6000806040838503121561297757600080fd5b6129808361290d565b915061298e6020840161290d565b90509250929050565b6000806000606084860312156129ac57600080fd5b6129b58461290d565b92506129c36020850161290d565b9150604084013590509250925092565b600080600080608085870312156129e957600080fd5b6129f28561290d565b9350612a006020860161290d565b925060408501359150606085013567ffffffffffffffff811115612a2357600080fd5b8501601f81018713612a3457600080fd5b612a4387823560208401612897565b91505092959194509250565b60008060408385031215612a6257600080fd5b612a6b8361290d565b91506020830135612a7b81613047565b809150509250929050565b60008060408385031215612a9957600080fd5b612aa28361290d565b946020939093013593505050565b600060208284031215612ac257600080fd5b815161229581613047565b600060208284031215612adf57600080fd5b813561229581613055565b600060208284031215612afc57600080fd5b815161229581613055565b600080600080600060a08688031215612b1f57600080fd5b853567ffffffffffffffff80821115612b3757600080fd5b612b4389838a01612929565b96506020880135915080821115612b5957600080fd5b612b6589838a01612929565b95506040880135915080821115612b7b57600080fd5b612b8789838a01612929565b94506060880135915080821115612b9d57600080fd5b612ba989838a01612929565b93506080880135915080821115612bbf57600080fd5b50612bcc88828901612929565b9150509295509295909350565b600060208284031215612beb57600080fd5b5035919050565b60008060408385031215612c0557600080fd5b50508035926020909101359150565b60008151808452612c2c816020860160208601612f43565b601f01601f19169290920160200192915050565b60008351612c52818460208801612f43565b835190830190612c66818360208801612f43565b01949350505050565b84815283602082015282604082015260008251612c93816060850160208701612f43565b9190910160600195945050505050565b6001600160a01b0385811682528416602082015260408101839052608060608201819052600090612cd690830184612c14565b9695505050505050565b60006020808301818452808551808352604092508286019150828160051b87010184880160005b83811015612dc557603f1989840301855281516101008151855288820151818a870152612d3682870182612c14565b9150508782015185820389870152612d4e8282612c14565b91505060608083015186830382880152612d688382612c14565b9250505060808083015186830382880152612d838382612c14565b9250505060a080830151818701525060c080830151612da58288018215159052565b505060e09182015194909101939093529386019390860190600101612d07565b509098975050505050505050565b6020815260006122956020830184612c14565b60208082526032908201527f4552433732313a207472616e7366657220746f206e6f6e20455243373231526560408201527131b2b4bb32b91034b6b83632b6b2b73a32b960711b606082015260800190565b60208082526031908201527f4552433732313a207472616e736665722063616c6c6572206973206e6f74206f6040820152701ddb995c881b9bdc88185c1c1c9bdd9959607a1b606082015260800190565b60006101008a8352806020840152612ea38184018b612c14565b90508281036040840152612eb7818a612c14565b90508281036060840152612ecb8189612c14565b90508281036080840152612edf8188612c14565b60a0840196909652505091151560c083015260e09091015295945050505050565b60008219821115612f1357612f13612fd9565b500190565b600082612f2757612f27612fef565b500490565b600082821015612f3e57612f3e612fd9565b500390565b60005b83811015612f5e578181015183820152602001612f46565b8381111561166a5750506000910152565b600181811c90821680612f8357607f821691505b60208210811415612fa457634e487b7160e01b600052602260045260246000fd5b50919050565b6000600019821415612fbe57612fbe612fd9565b5060010190565b600082612fd457612fd4612fef565b500690565b634e487b7160e01b600052601160045260246000fd5b634e487b7160e01b600052601260045260246000fd5b634e487b7160e01b600052603160045260246000fd5b634e487b7160e01b600052603260045260246000fd5b634e487b7160e01b600052604160045260246000fd5b80151581146107ab57600080fd5b6001600160e01b0319811681146107ab57600080fdfea2646970667358221220d91bf08c32810d9dc6ebd1a2d5e0c00a99506b20dd39a8057f5ea1efe8080e1964736f6c63430008050033",
  "immutableReferences": {},
  "source": "pragma solidity ^0.8.5;\n\nimport \"@openzeppelin/contracts/token/ERC721/ERC721.sol\";\nimport \"@openzeppelin/contracts/token/ERC721/extensions/ERC721Burnable.sol\";\nimport \"@openzeppelin/contracts/token/ERC721/extensions/ERC721Enumerable.sol\";\nimport \"@openzeppelin/contracts/token/ERC721/extensions/ERC721URIStorage.sol\";\nimport \"./QuissceQoin.sol\";\n\ncontract QuissceDads is\n    ERC721,\n    ERC721Burnable,\n    ERC721Enumerable,\n    ERC721URIStorage\n{\n    QuissceQoin public quissceQoin;\n    uint256 public dadCounter;\n    struct Dad {\n        uint256 id;\n        string firstName;\n        string lastName;\n        string favoriteFood;\n        string hobbies;\n        uint256 dadScore;\n        bool isBurned;\n        uint256 salePrice;\n    }\n\n    Dad[] public dadDataArray;\n    mapping(address => uint256) public claimableDadDollars;\n\n    constructor(QuissceQoin _quissceQoin) ERC721(\"Quissce Dads\", \"QDAD\") {\n        quissceQoin = _quissceQoin;\n        dadCounter = 0;\n    }\n\n    function getDadData() public view returns (Dad[] memory) {\n        return dadDataArray;\n    }\n\n    function getDadScore(uint256 dadId, string memory dadFirstName)\n        private\n        view\n        returns (uint256)\n    {\n        uint256 randomHash = uint256(\n            keccak256(\n                abi.encodePacked(\n                    block.difficulty,\n                    block.timestamp,\n                    dadId,\n                    dadFirstName\n                )\n            )\n        );\n        return randomHash % 1000;\n    }\n\n    function getDadsOwnedByAddress() public view returns (Dad[] memory) {\n        uint256 dadsOwnedByAddress = balanceOf(msg.sender);\n        Dad[] memory dads = new Dad[](dadsOwnedByAddress);\n        for (uint256 i = 0; i < dads.length; i++) {\n            dads[i] = dadDataArray[tokenOfOwnerByIndex(msg.sender, i)];\n        }\n        return dads;\n    }\n\n    function createDad(\n        string memory firstName,\n        string memory lastName,\n        string memory favoriteFood,\n        string memory hobbies,\n        string memory tokenURI\n    ) public returns (uint256) {\n        quissceQoin.transferFrom(msg.sender, address(this), 100_000e18);\n\n        uint256 newDadId = dadCounter;\n        Dad memory newDad = Dad(\n            newDadId,\n            firstName,\n            lastName,\n            favoriteFood,\n            hobbies,\n            getDadScore(newDadId, firstName),\n            false,\n            0\n        );\n        dadDataArray.push(newDad);\n\n        _safeMint(msg.sender, newDadId);\n        _setTokenURI(newDadId, tokenURI);\n\n        for (uint256 i = 0; i < dadDataArray.length; i++) {\n            if (!dadDataArray[i].isBurned) {\n                address tokenOwner = ownerOf(i);\n                claimableDadDollars[tokenOwner] += dadDataArray[i].dadScore;\n            }\n        }\n\n        dadCounter++;\n        return newDadId;\n    }\n\n    function updateSalePrice(uint256 dadId, uint256 amount) public {\n        require(\n            msg.sender == ownerOf(dadId),\n            \"only the dad owner can update the sale price\"\n        );\n        dadDataArray[dadId].salePrice = amount;\n    }\n\n    function buyDadWithQuissceQoin(uint256 dadId) public {\n        require(msg.sender != ownerOf(dadId), \"already the owner of this dad\");\n        require(dadDataArray[dadId].salePrice != 0, \"this dad is not for sale\");\n        require(getApproved(dadId) == address(this), \"not approved\");\n        quissceQoin.transferFrom(\n            msg.sender,\n            ownerOf(dadId),\n            dadDataArray[dadId].salePrice\n        );\n        _transfer(ownerOf(dadId), msg.sender, dadId);\n        dadDataArray[dadId].salePrice = 0;\n    }\n\n    function burnDad(uint256 dadId) public {\n        burn(dadId);\n\n        for (uint256 i = 0; i < dadDataArray.length; i++) {\n            if (dadDataArray[i].id == dadId) {\n                dadDataArray[i].isBurned = true;\n            }\n        }\n\n        quissceQoin.transfer(msg.sender, 50_000e18);\n    }\n\n    function _beforeTokenTransfer(\n        address from,\n        address to,\n        uint256 tokenId\n    ) internal virtual override(ERC721, ERC721Enumerable) {\n        super._beforeTokenTransfer(from, to, tokenId);\n    }\n\n    function supportsInterface(bytes4 interfaceId)\n        public\n        view\n        virtual\n        override(ERC721, ERC721Enumerable)\n        returns (bool)\n    {\n        return super.supportsInterface(interfaceId);\n    }\n\n    function tokenURI(uint256 tokenId)\n        public\n        view\n        virtual\n        override(ERC721, ERC721URIStorage)\n        returns (string memory)\n    {\n        return super.tokenURI(tokenId);\n    }\n\n    function _burn(uint256 tokenId)\n        internal\n        virtual\n        override(ERC721, ERC721URIStorage)\n    {\n        return super._burn(tokenId);\n    }\n}\n",
  "sourcePath": "/Users/alevine/quissce-qoin/src/contracts/QuissceDads.sol",
  "compiler": {
    "name": "solc",
    "version": "0.8.5+commit.a4f2e591.Emscripten.clang"
  },
  "schemaVersion": "3.4.3",
  "updatedAt": "2021-09-12T10:59:27.098Z",
  "networkType": "ethereum",
  "devdoc": {
    "kind": "dev",
    "methods": {
      "approve(address,uint256)": {
        "details": "See {IERC721-approve}."
      },
      "balanceOf(address)": {
        "details": "See {IERC721-balanceOf}."
      },
      "burn(uint256)": {
        "details": "Burns `tokenId`. See {ERC721-_burn}. Requirements: - The caller must own `tokenId` or be an approved operator."
      },
      "getApproved(uint256)": {
        "details": "See {IERC721-getApproved}."
      },
      "isApprovedForAll(address,address)": {
        "details": "See {IERC721-isApprovedForAll}."
      },
      "name()": {
        "details": "See {IERC721Metadata-name}."
      },
      "ownerOf(uint256)": {
        "details": "See {IERC721-ownerOf}."
      },
      "safeTransferFrom(address,address,uint256)": {
        "details": "See {IERC721-safeTransferFrom}."
      },
      "safeTransferFrom(address,address,uint256,bytes)": {
        "details": "See {IERC721-safeTransferFrom}."
      },
      "setApprovalForAll(address,bool)": {
        "details": "See {IERC721-setApprovalForAll}."
      },
      "symbol()": {
        "details": "See {IERC721Metadata-symbol}."
      },
      "tokenByIndex(uint256)": {
        "details": "See {IERC721Enumerable-tokenByIndex}."
      },
      "tokenOfOwnerByIndex(address,uint256)": {
        "details": "See {IERC721Enumerable-tokenOfOwnerByIndex}."
      },
      "totalSupply()": {
        "details": "See {IERC721Enumerable-totalSupply}."
      },
      "transferFrom(address,address,uint256)": {
        "details": "See {IERC721-transferFrom}."
      }
    },
    "version": 1
  },
  "userdoc": {
    "kind": "user",
    "methods": {},
    "version": 1
  }
}