{
  "contractName": "QuissceDadDollars",
  "abi": [
    {
      "inputs": [
        {
          "internalType": "contract QuissceDads",
          "name": "_quissceDads",
          "type": "address"
        }
      ],
      "stateMutability": "nonpayable",
      "type": "constructor"
    },
    {
      "anonymous": false,
      "inputs": [
        {
          "indexed": true,
          "internalType": "address",
          "name": "owner",
          "type": "address"
        },
        {
          "indexed": true,
          "internalType": "address",
          "name": "spender",
          "type": "address"
        },
        {
          "indexed": false,
          "internalType": "uint256",
          "name": "value",
          "type": "uint256"
        }
      ],
      "name": "Approval",
      "type": "event"
    },
    {
      "anonymous": false,
      "inputs": [
        {
          "indexed": true,
          "internalType": "address",
          "name": "from",
          "type": "address"
        },
        {
          "indexed": true,
          "internalType": "address",
          "name": "to",
          "type": "address"
        },
        {
          "indexed": false,
          "internalType": "uint256",
          "name": "value",
          "type": "uint256"
        }
      ],
      "name": "Transfer",
      "type": "event"
    },
    {
      "inputs": [],
      "name": "admin",
      "outputs": [
        {
          "internalType": "address",
          "name": "",
          "type": "address"
        }
      ],
      "stateMutability": "view",
      "type": "function",
      "constant": true
    },
    {
      "inputs": [
        {
          "internalType": "address",
          "name": "owner",
          "type": "address"
        },
        {
          "internalType": "address",
          "name": "spender",
          "type": "address"
        }
      ],
      "name": "allowance",
      "outputs": [
        {
          "internalType": "uint256",
          "name": "",
          "type": "uint256"
        }
      ],
      "stateMutability": "view",
      "type": "function",
      "constant": true
    },
    {
      "inputs": [
        {
          "internalType": "address",
          "name": "spender",
          "type": "address"
        },
        {
          "internalType": "uint256",
          "name": "amount",
          "type": "uint256"
        }
      ],
      "name": "approve",
      "outputs": [
        {
          "internalType": "bool",
          "name": "",
          "type": "bool"
        }
      ],
      "stateMutability": "nonpayable",
      "type": "function"
    },
    {
      "inputs": [
        {
          "internalType": "address",
          "name": "account",
          "type": "address"
        }
      ],
      "name": "balanceOf",
      "outputs": [
        {
          "internalType": "uint256",
          "name": "",
          "type": "uint256"
        }
      ],
      "stateMutability": "view",
      "type": "function",
      "constant": true
    },
    {
      "inputs": [
        {
          "internalType": "address",
          "name": "",
          "type": "address"
        }
      ],
      "name": "claimedDadDollars",
      "outputs": [
        {
          "internalType": "uint256",
          "name": "",
          "type": "uint256"
        }
      ],
      "stateMutability": "view",
      "type": "function",
      "constant": true
    },
    {
      "inputs": [],
      "name": "decimals",
      "outputs": [
        {
          "internalType": "uint8",
          "name": "",
          "type": "uint8"
        }
      ],
      "stateMutability": "view",
      "type": "function",
      "constant": true
    },
    {
      "inputs": [
        {
          "internalType": "address",
          "name": "spender",
          "type": "address"
        },
        {
          "internalType": "uint256",
          "name": "subtractedValue",
          "type": "uint256"
        }
      ],
      "name": "decreaseAllowance",
      "outputs": [
        {
          "internalType": "bool",
          "name": "",
          "type": "bool"
        }
      ],
      "stateMutability": "nonpayable",
      "type": "function"
    },
    {
      "inputs": [
        {
          "internalType": "address",
          "name": "spender",
          "type": "address"
        },
        {
          "internalType": "uint256",
          "name": "addedValue",
          "type": "uint256"
        }
      ],
      "name": "increaseAllowance",
      "outputs": [
        {
          "internalType": "bool",
          "name": "",
          "type": "bool"
        }
      ],
      "stateMutability": "nonpayable",
      "type": "function"
    },
    {
      "inputs": [],
      "name": "name",
      "outputs": [
        {
          "internalType": "string",
          "name": "",
          "type": "string"
        }
      ],
      "stateMutability": "view",
      "type": "function",
      "constant": true
    },
    {
      "inputs": [],
      "name": "symbol",
      "outputs": [
        {
          "internalType": "string",
          "name": "",
          "type": "string"
        }
      ],
      "stateMutability": "view",
      "type": "function",
      "constant": true
    },
    {
      "inputs": [],
      "name": "totalSupply",
      "outputs": [
        {
          "internalType": "uint256",
          "name": "",
          "type": "uint256"
        }
      ],
      "stateMutability": "view",
      "type": "function",
      "constant": true
    },
    {
      "inputs": [
        {
          "internalType": "address",
          "name": "recipient",
          "type": "address"
        },
        {
          "internalType": "uint256",
          "name": "amount",
          "type": "uint256"
        }
      ],
      "name": "transfer",
      "outputs": [
        {
          "internalType": "bool",
          "name": "",
          "type": "bool"
        }
      ],
      "stateMutability": "nonpayable",
      "type": "function"
    },
    {
      "inputs": [
        {
          "internalType": "address",
          "name": "sender",
          "type": "address"
        },
        {
          "internalType": "address",
          "name": "recipient",
          "type": "address"
        },
        {
          "internalType": "uint256",
          "name": "amount",
          "type": "uint256"
        }
      ],
      "name": "transferFrom",
      "outputs": [
        {
          "internalType": "bool",
          "name": "",
          "type": "bool"
        }
      ],
      "stateMutability": "nonpayable",
      "type": "function"
    },
    {
      "inputs": [],
      "name": "claimDadDollars",
      "outputs": [],
      "stateMutability": "nonpayable",
      "type": "function"
    },
    {
      "inputs": [
        {
          "internalType": "uint256",
          "name": "amount",
          "type": "uint256"
        }
      ],
      "name": "burn",
      "outputs": [],
      "stateMutability": "nonpayable",
      "type": "function"
    }
  ],
  "bytecode": "0x60806040523480156200001157600080fd5b5060405162001ff538038062001ff5833981810160405281019062000037919062000227565b6040518060400160405280601381526020017f517569737363652044616420446f6c6c617273000000000000000000000000008152506040518060400160405280600581526020017f5144444f4c0000000000000000000000000000000000000000000000000000008152508160039080519060200190620000bb92919062000160565b508060049080519060200190620000d492919062000160565b50505033600560006101000a81548173ffffffffffffffffffffffffffffffffffffffff021916908373ffffffffffffffffffffffffffffffffffffffff16021790555080600660006101000a81548173ffffffffffffffffffffffffffffffffffffffff021916908373ffffffffffffffffffffffffffffffffffffffff1602179055505062000325565b8280546200016e90620002a1565b90600052602060002090601f016020900481019282620001925760008555620001de565b82601f10620001ad57805160ff1916838001178555620001de565b82800160010185558215620001de579182015b82811115620001dd578251825591602001919060010190620001c0565b5b509050620001ed9190620001f1565b5090565b5b808211156200020c576000816000905550600101620001f2565b5090565b60008151905062000221816200030b565b92915050565b60006020828403121562000240576200023f62000306565b5b6000620002508482850162000210565b91505092915050565b6000620002668262000281565b9050919050565b60006200027a8262000259565b9050919050565b600073ffffffffffffffffffffffffffffffffffffffff82169050919050565b60006002820490506001821680620002ba57607f821691505b60208210811415620002d157620002d0620002d7565b5b50919050565b7f4e487b7100000000000000000000000000000000000000000000000000000000600052602260045260246000fd5b600080fd5b62000316816200026d565b81146200032257600080fd5b50565b611cc080620003356000396000f3fe608060405234801561001057600080fd5b50600436106100f55760003560e01c806342966c6811610097578063a457c2d711610066578063a457c2d714610288578063a9059cbb146102b8578063dd62ed3e146102e8578063f851a44014610318576100f5565b806342966c681461021457806370a082311461023057806395d89b41146102605780639903455f1461027e576100f5565b806323b872dd116100d357806323b872dd146101665780633087940f14610196578063313ce567146101c657806339509351146101e4576100f5565b806306fdde03146100fa578063095ea7b31461011857806318160ddd14610148575b600080fd5b610102610336565b60405161010f919061155d565b60405180910390f35b610132600480360381019061012d9190611297565b6103c8565b60405161013f9190611542565b60405180910390f35b6101506103e6565b60405161015d91906116df565b60405180910390f35b610180600480360381019061017b9190611244565b6103f0565b60405161018d9190611542565b60405180910390f35b6101b060048036038101906101ab91906111d7565b6104e8565b6040516101bd91906116df565b60405180910390f35b6101ce610500565b6040516101db91906116fa565b60405180910390f35b6101fe60048036038101906101f99190611297565b610509565b60405161020b9190611542565b60405180910390f35b61022e600480360381019061022991906112d7565b6105b5565b005b61024a600480360381019061024591906111d7565b6105c2565b60405161025791906116df565b60405180910390f35b61026861060a565b604051610275919061155d565b60405180910390f35b61028661069c565b005b6102a2600480360381019061029d9190611297565b61084d565b6040516102af9190611542565b60405180910390f35b6102d260048036038101906102cd9190611297565b610938565b6040516102df9190611542565b60405180910390f35b61030260048036038101906102fd9190611204565b610956565b60405161030f91906116df565b60405180910390f35b6103206109dd565b60405161032d9190611527565b60405180910390f35b6060600380546103459061189d565b80601f01602080910402602001604051908101604052809291908181526020018280546103719061189d565b80156103be5780601f10610393576101008083540402835291602001916103be565b820191906000526020600020905b8154815290600101906020018083116103a157829003601f168201915b5050505050905090565b60006103dc6103d5610a03565b8484610a0b565b6001905092915050565b6000600254905090565b60006103fd848484610bd6565b6000600160008673ffffffffffffffffffffffffffffffffffffffff1673ffffffffffffffffffffffffffffffffffffffff1681526020019081526020016000206000610448610a03565b73ffffffffffffffffffffffffffffffffffffffff1673ffffffffffffffffffffffffffffffffffffffff168152602001908152602001600020549050828110156104c8576040517f08c379a00000000000000000000000000000000000000000000000000000000081526004016104bf906115ff565b60405180910390fd5b6104dc856104d4610a03565b858403610a0b565b60019150509392505050565b60076020528060005260406000206000915090505481565b60006012905090565b60006105ab610516610a03565b848460016000610524610a03565b73ffffffffffffffffffffffffffffffffffffffff1673ffffffffffffffffffffffffffffffffffffffff16815260200190815260200160002060008873ffffffffffffffffffffffffffffffffffffffff1673ffffffffffffffffffffffffffffffffffffffff168152602001908152602001600020546105a69190611731565b610a0b565b6001905092915050565b6105bf3382610e57565b50565b60008060008373ffffffffffffffffffffffffffffffffffffffff1673ffffffffffffffffffffffffffffffffffffffff168152602001908152602001600020549050919050565b6060600480546106199061189d565b80601f01602080910402602001604051908101604052809291908181526020018280546106459061189d565b80156106925780601f1061066757610100808354040283529160200191610692565b820191906000526020600020905b81548152906001019060200180831161067557829003601f168201915b5050505050905090565b6000600660009054906101000a900473ffffffffffffffffffffffffffffffffffffffff1673ffffffffffffffffffffffffffffffffffffffff1663a5279b56336040518263ffffffff1660e01b81526004016106f99190611527565b60206040518083038186803b15801561071157600080fd5b505afa158015610725573d6000803e3d6000fd5b505050506040513d601f19601f820116820180604052508101906107499190611304565b90506000600760003373ffffffffffffffffffffffffffffffffffffffff1673ffffffffffffffffffffffffffffffffffffffff1681526020019081526020016000205490506000818361079d91906117e1565b116107dd576040517f08c379a00000000000000000000000000000000000000000000000000000000081526004016107d49061167f565b60405180910390fd5b61080533670de0b6b3a764000083856107f691906117e1565b6108009190611787565b61102e565b81600760003373ffffffffffffffffffffffffffffffffffffffff1673ffffffffffffffffffffffffffffffffffffffff168152602001908152602001600020819055505050565b6000806001600061085c610a03565b73ffffffffffffffffffffffffffffffffffffffff1673ffffffffffffffffffffffffffffffffffffffff16815260200190815260200160002060008573ffffffffffffffffffffffffffffffffffffffff1673ffffffffffffffffffffffffffffffffffffffff16815260200190815260200160002054905082811015610919576040517f08c379a00000000000000000000000000000000000000000000000000000000081526004016109109061169f565b60405180910390fd5b61092d610924610a03565b85858403610a0b565b600191505092915050565b600061094c610945610a03565b8484610bd6565b6001905092915050565b6000600160008473ffffffffffffffffffffffffffffffffffffffff1673ffffffffffffffffffffffffffffffffffffffff16815260200190815260200160002060008373ffffffffffffffffffffffffffffffffffffffff1673ffffffffffffffffffffffffffffffffffffffff16815260200190815260200160002054905092915050565b600560009054906101000a900473ffffffffffffffffffffffffffffffffffffffff1681565b600033905090565b600073ffffffffffffffffffffffffffffffffffffffff168373ffffffffffffffffffffffffffffffffffffffff161415610a7b576040517f08c379a0000000000000000000000000000000000000000000000000000000008152600401610a729061165f565b60405180910390fd5b600073ffffffffffffffffffffffffffffffffffffffff168273ffffffffffffffffffffffffffffffffffffffff161415610aeb576040517f08c379a0000000000000000000000000000000000000000000000000000000008152600401610ae2906115bf565b60405180910390fd5b80600160008573ffffffffffffffffffffffffffffffffffffffff1673ffffffffffffffffffffffffffffffffffffffff16815260200190815260200160002060008473ffffffffffffffffffffffffffffffffffffffff1673ffffffffffffffffffffffffffffffffffffffff168152602001908152602001600020819055508173ffffffffffffffffffffffffffffffffffffffff168373ffffffffffffffffffffffffffffffffffffffff167f8c5be1e5ebec7d5bd14f71427d1e84f3dd0314c0f7b2291e5b200ac8c7c3b92583604051610bc991906116df565b60405180910390a3505050565b600073ffffffffffffffffffffffffffffffffffffffff168373ffffffffffffffffffffffffffffffffffffffff161415610c46576040517f08c379a0000000000000000000000000000000000000000000000000000000008152600401610c3d9061163f565b60405180910390fd5b600073ffffffffffffffffffffffffffffffffffffffff168273ffffffffffffffffffffffffffffffffffffffff161415610cb6576040517f08c379a0000000000000000000000000000000000000000000000000000000008152600401610cad9061157f565b60405180910390fd5b610cc183838361118e565b60008060008573ffffffffffffffffffffffffffffffffffffffff1673ffffffffffffffffffffffffffffffffffffffff16815260200190815260200160002054905081811015610d47576040517f08c379a0000000000000000000000000000000000000000000000000000000008152600401610d3e906115df565b60405180910390fd5b8181036000808673ffffffffffffffffffffffffffffffffffffffff1673ffffffffffffffffffffffffffffffffffffffff16815260200190815260200160002081905550816000808573ffffffffffffffffffffffffffffffffffffffff1673ffffffffffffffffffffffffffffffffffffffff1681526020019081526020016000206000828254610dda9190611731565b925050819055508273ffffffffffffffffffffffffffffffffffffffff168473ffffffffffffffffffffffffffffffffffffffff167fddf252ad1be2c89b69c2b068fc378daa952ba7f163c4a11628f55a4df523b3ef84604051610e3e91906116df565b60405180910390a3610e51848484611193565b50505050565b600073ffffffffffffffffffffffffffffffffffffffff168273ffffffffffffffffffffffffffffffffffffffff161415610ec7576040517f08c379a0000000000000000000000000000000000000000000000000000000008152600401610ebe9061161f565b60405180910390fd5b610ed38260008361118e565b60008060008473ffffffffffffffffffffffffffffffffffffffff1673ffffffffffffffffffffffffffffffffffffffff16815260200190815260200160002054905081811015610f59576040517f08c379a0000000000000000000000000000000000000000000000000000000008152600401610f509061159f565b60405180910390fd5b8181036000808573ffffffffffffffffffffffffffffffffffffffff1673ffffffffffffffffffffffffffffffffffffffff168152602001908152602001600020819055508160026000828254610fb091906117e1565b92505081905550600073ffffffffffffffffffffffffffffffffffffffff168373ffffffffffffffffffffffffffffffffffffffff167fddf252ad1be2c89b69c2b068fc378daa952ba7f163c4a11628f55a4df523b3ef8460405161101591906116df565b60405180910390a361102983600084611193565b505050565b600073ffffffffffffffffffffffffffffffffffffffff168273ffffffffffffffffffffffffffffffffffffffff16141561109e576040517f08c379a0000000000000000000000000000000000000000000000000000000008152600401611095906116bf565b60405180910390fd5b6110aa6000838361118e565b80600260008282546110bc9190611731565b92505081905550806000808473ffffffffffffffffffffffffffffffffffffffff1673ffffffffffffffffffffffffffffffffffffffff16815260200190815260200160002060008282546111119190611731565b925050819055508173ffffffffffffffffffffffffffffffffffffffff16600073ffffffffffffffffffffffffffffffffffffffff167fddf252ad1be2c89b69c2b068fc378daa952ba7f163c4a11628f55a4df523b3ef8360405161117691906116df565b60405180910390a361118a60008383611193565b5050565b505050565b505050565b6000813590506111a781611c5c565b92915050565b6000813590506111bc81611c73565b92915050565b6000815190506111d181611c73565b92915050565b6000602082840312156111ed576111ec61192d565b5b60006111fb84828501611198565b91505092915050565b6000806040838503121561121b5761121a61192d565b5b600061122985828601611198565b925050602061123a85828601611198565b9150509250929050565b60008060006060848603121561125d5761125c61192d565b5b600061126b86828701611198565b935050602061127c86828701611198565b925050604061128d868287016111ad565b9150509250925092565b600080604083850312156112ae576112ad61192d565b5b60006112bc85828601611198565b92505060206112cd858286016111ad565b9150509250929050565b6000602082840312156112ed576112ec61192d565b5b60006112fb848285016111ad565b91505092915050565b60006020828403121561131a5761131961192d565b5b6000611328848285016111c2565b91505092915050565b61133a81611815565b82525050565b61134981611827565b82525050565b600061135a82611715565b6113648185611720565b935061137481856020860161186a565b61137d81611932565b840191505092915050565b6000611395602383611720565b91506113a082611943565b604082019050919050565b60006113b8602283611720565b91506113c382611992565b604082019050919050565b60006113db602283611720565b91506113e6826119e1565b604082019050919050565b60006113fe602683611720565b915061140982611a30565b604082019050919050565b6000611421602883611720565b915061142c82611a7f565b604082019050919050565b6000611444602183611720565b915061144f82611ace565b604082019050919050565b6000611467602583611720565b915061147282611b1d565b604082019050919050565b600061148a602483611720565b915061149582611b6c565b604082019050919050565b60006114ad601883611720565b91506114b882611bbb565b602082019050919050565b60006114d0602583611720565b91506114db82611be4565b604082019050919050565b60006114f3601f83611720565b91506114fe82611c33565b602082019050919050565b61151281611853565b82525050565b6115218161185d565b82525050565b600060208201905061153c6000830184611331565b92915050565b60006020820190506115576000830184611340565b92915050565b60006020820190508181036000830152611577818461134f565b905092915050565b6000602082019050818103600083015261159881611388565b9050919050565b600060208201905081810360008301526115b8816113ab565b9050919050565b600060208201905081810360008301526115d8816113ce565b9050919050565b600060208201905081810360008301526115f8816113f1565b9050919050565b6000602082019050818103600083015261161881611414565b9050919050565b6000602082019050818103600083015261163881611437565b9050919050565b600060208201905081810360008301526116588161145a565b9050919050565b600060208201905081810360008301526116788161147d565b9050919050565b60006020820190508181036000830152611698816114a0565b9050919050565b600060208201905081810360008301526116b8816114c3565b9050919050565b600060208201905081810360008301526116d8816114e6565b9050919050565b60006020820190506116f46000830184611509565b92915050565b600060208201905061170f6000830184611518565b92915050565b600081519050919050565b600082825260208201905092915050565b600061173c82611853565b915061174783611853565b9250827fffffffffffffffffffffffffffffffffffffffffffffffffffffffffffffffff0382111561177c5761177b6118cf565b5b828201905092915050565b600061179282611853565b915061179d83611853565b9250817fffffffffffffffffffffffffffffffffffffffffffffffffffffffffffffffff04831182151516156117d6576117d56118cf565b5b828202905092915050565b60006117ec82611853565b91506117f783611853565b92508282101561180a576118096118cf565b5b828203905092915050565b600061182082611833565b9050919050565b60008115159050919050565b600073ffffffffffffffffffffffffffffffffffffffff82169050919050565b6000819050919050565b600060ff82169050919050565b60005b8381101561188857808201518184015260208101905061186d565b83811115611897576000848401525b50505050565b600060028204905060018216806118b557607f821691505b602082108114156118c9576118c86118fe565b5b50919050565b7f4e487b7100000000000000000000000000000000000000000000000000000000600052601160045260246000fd5b7f4e487b7100000000000000000000000000000000000000000000000000000000600052602260045260246000fd5b600080fd5b6000601f19601f8301169050919050565b7f45524332303a207472616e7366657220746f20746865207a65726f206164647260008201527f6573730000000000000000000000000000000000000000000000000000000000602082015250565b7f45524332303a206275726e20616d6f756e7420657863656564732062616c616e60008201527f6365000000000000000000000000000000000000000000000000000000000000602082015250565b7f45524332303a20617070726f766520746f20746865207a65726f20616464726560008201527f7373000000000000000000000000000000000000000000000000000000000000602082015250565b7f45524332303a207472616e7366657220616d6f756e742065786365656473206260008201527f616c616e63650000000000000000000000000000000000000000000000000000602082015250565b7f45524332303a207472616e7366657220616d6f756e742065786365656473206160008201527f6c6c6f77616e6365000000000000000000000000000000000000000000000000602082015250565b7f45524332303a206275726e2066726f6d20746865207a65726f2061646472657360008201527f7300000000000000000000000000000000000000000000000000000000000000602082015250565b7f45524332303a207472616e736665722066726f6d20746865207a65726f20616460008201527f6472657373000000000000000000000000000000000000000000000000000000602082015250565b7f45524332303a20617070726f76652066726f6d20746865207a65726f2061646460008201527f7265737300000000000000000000000000000000000000000000000000000000602082015250565b7f6e6f20636c61696d61626c652064616420646f6c6c6172730000000000000000600082015250565b7f45524332303a2064656372656173656420616c6c6f77616e63652062656c6f7760008201527f207a65726f000000000000000000000000000000000000000000000000000000602082015250565b7f45524332303a206d696e7420746f20746865207a65726f206164647265737300600082015250565b611c6581611815565b8114611c7057600080fd5b50565b611c7c81611853565b8114611c8757600080fd5b5056fea2646970667358221220d4fad3bd4f7e51db54612f7579d654139c750d5a9989975a8af83fd6500f56da64736f6c63430008050033",
  "immutableReferences": {},
  "source": "pragma solidity ^0.8.5;\n\nimport \"@openzeppelin/contracts/token/ERC20/ERC20.sol\";\nimport \"./QuissceDads.sol\";\n\ncontract QuissceDadDollars is ERC20 {\n    address public admin;\n    QuissceDads quissceDads;\n\n    mapping(address => uint256) public claimedDadDollars;\n\n    constructor(QuissceDads _quissceDads)\n        ERC20(\"Quissce Dad Dollars\", \"QDDOL\")\n    {\n        admin = msg.sender;\n        quissceDads = _quissceDads;\n    }\n\n    function claimDadDollars() external {\n        uint256 claimableAmount = quissceDads.claimableDadDollars(msg.sender);\n        uint256 claimedAmount = claimedDadDollars[msg.sender];\n\n        require(\n            claimableAmount - claimedAmount > 0,\n            \"no claimable dad dollars\"\n        );\n        _mint(msg.sender, (claimableAmount - claimedAmount) * 10**18);\n        claimedDadDollars[msg.sender] = claimableAmount;\n    }\n\n    function burn(uint256 amount) external {\n        _burn(msg.sender, amount);\n    }\n}\n",
  "sourcePath": "/Users/alevine/quissce-qoin/src/contracts/QuissceDadDollars.sol",
  "compiler": {
    "name": "solc",
    "version": "0.8.5+commit.a4f2e591.Emscripten.clang"
  },
  "schemaVersion": "3.4.3",
  "updatedAt": "2021-08-30T14:15:06.098Z",
  "networkType": "ethereum",
  "devdoc": {
    "kind": "dev",
    "methods": {
      "allowance(address,address)": {
        "details": "See {IERC20-allowance}."
      },
      "approve(address,uint256)": {
        "details": "See {IERC20-approve}. Requirements: - `spender` cannot be the zero address."
      },
      "balanceOf(address)": {
        "details": "See {IERC20-balanceOf}."
      },
      "decimals()": {
        "details": "Returns the number of decimals used to get its user representation. For example, if `decimals` equals `2`, a balance of `505` tokens should be displayed to a user as `5.05` (`505 / 10 ** 2`). Tokens usually opt for a value of 18, imitating the relationship between Ether and Wei. This is the value {ERC20} uses, unless this function is overridden; NOTE: This information is only used for _display_ purposes: it in no way affects any of the arithmetic of the contract, including {IERC20-balanceOf} and {IERC20-transfer}."
      },
      "decreaseAllowance(address,uint256)": {
        "details": "Atomically decreases the allowance granted to `spender` by the caller. This is an alternative to {approve} that can be used as a mitigation for problems described in {IERC20-approve}. Emits an {Approval} event indicating the updated allowance. Requirements: - `spender` cannot be the zero address. - `spender` must have allowance for the caller of at least `subtractedValue`."
      },
      "increaseAllowance(address,uint256)": {
        "details": "Atomically increases the allowance granted to `spender` by the caller. This is an alternative to {approve} that can be used as a mitigation for problems described in {IERC20-approve}. Emits an {Approval} event indicating the updated allowance. Requirements: - `spender` cannot be the zero address."
      },
      "name()": {
        "details": "Returns the name of the token."
      },
      "symbol()": {
        "details": "Returns the symbol of the token, usually a shorter version of the name."
      },
      "totalSupply()": {
        "details": "See {IERC20-totalSupply}."
      },
      "transfer(address,uint256)": {
        "details": "See {IERC20-transfer}. Requirements: - `recipient` cannot be the zero address. - the caller must have a balance of at least `amount`."
      },
      "transferFrom(address,address,uint256)": {
        "details": "See {IERC20-transferFrom}. Emits an {Approval} event indicating the updated allowance. This is not required by the EIP. See the note at the beginning of {ERC20}. Requirements: - `sender` and `recipient` cannot be the zero address. - `sender` must have a balance of at least `amount`. - the caller must have allowance for ``sender``'s tokens of at least `amount`."
      }
    },
    "version": 1
  },
  "userdoc": {
    "kind": "user",
    "methods": {},
    "version": 1
  }
}