{
  "contractName": "QuissceDads",
  "abi": [
    {
      "inputs": [
        {
          "internalType": "contract QuissceQoin",
          "name": "_quissceQoin",
          "type": "address"
        }
      ],
      "stateMutability": "nonpayable",
      "type": "constructor"
    },
    {
      "anonymous": false,
      "inputs": [
        {
          "indexed": true,
          "internalType": "address",
          "name": "owner",
          "type": "address"
        },
        {
          "indexed": true,
          "internalType": "address",
          "name": "approved",
          "type": "address"
        },
        {
          "indexed": true,
          "internalType": "uint256",
          "name": "tokenId",
          "type": "uint256"
        }
      ],
      "name": "Approval",
      "type": "event"
    },
    {
      "anonymous": false,
      "inputs": [
        {
          "indexed": true,
          "internalType": "address",
          "name": "owner",
          "type": "address"
        },
        {
          "indexed": true,
          "internalType": "address",
          "name": "operator",
          "type": "address"
        },
        {
          "indexed": false,
          "internalType": "bool",
          "name": "approved",
          "type": "bool"
        }
      ],
      "name": "ApprovalForAll",
      "type": "event"
    },
    {
      "anonymous": false,
      "inputs": [
        {
          "indexed": true,
          "internalType": "address",
          "name": "from",
          "type": "address"
        },
        {
          "indexed": true,
          "internalType": "address",
          "name": "to",
          "type": "address"
        },
        {
          "indexed": true,
          "internalType": "uint256",
          "name": "tokenId",
          "type": "uint256"
        }
      ],
      "name": "Transfer",
      "type": "event"
    },
    {
      "inputs": [
        {
          "internalType": "address",
          "name": "to",
          "type": "address"
        },
        {
          "internalType": "uint256",
          "name": "tokenId",
          "type": "uint256"
        }
      ],
      "name": "approve",
      "outputs": [],
      "stateMutability": "nonpayable",
      "type": "function"
    },
    {
      "inputs": [
        {
          "internalType": "address",
          "name": "owner",
          "type": "address"
        }
      ],
      "name": "balanceOf",
      "outputs": [
        {
          "internalType": "uint256",
          "name": "",
          "type": "uint256"
        }
      ],
      "stateMutability": "view",
      "type": "function",
      "constant": true
    },
    {
      "inputs": [
        {
          "internalType": "uint256",
          "name": "tokenId",
          "type": "uint256"
        }
      ],
      "name": "burn",
      "outputs": [],
      "stateMutability": "nonpayable",
      "type": "function"
    },
    {
      "inputs": [
        {
          "internalType": "address",
          "name": "",
          "type": "address"
        }
      ],
      "name": "claimableDadDollars",
      "outputs": [
        {
          "internalType": "uint256",
          "name": "",
          "type": "uint256"
        }
      ],
      "stateMutability": "view",
      "type": "function",
      "constant": true
    },
    {
      "inputs": [],
      "name": "dadCounter",
      "outputs": [
        {
          "internalType": "uint256",
          "name": "",
          "type": "uint256"
        }
      ],
      "stateMutability": "view",
      "type": "function",
      "constant": true
    },
    {
      "inputs": [
        {
          "internalType": "uint256",
          "name": "",
          "type": "uint256"
        }
      ],
      "name": "dadDataArray",
      "outputs": [
        {
          "internalType": "uint256",
          "name": "id",
          "type": "uint256"
        },
        {
          "internalType": "string",
          "name": "firstName",
          "type": "string"
        },
        {
          "internalType": "string",
          "name": "lastName",
          "type": "string"
        },
        {
          "internalType": "string",
          "name": "favoriteFood",
          "type": "string"
        },
        {
          "internalType": "string",
          "name": "hobbies",
          "type": "string"
        },
        {
          "internalType": "uint256",
          "name": "dadScore",
          "type": "uint256"
        },
        {
          "internalType": "bool",
          "name": "isBurned",
          "type": "bool"
        },
        {
          "internalType": "uint256",
          "name": "salePrice",
          "type": "uint256"
        }
      ],
      "stateMutability": "view",
      "type": "function",
      "constant": true
    },
    {
      "inputs": [
        {
          "internalType": "uint256",
          "name": "tokenId",
          "type": "uint256"
        }
      ],
      "name": "getApproved",
      "outputs": [
        {
          "internalType": "address",
          "name": "",
          "type": "address"
        }
      ],
      "stateMutability": "view",
      "type": "function",
      "constant": true
    },
    {
      "inputs": [
        {
          "internalType": "address",
          "name": "owner",
          "type": "address"
        },
        {
          "internalType": "address",
          "name": "operator",
          "type": "address"
        }
      ],
      "name": "isApprovedForAll",
      "outputs": [
        {
          "internalType": "bool",
          "name": "",
          "type": "bool"
        }
      ],
      "stateMutability": "view",
      "type": "function",
      "constant": true
    },
    {
      "inputs": [],
      "name": "name",
      "outputs": [
        {
          "internalType": "string",
          "name": "",
          "type": "string"
        }
      ],
      "stateMutability": "view",
      "type": "function",
      "constant": true
    },
    {
      "inputs": [
        {
          "internalType": "uint256",
          "name": "tokenId",
          "type": "uint256"
        }
      ],
      "name": "ownerOf",
      "outputs": [
        {
          "internalType": "address",
          "name": "",
          "type": "address"
        }
      ],
      "stateMutability": "view",
      "type": "function",
      "constant": true
    },
    {
      "inputs": [],
      "name": "quissceQoin",
      "outputs": [
        {
          "internalType": "contract QuissceQoin",
          "name": "",
          "type": "address"
        }
      ],
      "stateMutability": "view",
      "type": "function",
      "constant": true
    },
    {
      "inputs": [
        {
          "internalType": "address",
          "name": "from",
          "type": "address"
        },
        {
          "internalType": "address",
          "name": "to",
          "type": "address"
        },
        {
          "internalType": "uint256",
          "name": "tokenId",
          "type": "uint256"
        }
      ],
      "name": "safeTransferFrom",
      "outputs": [],
      "stateMutability": "nonpayable",
      "type": "function"
    },
    {
      "inputs": [
        {
          "internalType": "address",
          "name": "from",
          "type": "address"
        },
        {
          "internalType": "address",
          "name": "to",
          "type": "address"
        },
        {
          "internalType": "uint256",
          "name": "tokenId",
          "type": "uint256"
        },
        {
          "internalType": "bytes",
          "name": "_data",
          "type": "bytes"
        }
      ],
      "name": "safeTransferFrom",
      "outputs": [],
      "stateMutability": "nonpayable",
      "type": "function"
    },
    {
      "inputs": [
        {
          "internalType": "address",
          "name": "operator",
          "type": "address"
        },
        {
          "internalType": "bool",
          "name": "approved",
          "type": "bool"
        }
      ],
      "name": "setApprovalForAll",
      "outputs": [],
      "stateMutability": "nonpayable",
      "type": "function"
    },
    {
      "inputs": [],
      "name": "symbol",
      "outputs": [
        {
          "internalType": "string",
          "name": "",
          "type": "string"
        }
      ],
      "stateMutability": "view",
      "type": "function",
      "constant": true
    },
    {
      "inputs": [
        {
          "internalType": "uint256",
          "name": "index",
          "type": "uint256"
        }
      ],
      "name": "tokenByIndex",
      "outputs": [
        {
          "internalType": "uint256",
          "name": "",
          "type": "uint256"
        }
      ],
      "stateMutability": "view",
      "type": "function",
      "constant": true
    },
    {
      "inputs": [
        {
          "internalType": "address",
          "name": "owner",
          "type": "address"
        },
        {
          "internalType": "uint256",
          "name": "index",
          "type": "uint256"
        }
      ],
      "name": "tokenOfOwnerByIndex",
      "outputs": [
        {
          "internalType": "uint256",
          "name": "",
          "type": "uint256"
        }
      ],
      "stateMutability": "view",
      "type": "function",
      "constant": true
    },
    {
      "inputs": [
        {
          "internalType": "uint256",
          "name": "tokenId",
          "type": "uint256"
        }
      ],
      "name": "tokenURI",
      "outputs": [
        {
          "internalType": "string",
          "name": "",
          "type": "string"
        }
      ],
      "stateMutability": "view",
      "type": "function",
      "constant": true
    },
    {
      "inputs": [],
      "name": "totalSupply",
      "outputs": [
        {
          "internalType": "uint256",
          "name": "",
          "type": "uint256"
        }
      ],
      "stateMutability": "view",
      "type": "function",
      "constant": true
    },
    {
      "inputs": [
        {
          "internalType": "address",
          "name": "from",
          "type": "address"
        },
        {
          "internalType": "address",
          "name": "to",
          "type": "address"
        },
        {
          "internalType": "uint256",
          "name": "tokenId",
          "type": "uint256"
        }
      ],
      "name": "transferFrom",
      "outputs": [],
      "stateMutability": "nonpayable",
      "type": "function"
    },
    {
      "inputs": [],
      "name": "getDadData",
      "outputs": [
        {
          "components": [
            {
              "internalType": "uint256",
              "name": "id",
              "type": "uint256"
            },
            {
              "internalType": "string",
              "name": "firstName",
              "type": "string"
            },
            {
              "internalType": "string",
              "name": "lastName",
              "type": "string"
            },
            {
              "internalType": "string",
              "name": "favoriteFood",
              "type": "string"
            },
            {
              "internalType": "string",
              "name": "hobbies",
              "type": "string"
            },
            {
              "internalType": "uint256",
              "name": "dadScore",
              "type": "uint256"
            },
            {
              "internalType": "bool",
              "name": "isBurned",
              "type": "bool"
            },
            {
              "internalType": "uint256",
              "name": "salePrice",
              "type": "uint256"
            }
          ],
          "internalType": "struct QuissceDads.Dad[]",
          "name": "",
          "type": "tuple[]"
        }
      ],
      "stateMutability": "view",
      "type": "function",
      "constant": true
    },
    {
      "inputs": [],
      "name": "getDadsOwnedByAddress",
      "outputs": [
        {
          "components": [
            {
              "internalType": "uint256",
              "name": "id",
              "type": "uint256"
            },
            {
              "internalType": "string",
              "name": "firstName",
              "type": "string"
            },
            {
              "internalType": "string",
              "name": "lastName",
              "type": "string"
            },
            {
              "internalType": "string",
              "name": "favoriteFood",
              "type": "string"
            },
            {
              "internalType": "string",
              "name": "hobbies",
              "type": "string"
            },
            {
              "internalType": "uint256",
              "name": "dadScore",
              "type": "uint256"
            },
            {
              "internalType": "bool",
              "name": "isBurned",
              "type": "bool"
            },
            {
              "internalType": "uint256",
              "name": "salePrice",
              "type": "uint256"
            }
          ],
          "internalType": "struct QuissceDads.Dad[]",
          "name": "",
          "type": "tuple[]"
        }
      ],
      "stateMutability": "view",
      "type": "function",
      "constant": true
    },
    {
      "inputs": [
        {
          "internalType": "string",
          "name": "firstName",
          "type": "string"
        },
        {
          "internalType": "string",
          "name": "lastName",
          "type": "string"
        },
        {
          "internalType": "string",
          "name": "favoriteFood",
          "type": "string"
        },
        {
          "internalType": "string",
          "name": "hobbies",
          "type": "string"
        }
      ],
      "name": "createDad",
      "outputs": [
        {
          "internalType": "uint256",
          "name": "",
          "type": "uint256"
        }
      ],
      "stateMutability": "nonpayable",
      "type": "function"
    },
    {
      "inputs": [
        {
          "internalType": "uint256",
          "name": "dadId",
          "type": "uint256"
        },
        {
          "internalType": "uint256",
          "name": "amount",
          "type": "uint256"
        }
      ],
      "name": "updateSalePrice",
      "outputs": [],
      "stateMutability": "nonpayable",
      "type": "function"
    },
    {
      "inputs": [
        {
          "internalType": "uint256",
          "name": "dadId",
          "type": "uint256"
        }
      ],
      "name": "buyDadWithQuissceQoin",
      "outputs": [],
      "stateMutability": "nonpayable",
      "type": "function"
    },
    {
      "inputs": [
        {
          "internalType": "uint256",
          "name": "dadId",
          "type": "uint256"
        }
      ],
      "name": "burnDad",
      "outputs": [],
      "stateMutability": "nonpayable",
      "type": "function"
    },
    {
      "inputs": [
        {
          "internalType": "bytes4",
          "name": "interfaceId",
          "type": "bytes4"
        }
      ],
      "name": "supportsInterface",
      "outputs": [
        {
          "internalType": "bool",
          "name": "",
          "type": "bool"
        }
      ],
      "stateMutability": "view",
      "type": "function",
      "constant": true
    }
  ],
  "bytecode": "0x60806040523480156200001157600080fd5b5060405162004f7738038062004f778339818101604052810190620000379190620001ee565b6040518060400160405280600c81526020017f51756973736365204461647300000000000000000000000000000000000000008152506040518060400160405280600481526020017f51444144000000000000000000000000000000000000000000000000000000008152508160009080519060200190620000bb92919062000127565b508060019080519060200190620000d492919062000127565b50505080600a60006101000a81548173ffffffffffffffffffffffffffffffffffffffff021916908373ffffffffffffffffffffffffffffffffffffffff1602179055506000600b8190555050620002ec565b828054620001359062000268565b90600052602060002090601f016020900481019282620001595760008555620001a5565b82601f106200017457805160ff1916838001178555620001a5565b82800160010185558215620001a5579182015b82811115620001a457825182559160200191906001019062000187565b5b509050620001b49190620001b8565b5090565b5b80821115620001d3576000816000905550600101620001b9565b5090565b600081519050620001e881620002d2565b92915050565b600060208284031215620002075762000206620002cd565b5b60006200021784828501620001d7565b91505092915050565b60006200022d8262000248565b9050919050565b6000620002418262000220565b9050919050565b600073ffffffffffffffffffffffffffffffffffffffff82169050919050565b600060028204905060018216806200028157607f821691505b602082108114156200029857620002976200029e565b5b50919050565b7f4e487b7100000000000000000000000000000000000000000000000000000000600052602260045260246000fd5b600080fd5b620002dd8162000234565b8114620002e957600080fd5b50565b614c7b80620002fc6000396000f3fe608060405234801561001057600080fd5b50600436106101a95760003560e01c80634f6ccce7116100f9578063a22cb46511610097578063bee8a23a11610071578063bee8a23a146104f7578063c87b56dd14610515578063e356380b14610545578063e985e9c514610563576101a9565b8063a22cb4651461048f578063a5279b56146104ab578063b88d4fde146104db576101a9565b8063770efa1a116100d3578063770efa1a1461040057806386ee212c1461041c57806391fb0dd41461043a57806395d89b4114610471576101a9565b80634f6ccce7146103705780636352211e146103a057806370a08231146103d0576101a9565b806323b872dd1161016657806342966c681161014057806342966c68146102fe578063446d07d71461031a57806347183051146103365780634896672e14610354576101a9565b806323b872dd146102965780632f745c59146102b257806342842e0e146102e2576101a9565b806301ffc9a7146101ae57806306fdde03146101de578063081812fc146101fc578063095ea7b31461022c57806318160ddd146102485780632156e55414610266575b600080fd5b6101c860048036038101906101c391906134ee565b610593565b6040516101d59190613db2565b60405180910390f35b6101e66105a5565b6040516101f39190613de8565b60405180910390f35b6102166004803603810190610211919061361f565b610637565b6040516102239190613c92565b60405180910390f35b61024660048036038101906102419190613481565b6106bc565b005b6102506107d4565b60405161025d91906140aa565b60405180910390f35b610280600480360381019061027b9190613548565b6107e1565b60405161028d91906140aa565b60405180910390f35b6102b060048036038101906102ab919061336b565b610aad565b005b6102cc60048036038101906102c79190613481565b610b0d565b6040516102d991906140aa565b60405180910390f35b6102fc60048036038101906102f7919061336b565b610bb2565b005b6103186004803603810190610313919061361f565b610bd2565b005b610334600480360381019061032f919061361f565b610c2e565b005b61033e610ea4565b60405161034b9190613dcd565b60405180910390f35b61036e6004803603810190610369919061364c565b610eca565b005b61038a6004803603810190610385919061361f565b610f6e565b60405161039791906140aa565b60405180910390f35b6103ba60048036038101906103b5919061361f565b610fdf565b6040516103c79190613c92565b60405180910390f35b6103ea60048036038101906103e591906132fe565b611091565b6040516103f791906140aa565b60405180910390f35b61041a6004803603810190610415919061361f565b611149565b005b61042461129f565b6040516104319190613d90565b60405180910390f35b610454600480360381019061044f919061361f565b611580565b6040516104689897969594939291906140c5565b60405180910390f35b610479611805565b6040516104869190613de8565b60405180910390f35b6104a960048036038101906104a49190613441565b611897565b005b6104c560048036038101906104c091906132fe565b611a18565b6040516104d291906140aa565b60405180910390f35b6104f560048036038101906104f091906133be565b611a30565b005b6104ff611a92565b60405161050c91906140aa565b60405180910390f35b61052f600480360381019061052a919061361f565b611a98565b60405161053c9190613de8565b60405180910390f35b61054d611b3f565b60405161055a9190613d90565b60405180910390f35b61057d6004803603810190610578919061332b565b611ea4565b60405161058a9190613db2565b60405180910390f35b600061059e82611f38565b9050919050565b6060600080546105b49061442c565b80601f01602080910402602001604051908101604052809291908181526020018280546105e09061442c565b801561062d5780601f106106025761010080835404028352916020019161062d565b820191906000526020600020905b81548152906001019060200180831161061057829003601f168201915b5050505050905090565b600061064282611fb2565b610681576040517f08c379a000000000000000000000000000000000000000000000000000000000815260040161067890613faa565b60405180910390fd5b6004600083815260200190815260200160002060009054906101000a900473ffffffffffffffffffffffffffffffffffffffff169050919050565b60006106c782610fdf565b90508073ffffffffffffffffffffffffffffffffffffffff168373ffffffffffffffffffffffffffffffffffffffff161415610738576040517f08c379a000000000000000000000000000000000000000000000000000000000815260040161072f9061400a565b60405180910390fd5b8073ffffffffffffffffffffffffffffffffffffffff1661075761201e565b73ffffffffffffffffffffffffffffffffffffffff16148061078657506107858161078061201e565b611ea4565b5b6107c5576040517f08c379a00000000000000000000000000000000000000000000000000000000081526004016107bc90613f0a565b60405180910390fd5b6107cf8383612026565b505050565b6000600880549050905090565b6000600a60009054906101000a900473ffffffffffffffffffffffffffffffffffffffff1673ffffffffffffffffffffffffffffffffffffffff166323b872dd333069152d02c7e14af68000006040518463ffffffff1660e01b815260040161084c93929190613cad565b602060405180830381600087803b15801561086657600080fd5b505af115801561087a573d6000803e3d6000fd5b505050506040513d601f19601f8201168201806040525081019061089e91906134c1565b506000600b54905060006040518061010001604052808381526020018881526020018781526020018681526020018581526020016108dc848a6120df565b815260200160001515815260200160008152509050600c8190806001815401808255809150506001900390600052602060002090600802016000909190919091506000820151816000015560208201518160010190805190602001906109439291906130b6565b5060408201518160020190805190602001906109609291906130b6565b50606082015181600301908051906020019061097d9291906130b6565b50608082015181600401908051906020019061099a9291906130b6565b5060a0820151816005015560c08201518160060160006101000a81548160ff02191690831515021790555060e0820151816007015550506109db338361212b565b60005b600c80549050811015610a875760006109f682610fdf565b9050600c8281548110610a0c57610a0b6145cf565b5b906000526020600020906008020160050154600d60008373ffffffffffffffffffffffffffffffffffffffff1673ffffffffffffffffffffffffffffffffffffffff1681526020019081526020016000206000828254610a6c9190614273565b92505081905550508080610a7f9061448f565b9150506109de565b50600b6000815480929190610a9b9061448f565b91905055508192505050949350505050565b610abe610ab861201e565b82612149565b610afd576040517f08c379a0000000000000000000000000000000000000000000000000000000008152600401610af49061402a565b60405180910390fd5b610b08838383612227565b505050565b6000610b1883611091565b8210610b59576040517f08c379a0000000000000000000000000000000000000000000000000000000008152600401610b5090613e2a565b60405180910390fd5b600660008473ffffffffffffffffffffffffffffffffffffffff1673ffffffffffffffffffffffffffffffffffffffff168152602001908152602001600020600083815260200190815260200160002054905092915050565b610bcd83838360405180602001604052806000815250611a30565b505050565b610be3610bdd61201e565b82612149565b610c22576040517f08c379a0000000000000000000000000000000000000000000000000000000008152600401610c199061408a565b60405180910390fd5b610c2b81612483565b50565b610c3781610fdf565b73ffffffffffffffffffffffffffffffffffffffff163373ffffffffffffffffffffffffffffffffffffffff161415610ca5576040517f08c379a0000000000000000000000000000000000000000000000000000000008152600401610c9c90613f8a565b60405180910390fd5b6000600c8281548110610cbb57610cba6145cf565b5b9060005260206000209060080201600701541415610d0e576040517f08c379a0000000000000000000000000000000000000000000000000000000008152600401610d0590613e8a565b60405180910390fd5b3073ffffffffffffffffffffffffffffffffffffffff16610d2e82610637565b73ffffffffffffffffffffffffffffffffffffffff1614610d84576040517f08c379a0000000000000000000000000000000000000000000000000000000008152600401610d7b9061404a565b60405180910390fd5b600a60009054906101000a900473ffffffffffffffffffffffffffffffffffffffff1673ffffffffffffffffffffffffffffffffffffffff166323b872dd33610dcc84610fdf565b600c8581548110610de057610ddf6145cf565b5b9060005260206000209060080201600701546040518463ffffffff1660e01b8152600401610e1093929190613ce4565b602060405180830381600087803b158015610e2a57600080fd5b505af1158015610e3e573d6000803e3d6000fd5b505050506040513d601f19601f82011682018060405250810190610e6291906134c1565b50610e76610e6f82610fdf565b3383612227565b6000600c8281548110610e8c57610e8b6145cf565b5b90600052602060002090600802016007018190555050565b600a60009054906101000a900473ffffffffffffffffffffffffffffffffffffffff1681565b610ed382610fdf565b73ffffffffffffffffffffffffffffffffffffffff163373ffffffffffffffffffffffffffffffffffffffff1614610f40576040517f08c379a0000000000000000000000000000000000000000000000000000000008152600401610f3790613e0a565b60405180910390fd5b80600c8381548110610f5557610f546145cf565b5b9060005260206000209060080201600701819055505050565b6000610f786107d4565b8210610fb9576040517f08c379a0000000000000000000000000000000000000000000000000000000008152600401610fb09061406a565b60405180910390fd5b60088281548110610fcd57610fcc6145cf565b5b90600052602060002001549050919050565b6000806002600084815260200190815260200160002060009054906101000a900473ffffffffffffffffffffffffffffffffffffffff169050600073ffffffffffffffffffffffffffffffffffffffff168173ffffffffffffffffffffffffffffffffffffffff161415611088576040517f08c379a000000000000000000000000000000000000000000000000000000000815260040161107f90613f4a565b60405180910390fd5b80915050919050565b60008073ffffffffffffffffffffffffffffffffffffffff168273ffffffffffffffffffffffffffffffffffffffff161415611102576040517f08c379a00000000000000000000000000000000000000000000000000000000081526004016110f990613f2a565b60405180910390fd5b600360008373ffffffffffffffffffffffffffffffffffffffff1673ffffffffffffffffffffffffffffffffffffffff168152602001908152602001600020549050919050565b61115281610bd2565b60005b600c805490508110156111e15781600c8281548110611177576111766145cf565b5b90600052602060002090600802016000015414156111ce576001600c82815481106111a5576111a46145cf565b5b906000526020600020906008020160060160006101000a81548160ff0219169083151502179055505b80806111d99061448f565b915050611155565b50600a60009054906101000a900473ffffffffffffffffffffffffffffffffffffffff1673ffffffffffffffffffffffffffffffffffffffff1663a9059cbb33690a968163f0a57b4000006040518363ffffffff1660e01b8152600401611249929190613d67565b602060405180830381600087803b15801561126357600080fd5b505af1158015611277573d6000803e3d6000fd5b505050506040513d601f19601f8201168201806040525081019061129b91906134c1565b5050565b6060600c805480602002602001604051908101604052809291908181526020016000905b82821015611577578382906000526020600020906008020160405180610100016040529081600082015481526020016001820180546113019061442c565b80601f016020809104026020016040519081016040528092919081815260200182805461132d9061442c565b801561137a5780601f1061134f5761010080835404028352916020019161137a565b820191906000526020600020905b81548152906001019060200180831161135d57829003601f168201915b505050505081526020016002820180546113939061442c565b80601f01602080910402602001604051908101604052809291908181526020018280546113bf9061442c565b801561140c5780601f106113e15761010080835404028352916020019161140c565b820191906000526020600020905b8154815290600101906020018083116113ef57829003601f168201915b505050505081526020016003820180546114259061442c565b80601f01602080910402602001604051908101604052809291908181526020018280546114519061442c565b801561149e5780601f106114735761010080835404028352916020019161149e565b820191906000526020600020905b81548152906001019060200180831161148157829003601f168201915b505050505081526020016004820180546114b79061442c565b80601f01602080910402602001604051908101604052809291908181526020018280546114e39061442c565b80156115305780601f1061150557610100808354040283529160200191611530565b820191906000526020600020905b81548152906001019060200180831161151357829003601f168201915b50505050508152602001600582015481526020016006820160009054906101000a900460ff16151515158152602001600782015481525050815260200190600101906112c3565b50505050905090565b600c818154811061159057600080fd5b90600052602060002090600802016000915090508060000154908060010180546115b99061442c565b80601f01602080910402602001604051908101604052809291908181526020018280546115e59061442c565b80156116325780601f1061160757610100808354040283529160200191611632565b820191906000526020600020905b81548152906001019060200180831161161557829003601f168201915b5050505050908060020180546116479061442c565b80601f01602080910402602001604051908101604052809291908181526020018280546116739061442c565b80156116c05780601f10611695576101008083540402835291602001916116c0565b820191906000526020600020905b8154815290600101906020018083116116a357829003601f168201915b5050505050908060030180546116d59061442c565b80601f01602080910402602001604051908101604052809291908181526020018280546117019061442c565b801561174e5780601f106117235761010080835404028352916020019161174e565b820191906000526020600020905b81548152906001019060200180831161173157829003601f168201915b5050505050908060040180546117639061442c565b80601f016020809104026020016040519081016040528092919081815260200182805461178f9061442c565b80156117dc5780601f106117b1576101008083540402835291602001916117dc565b820191906000526020600020905b8154815290600101906020018083116117bf57829003601f168201915b5050505050908060050154908060060160009054906101000a900460ff16908060070154905088565b6060600180546118149061442c565b80601f01602080910402602001604051908101604052809291908181526020018280546118409061442c565b801561188d5780601f106118625761010080835404028352916020019161188d565b820191906000526020600020905b81548152906001019060200180831161187057829003601f168201915b5050505050905090565b61189f61201e565b73ffffffffffffffffffffffffffffffffffffffff168273ffffffffffffffffffffffffffffffffffffffff16141561190d576040517f08c379a000000000000000000000000000000000000000000000000000000000815260040161190490613eca565b60405180910390fd5b806005600061191a61201e565b73ffffffffffffffffffffffffffffffffffffffff1673ffffffffffffffffffffffffffffffffffffffff16815260200190815260200160002060008473ffffffffffffffffffffffffffffffffffffffff1673ffffffffffffffffffffffffffffffffffffffff16815260200190815260200160002060006101000a81548160ff0219169083151502179055508173ffffffffffffffffffffffffffffffffffffffff166119c761201e565b73ffffffffffffffffffffffffffffffffffffffff167f17307eab39ab6107e8899845ad3d59bd9653f200f220920489ca2b5937696c3183604051611a0c9190613db2565b60405180910390a35050565b600d6020528060005260406000206000915090505481565b611a41611a3b61201e565b83612149565b611a80576040517f08c379a0000000000000000000000000000000000000000000000000000000008152600401611a779061402a565b60405180910390fd5b611a8c84848484612594565b50505050565b600b5481565b6060611aa382611fb2565b611ae2576040517f08c379a0000000000000000000000000000000000000000000000000000000008152600401611ad990613fea565b60405180910390fd5b6000611aec6125f0565b90506000815111611b0c5760405180602001604052806000815250611b37565b80611b1684612607565b604051602001611b27929190613c24565b6040516020818303038152906040525b915050919050565b60606000611b4c33611091565b905060008167ffffffffffffffff811115611b6a57611b696145fe565b5b604051908082528060200260200182016040528015611ba357816020015b611b9061313c565b815260200190600190039081611b885790505b50905060005b8151811015611e9b57600c611bbe3383610b0d565b81548110611bcf57611bce6145cf565b5b90600052602060002090600802016040518061010001604052908160008201548152602001600182018054611c039061442c565b80601f0160208091040260200160405190810160405280929190818152602001828054611c2f9061442c565b8015611c7c5780601f10611c5157610100808354040283529160200191611c7c565b820191906000526020600020905b815481529060010190602001808311611c5f57829003601f168201915b50505050508152602001600282018054611c959061442c565b80601f0160208091040260200160405190810160405280929190818152602001828054611cc19061442c565b8015611d0e5780601f10611ce357610100808354040283529160200191611d0e565b820191906000526020600020905b815481529060010190602001808311611cf157829003601f168201915b50505050508152602001600382018054611d279061442c565b80601f0160208091040260200160405190810160405280929190818152602001828054611d539061442c565b8015611da05780601f10611d7557610100808354040283529160200191611da0565b820191906000526020600020905b815481529060010190602001808311611d8357829003601f168201915b50505050508152602001600482018054611db99061442c565b80601f0160208091040260200160405190810160405280929190818152602001828054611de59061442c565b8015611e325780601f10611e0757610100808354040283529160200191611e32565b820191906000526020600020905b815481529060010190602001808311611e1557829003601f168201915b50505050508152602001600582015481526020016006820160009054906101000a900460ff16151515158152602001600782015481525050828281518110611e7d57611e7c6145cf565b5b60200260200101819052508080611e939061448f565b915050611ba9565b50809250505090565b6000600560008473ffffffffffffffffffffffffffffffffffffffff1673ffffffffffffffffffffffffffffffffffffffff16815260200190815260200160002060008373ffffffffffffffffffffffffffffffffffffffff1673ffffffffffffffffffffffffffffffffffffffff16815260200190815260200160002060009054906101000a900460ff16905092915050565b60007f780e9d63000000000000000000000000000000000000000000000000000000007bffffffffffffffffffffffffffffffffffffffffffffffffffffffff1916827bffffffffffffffffffffffffffffffffffffffffffffffffffffffff19161480611fab5750611faa82612768565b5b9050919050565b60008073ffffffffffffffffffffffffffffffffffffffff166002600084815260200190815260200160002060009054906101000a900473ffffffffffffffffffffffffffffffffffffffff1673ffffffffffffffffffffffffffffffffffffffff1614159050919050565b600033905090565b816004600083815260200190815260200160002060006101000a81548173ffffffffffffffffffffffffffffffffffffffff021916908373ffffffffffffffffffffffffffffffffffffffff160217905550808273ffffffffffffffffffffffffffffffffffffffff1661209983610fdf565b73ffffffffffffffffffffffffffffffffffffffff167f8c5be1e5ebec7d5bd14f71427d1e84f3dd0314c0f7b2291e5b200ac8c7c3b92560405160405180910390a45050565b600080444285856040516020016120f99493929190613c48565b6040516020818303038152906040528051906020012060001c90506103e88161212291906144e2565b91505092915050565b61214582826040518060200160405280600081525061284a565b5050565b600061215482611fb2565b612193576040517f08c379a000000000000000000000000000000000000000000000000000000000815260040161218a90613eea565b60405180910390fd5b600061219e83610fdf565b90508073ffffffffffffffffffffffffffffffffffffffff168473ffffffffffffffffffffffffffffffffffffffff16148061220d57508373ffffffffffffffffffffffffffffffffffffffff166121f584610637565b73ffffffffffffffffffffffffffffffffffffffff16145b8061221e575061221d8185611ea4565b5b91505092915050565b8273ffffffffffffffffffffffffffffffffffffffff1661224782610fdf565b73ffffffffffffffffffffffffffffffffffffffff161461229d576040517f08c379a000000000000000000000000000000000000000000000000000000000815260040161229490613fca565b60405180910390fd5b600073ffffffffffffffffffffffffffffffffffffffff168273ffffffffffffffffffffffffffffffffffffffff16141561230d576040517f08c379a000000000000000000000000000000000000000000000000000000000815260040161230490613eaa565b60405180910390fd5b6123188383836128a5565b612323600082612026565b6001600360008573ffffffffffffffffffffffffffffffffffffffff1673ffffffffffffffffffffffffffffffffffffffff168152602001908152602001600020600082825461237391906142fa565b925050819055506001600360008473ffffffffffffffffffffffffffffffffffffffff1673ffffffffffffffffffffffffffffffffffffffff16815260200190815260200160002060008282546123ca9190614273565b92505081905550816002600083815260200190815260200160002060006101000a81548173ffffffffffffffffffffffffffffffffffffffff021916908373ffffffffffffffffffffffffffffffffffffffff160217905550808273ffffffffffffffffffffffffffffffffffffffff168473ffffffffffffffffffffffffffffffffffffffff167fddf252ad1be2c89b69c2b068fc378daa952ba7f163c4a11628f55a4df523b3ef60405160405180910390a4505050565b600061248e82610fdf565b905061249c816000846128a5565b6124a7600083612026565b6001600360008373ffffffffffffffffffffffffffffffffffffffff1673ffffffffffffffffffffffffffffffffffffffff16815260200190815260200160002060008282546124f791906142fa565b925050819055506002600083815260200190815260200160002060006101000a81549073ffffffffffffffffffffffffffffffffffffffff021916905581600073ffffffffffffffffffffffffffffffffffffffff168273ffffffffffffffffffffffffffffffffffffffff167fddf252ad1be2c89b69c2b068fc378daa952ba7f163c4a11628f55a4df523b3ef60405160405180910390a45050565b61259f848484612227565b6125ab848484846128b5565b6125ea576040517f08c379a00000000000000000000000000000000000000000000000000000000081526004016125e190613e4a565b60405180910390fd5b50505050565b606060405180602001604052806000815250905090565b6060600082141561264f576040518060400160405280600181526020017f30000000000000000000000000000000000000000000000000000000000000008152509050612763565b600082905060005b6000821461268157808061266a9061448f565b915050600a8261267a91906142c9565b9150612657565b60008167ffffffffffffffff81111561269d5761269c6145fe565b5b6040519080825280601f01601f1916602001820160405280156126cf5781602001600182028036833780820191505090505b5090505b6000851461275c576001826126e891906142fa565b9150600a856126f791906144e2565b60306127039190614273565b60f81b818381518110612719576127186145cf565b5b60200101907effffffffffffffffffffffffffffffffffffffffffffffffffffffffffffff1916908160001a905350600a8561275591906142c9565b94506126d3565b8093505050505b919050565b60007f80ac58cd000000000000000000000000000000000000000000000000000000007bffffffffffffffffffffffffffffffffffffffffffffffffffffffff1916827bffffffffffffffffffffffffffffffffffffffffffffffffffffffff1916148061283357507f5b5e139f000000000000000000000000000000000000000000000000000000007bffffffffffffffffffffffffffffffffffffffffffffffffffffffff1916827bffffffffffffffffffffffffffffffffffffffffffffffffffffffff1916145b80612843575061284282612a4c565b5b9050919050565b6128548383612ab6565b61286160008484846128b5565b6128a0576040517f08c379a000000000000000000000000000000000000000000000000000000000815260040161289790613e4a565b60405180910390fd5b505050565b6128b0838383612c84565b505050565b60006128d68473ffffffffffffffffffffffffffffffffffffffff16612d98565b15612a3f578373ffffffffffffffffffffffffffffffffffffffff1663150b7a026128ff61201e565b8786866040518563ffffffff1660e01b81526004016129219493929190613d1b565b602060405180830381600087803b15801561293b57600080fd5b505af192505050801561296c57506040513d601f19601f82011682018060405250810190612969919061351b565b60015b6129ef573d806000811461299c576040519150601f19603f3d011682016040523d82523d6000602084013e6129a1565b606091505b506000815114156129e7576040517f08c379a00000000000000000000000000000000000000000000000000000000081526004016129de90613e4a565b60405180910390fd5b805181602001fd5b63150b7a0260e01b7bffffffffffffffffffffffffffffffffffffffffffffffffffffffff1916817bffffffffffffffffffffffffffffffffffffffffffffffffffffffff191614915050612a44565b600190505b949350505050565b60007f01ffc9a7000000000000000000000000000000000000000000000000000000007bffffffffffffffffffffffffffffffffffffffffffffffffffffffff1916827bffffffffffffffffffffffffffffffffffffffffffffffffffffffff1916149050919050565b600073ffffffffffffffffffffffffffffffffffffffff168273ffffffffffffffffffffffffffffffffffffffff161415612b26576040517f08c379a0000000000000000000000000000000000000000000000000000000008152600401612b1d90613f6a565b60405180910390fd5b612b2f81611fb2565b15612b6f576040517f08c379a0000000000000000000000000000000000000000000000000000000008152600401612b6690613e6a565b60405180910390fd5b612b7b600083836128a5565b6001600360008473ffffffffffffffffffffffffffffffffffffffff1673ffffffffffffffffffffffffffffffffffffffff1681526020019081526020016000206000828254612bcb9190614273565b92505081905550816002600083815260200190815260200160002060006101000a81548173ffffffffffffffffffffffffffffffffffffffff021916908373ffffffffffffffffffffffffffffffffffffffff160217905550808273ffffffffffffffffffffffffffffffffffffffff16600073ffffffffffffffffffffffffffffffffffffffff167fddf252ad1be2c89b69c2b068fc378daa952ba7f163c4a11628f55a4df523b3ef60405160405180910390a45050565b612c8f838383612dab565b600073ffffffffffffffffffffffffffffffffffffffff168373ffffffffffffffffffffffffffffffffffffffff161415612cd257612ccd81612db0565b612d11565b8173ffffffffffffffffffffffffffffffffffffffff168373ffffffffffffffffffffffffffffffffffffffff1614612d1057612d0f8382612df9565b5b5b600073ffffffffffffffffffffffffffffffffffffffff168273ffffffffffffffffffffffffffffffffffffffff161415612d5457612d4f81612f66565b612d93565b8273ffffffffffffffffffffffffffffffffffffffff168273ffffffffffffffffffffffffffffffffffffffff1614612d9257612d918282613037565b5b5b505050565b600080823b905060008111915050919050565b505050565b6008805490506009600083815260200190815260200160002081905550600881908060018154018082558091505060019003906000526020600020016000909190919091505550565b60006001612e0684611091565b612e1091906142fa565b9050600060076000848152602001908152602001600020549050818114612ef5576000600660008673ffffffffffffffffffffffffffffffffffffffff1673ffffffffffffffffffffffffffffffffffffffff168152602001908152602001600020600084815260200190815260200160002054905080600660008773ffffffffffffffffffffffffffffffffffffffff1673ffffffffffffffffffffffffffffffffffffffff168152602001908152602001600020600084815260200190815260200160002081905550816007600083815260200190815260200160002081905550505b6007600084815260200190815260200160002060009055600660008573ffffffffffffffffffffffffffffffffffffffff1673ffffffffffffffffffffffffffffffffffffffff16815260200190815260200160002060008381526020019081526020016000206000905550505050565b60006001600880549050612f7a91906142fa565b9050600060096000848152602001908152602001600020549050600060088381548110612faa57612fa96145cf565b5b906000526020600020015490508060088381548110612fcc57612fcb6145cf565b5b90600052602060002001819055508160096000838152602001908152602001600020819055506009600085815260200190815260200160002060009055600880548061301b5761301a6145a0565b5b6001900381819060005260206000200160009055905550505050565b600061304283611091565b905081600660008573ffffffffffffffffffffffffffffffffffffffff1673ffffffffffffffffffffffffffffffffffffffff168152602001908152602001600020600083815260200190815260200160002081905550806007600084815260200190815260200160002081905550505050565b8280546130c29061442c565b90600052602060002090601f0160209004810192826130e4576000855561312b565b82601f106130fd57805160ff191683800117855561312b565b8280016001018555821561312b579182015b8281111561312a57825182559160200191906001019061310f565b5b5090506131389190613183565b5090565b604051806101000160405280600081526020016060815260200160608152602001606081526020016060815260200160008152602001600015158152602001600081525090565b5b8082111561319c576000816000905550600101613184565b5090565b60006131b36131ae84614184565b61415f565b9050828152602081018484840111156131cf576131ce614632565b5b6131da8482856143ea565b509392505050565b60006131f56131f0846141b5565b61415f565b90508281526020810184848401111561321157613210614632565b5b61321c8482856143ea565b509392505050565b60008135905061323381614be9565b92915050565b60008135905061324881614c00565b92915050565b60008151905061325d81614c00565b92915050565b60008135905061327281614c17565b92915050565b60008151905061328781614c17565b92915050565b600082601f8301126132a2576132a161462d565b5b81356132b28482602086016131a0565b91505092915050565b600082601f8301126132d0576132cf61462d565b5b81356132e08482602086016131e2565b91505092915050565b6000813590506132f881614c2e565b92915050565b6000602082840312156133145761331361463c565b5b600061332284828501613224565b91505092915050565b600080604083850312156133425761334161463c565b5b600061335085828601613224565b925050602061336185828601613224565b9150509250929050565b6000806000606084860312156133845761338361463c565b5b600061339286828701613224565b93505060206133a386828701613224565b92505060406133b4868287016132e9565b9150509250925092565b600080600080608085870312156133d8576133d761463c565b5b60006133e687828801613224565b94505060206133f787828801613224565b9350506040613408878288016132e9565b925050606085013567ffffffffffffffff81111561342957613428614637565b5b6134358782880161328d565b91505092959194509250565b600080604083850312156134585761345761463c565b5b600061346685828601613224565b925050602061347785828601613239565b9150509250929050565b600080604083850312156134985761349761463c565b5b60006134a685828601613224565b92505060206134b7858286016132e9565b9150509250929050565b6000602082840312156134d7576134d661463c565b5b60006134e58482850161324e565b91505092915050565b6000602082840312156135045761350361463c565b5b600061351284828501613263565b91505092915050565b6000602082840312156135315761353061463c565b5b600061353f84828501613278565b91505092915050565b600080600080608085870312156135625761356161463c565b5b600085013567ffffffffffffffff8111156135805761357f614637565b5b61358c878288016132bb565b945050602085013567ffffffffffffffff8111156135ad576135ac614637565b5b6135b9878288016132bb565b935050604085013567ffffffffffffffff8111156135da576135d9614637565b5b6135e6878288016132bb565b925050606085013567ffffffffffffffff81111561360757613606614637565b5b613613878288016132bb565b91505092959194509250565b6000602082840312156136355761363461463c565b5b6000613643848285016132e9565b91505092915050565b600080604083850312156136635761366261463c565b5b6000613671858286016132e9565b9250506020613682858286016132e9565b9150509250929050565b60006136988383613b2a565b905092915050565b6136a98161432e565b82525050565b60006136ba826141f6565b6136c48185614224565b9350836020820285016136d6856141e6565b8060005b8581101561371257848403895281516136f3858261368c565b94506136fe83614217565b925060208a019950506001810190506136da565b50829750879550505050505092915050565b61372d81614340565b82525050565b61373c81614340565b82525050565b600061374d82614201565b6137578185614235565b93506137678185602086016143f9565b61377081614641565b840191505092915050565b613784816143a2565b82525050565b613793816143c6565b82525050565b6137a2816143d8565b82525050565b60006137b38261420c565b6137bd8185614246565b93506137cd8185602086016143f9565b6137d681614641565b840191505092915050565b60006137ec8261420c565b6137f68185614257565b93506138068185602086016143f9565b61380f81614641565b840191505092915050565b60006138258261420c565b61382f8185614268565b935061383f8185602086016143f9565b80840191505092915050565b6000613858602c83614257565b915061386382614652565b604082019050919050565b600061387b602b83614257565b9150613886826146a1565b604082019050919050565b600061389e603283614257565b91506138a9826146f0565b604082019050919050565b60006138c1601c83614257565b91506138cc8261473f565b602082019050919050565b60006138e4601883614257565b91506138ef82614768565b602082019050919050565b6000613907602483614257565b915061391282614791565b604082019050919050565b600061392a601983614257565b9150613935826147e0565b602082019050919050565b600061394d602c83614257565b915061395882614809565b604082019050919050565b6000613970603883614257565b915061397b82614858565b604082019050919050565b6000613993602a83614257565b915061399e826148a7565b604082019050919050565b60006139b6602983614257565b91506139c1826148f6565b604082019050919050565b60006139d9602083614257565b91506139e482614945565b602082019050919050565b60006139fc601d83614257565b9150613a078261496e565b602082019050919050565b6000613a1f602c83614257565b9150613a2a82614997565b604082019050919050565b6000613a42602983614257565b9150613a4d826149e6565b604082019050919050565b6000613a65602f83614257565b9150613a7082614a35565b604082019050919050565b6000613a88602183614257565b9150613a9382614a84565b604082019050919050565b6000613aab603183614257565b9150613ab682614ad3565b604082019050919050565b6000613ace600c83614257565b9150613ad982614b22565b602082019050919050565b6000613af1602c83614257565b9150613afc82614b4b565b604082019050919050565b6000613b14603083614257565b9150613b1f82614b9a565b604082019050919050565b600061010083016000830151613b436000860182613bef565b5060208301518482036020860152613b5b82826137a8565b91505060408301518482036040860152613b7582826137a8565b91505060608301518482036060860152613b8f82826137a8565b91505060808301518482036080860152613ba982826137a8565b91505060a0830151613bbe60a0860182613bef565b5060c0830151613bd160c0860182613724565b5060e0830151613be460e0860182613bef565b508091505092915050565b613bf881614398565b82525050565b613c0781614398565b82525050565b613c1e613c1982614398565b6144d8565b82525050565b6000613c30828561381a565b9150613c3c828461381a565b91508190509392505050565b6000613c548287613c0d565b602082019150613c648286613c0d565b602082019150613c748285613c0d565b602082019150613c84828461381a565b915081905095945050505050565b6000602082019050613ca760008301846136a0565b92915050565b6000606082019050613cc260008301866136a0565b613ccf60208301856136a0565b613cdc604083018461378a565b949350505050565b6000606082019050613cf960008301866136a0565b613d0660208301856136a0565b613d136040830184613bfe565b949350505050565b6000608082019050613d3060008301876136a0565b613d3d60208301866136a0565b613d4a6040830185613bfe565b8181036060830152613d5c8184613742565b905095945050505050565b6000604082019050613d7c60008301856136a0565b613d896020830184613799565b9392505050565b60006020820190508181036000830152613daa81846136af565b905092915050565b6000602082019050613dc76000830184613733565b92915050565b6000602082019050613de2600083018461377b565b92915050565b60006020820190508181036000830152613e0281846137e1565b905092915050565b60006020820190508181036000830152613e238161384b565b9050919050565b60006020820190508181036000830152613e438161386e565b9050919050565b60006020820190508181036000830152613e6381613891565b9050919050565b60006020820190508181036000830152613e83816138b4565b9050919050565b60006020820190508181036000830152613ea3816138d7565b9050919050565b60006020820190508181036000830152613ec3816138fa565b9050919050565b60006020820190508181036000830152613ee38161391d565b9050919050565b60006020820190508181036000830152613f0381613940565b9050919050565b60006020820190508181036000830152613f2381613963565b9050919050565b60006020820190508181036000830152613f4381613986565b9050919050565b60006020820190508181036000830152613f63816139a9565b9050919050565b60006020820190508181036000830152613f83816139cc565b9050919050565b60006020820190508181036000830152613fa3816139ef565b9050919050565b60006020820190508181036000830152613fc381613a12565b9050919050565b60006020820190508181036000830152613fe381613a35565b9050919050565b6000602082019050818103600083015261400381613a58565b9050919050565b6000602082019050818103600083015261402381613a7b565b9050919050565b6000602082019050818103600083015261404381613a9e565b9050919050565b6000602082019050818103600083015261406381613ac1565b9050919050565b6000602082019050818103600083015261408381613ae4565b9050919050565b600060208201905081810360008301526140a381613b07565b9050919050565b60006020820190506140bf6000830184613bfe565b92915050565b6000610100820190506140db600083018b613bfe565b81810360208301526140ed818a6137e1565b9050818103604083015261410181896137e1565b9050818103606083015261411581886137e1565b9050818103608083015261412981876137e1565b905061413860a0830186613bfe565b61414560c0830185613733565b61415260e0830184613bfe565b9998505050505050505050565b600061416961417a565b9050614175828261445e565b919050565b6000604051905090565b600067ffffffffffffffff82111561419f5761419e6145fe565b5b6141a882614641565b9050602081019050919050565b600067ffffffffffffffff8211156141d0576141cf6145fe565b5b6141d982614641565b9050602081019050919050565b6000819050602082019050919050565b600081519050919050565b600081519050919050565b600081519050919050565b6000602082019050919050565b600082825260208201905092915050565b600082825260208201905092915050565b600082825260208201905092915050565b600082825260208201905092915050565b600081905092915050565b600061427e82614398565b915061428983614398565b9250827fffffffffffffffffffffffffffffffffffffffffffffffffffffffffffffffff038211156142be576142bd614513565b5b828201905092915050565b60006142d482614398565b91506142df83614398565b9250826142ef576142ee614542565b5b828204905092915050565b600061430582614398565b915061431083614398565b92508282101561432357614322614513565b5b828203905092915050565b600061433982614378565b9050919050565b60008115159050919050565b60007fffffffff0000000000000000000000000000000000000000000000000000000082169050919050565b600073ffffffffffffffffffffffffffffffffffffffff82169050919050565b6000819050919050565b60006143ad826143b4565b9050919050565b60006143bf82614378565b9050919050565b60006143d182614398565b9050919050565b60006143e382614398565b9050919050565b82818337600083830152505050565b60005b838110156144175780820151818401526020810190506143fc565b83811115614426576000848401525b50505050565b6000600282049050600182168061444457607f821691505b6020821081141561445857614457614571565b5b50919050565b61446782614641565b810181811067ffffffffffffffff82111715614486576144856145fe565b5b80604052505050565b600061449a82614398565b91507fffffffffffffffffffffffffffffffffffffffffffffffffffffffffffffffff8214156144cd576144cc614513565b5b600182019050919050565b6000819050919050565b60006144ed82614398565b91506144f883614398565b92508261450857614507614542565b5b828206905092915050565b7f4e487b7100000000000000000000000000000000000000000000000000000000600052601160045260246000fd5b7f4e487b7100000000000000000000000000000000000000000000000000000000600052601260045260246000fd5b7f4e487b7100000000000000000000000000000000000000000000000000000000600052602260045260246000fd5b7f4e487b7100000000000000000000000000000000000000000000000000000000600052603160045260246000fd5b7f4e487b7100000000000000000000000000000000000000000000000000000000600052603260045260246000fd5b7f4e487b7100000000000000000000000000000000000000000000000000000000600052604160045260246000fd5b600080fd5b600080fd5b600080fd5b600080fd5b6000601f19601f8301169050919050565b7f6f6e6c792074686520646164206f776e65722063616e2075706461746520746860008201527f652073616c652070726963650000000000000000000000000000000000000000602082015250565b7f455243373231456e756d657261626c653a206f776e657220696e646578206f7560008201527f74206f6620626f756e6473000000000000000000000000000000000000000000602082015250565b7f4552433732313a207472616e7366657220746f206e6f6e20455243373231526560008201527f63656976657220696d706c656d656e7465720000000000000000000000000000602082015250565b7f4552433732313a20746f6b656e20616c7265616479206d696e74656400000000600082015250565b7f7468697320646164206973206e6f7420666f722073616c650000000000000000600082015250565b7f4552433732313a207472616e7366657220746f20746865207a65726f2061646460008201527f7265737300000000000000000000000000000000000000000000000000000000602082015250565b7f4552433732313a20617070726f766520746f2063616c6c657200000000000000600082015250565b7f4552433732313a206f70657261746f7220717565727920666f72206e6f6e657860008201527f697374656e7420746f6b656e0000000000000000000000000000000000000000602082015250565b7f4552433732313a20617070726f76652063616c6c6572206973206e6f74206f7760008201527f6e6572206e6f7220617070726f76656420666f7220616c6c0000000000000000602082015250565b7f4552433732313a2062616c616e636520717565727920666f7220746865207a6560008201527f726f206164647265737300000000000000000000000000000000000000000000602082015250565b7f4552433732313a206f776e657220717565727920666f72206e6f6e657869737460008201527f656e7420746f6b656e0000000000000000000000000000000000000000000000602082015250565b7f4552433732313a206d696e7420746f20746865207a65726f2061646472657373600082015250565b7f616c726561647920746865206f776e6572206f66207468697320646164000000600082015250565b7f4552433732313a20617070726f76656420717565727920666f72206e6f6e657860008201527f697374656e7420746f6b656e0000000000000000000000000000000000000000602082015250565b7f4552433732313a207472616e73666572206f6620746f6b656e2074686174206960008201527f73206e6f74206f776e0000000000000000000000000000000000000000000000602082015250565b7f4552433732314d657461646174613a2055524920717565727920666f72206e6f60008201527f6e6578697374656e7420746f6b656e0000000000000000000000000000000000602082015250565b7f4552433732313a20617070726f76616c20746f2063757272656e74206f776e6560008201527f7200000000000000000000000000000000000000000000000000000000000000602082015250565b7f4552433732313a207472616e736665722063616c6c6572206973206e6f74206f60008201527f776e6572206e6f7220617070726f766564000000000000000000000000000000602082015250565b7f6e6f7420617070726f7665640000000000000000000000000000000000000000600082015250565b7f455243373231456e756d657261626c653a20676c6f62616c20696e646578206f60008201527f7574206f6620626f756e64730000000000000000000000000000000000000000602082015250565b7f4552433732314275726e61626c653a2063616c6c6572206973206e6f74206f7760008201527f6e6572206e6f7220617070726f76656400000000000000000000000000000000602082015250565b614bf28161432e565b8114614bfd57600080fd5b50565b614c0981614340565b8114614c1457600080fd5b50565b614c208161434c565b8114614c2b57600080fd5b50565b614c3781614398565b8114614c4257600080fd5b5056fea2646970667358221220c2a76ea67b783dceed676766299fb0a9831e8404a5e5790545c593c47238694664736f6c63430008050033",
  "immutableReferences": {},
  "source": "pragma solidity ^0.8.5;\n\nimport \"@openzeppelin/contracts/token/ERC721/ERC721.sol\";\nimport \"@openzeppelin/contracts/token/ERC721/extensions/ERC721Burnable.sol\";\nimport \"@openzeppelin/contracts/token/ERC721/extensions/ERC721Enumerable.sol\";\nimport \"./QuissceQoin.sol\";\n\ncontract QuissceDads is ERC721, ERC721Burnable, ERC721Enumerable {\n    QuissceQoin public quissceQoin;\n    uint256 public dadCounter;\n    struct Dad {\n        uint256 id;\n        string firstName;\n        string lastName;\n        string favoriteFood;\n        string hobbies;\n        uint256 dadScore;\n        bool isBurned;\n        uint256 salePrice;\n    }\n\n    Dad[] public dadDataArray;\n    mapping(address => uint256) public claimableDadDollars;\n\n    constructor(QuissceQoin _quissceQoin) ERC721(\"Quissce Dads\", \"QDAD\") {\n        quissceQoin = _quissceQoin;\n        dadCounter = 0;\n    }\n\n    function getDadData() public view returns (Dad[] memory) {\n        return dadDataArray;\n    }\n\n    function getDadScore(uint256 dadId, string memory dadFirstName)\n        private\n        view\n        returns (uint256)\n    {\n        uint256 randomHash = uint256(\n            keccak256(\n                abi.encodePacked(\n                    block.difficulty,\n                    block.timestamp,\n                    dadId,\n                    dadFirstName\n                )\n            )\n        );\n        return randomHash % 1000;\n    }\n\n    function getDadsOwnedByAddress() public view returns (Dad[] memory) {\n        uint256 dadsOwnedByAddress = balanceOf(msg.sender);\n        Dad[] memory dads = new Dad[](dadsOwnedByAddress);\n        for (uint256 i = 0; i < dads.length; i++) {\n            dads[i] = dadDataArray[tokenOfOwnerByIndex(msg.sender, i)];\n        }\n        return dads;\n    }\n\n    function createDad(\n        string memory firstName,\n        string memory lastName,\n        string memory favoriteFood,\n        string memory hobbies\n    ) public returns (uint256) {\n        quissceQoin.transferFrom(msg.sender, address(this), 100_000e18);\n\n        uint256 newDadId = dadCounter;\n        Dad memory newDad = Dad(\n            newDadId,\n            firstName,\n            lastName,\n            favoriteFood,\n            hobbies,\n            getDadScore(newDadId, firstName),\n            false,\n            0\n        );\n        dadDataArray.push(newDad);\n\n        _safeMint(msg.sender, newDadId);\n\n        for (uint256 i = 0; i < dadDataArray.length; i++) {\n            address tokenOwner = ownerOf(i);\n            claimableDadDollars[tokenOwner] += dadDataArray[i].dadScore;\n        }\n\n        dadCounter++;\n        return newDadId;\n    }\n\n    function updateSalePrice(uint256 dadId, uint256 amount) public {\n        require(\n            msg.sender == ownerOf(dadId),\n            \"only the dad owner can update the sale price\"\n        );\n        dadDataArray[dadId].salePrice = amount;\n    }\n\n    function buyDadWithQuissceQoin(uint256 dadId) public {\n        require(msg.sender != ownerOf(dadId), \"already the owner of this dad\");\n        require(dadDataArray[dadId].salePrice != 0, \"this dad is not for sale\");\n        require(getApproved(dadId) == address(this), \"not approved\");\n        quissceQoin.transferFrom(\n            msg.sender,\n            ownerOf(dadId),\n            dadDataArray[dadId].salePrice\n        );\n        _transfer(ownerOf(dadId), msg.sender, dadId);\n        dadDataArray[dadId].salePrice = 0;\n    }\n\n    function burnDad(uint256 dadId) public {\n        burn(dadId);\n\n        for (uint256 i = 0; i < dadDataArray.length; i++) {\n            if (dadDataArray[i].id == dadId) {\n                dadDataArray[i].isBurned = true;\n            }\n        }\n\n        quissceQoin.transfer(msg.sender, 50_000e18);\n    }\n\n    function _beforeTokenTransfer(\n        address from,\n        address to,\n        uint256 tokenId\n    ) internal virtual override(ERC721, ERC721Enumerable) {\n        super._beforeTokenTransfer(from, to, tokenId);\n    }\n\n    function supportsInterface(bytes4 interfaceId)\n        public\n        view\n        virtual\n        override(ERC721, ERC721Enumerable)\n        returns (bool)\n    {\n        return super.supportsInterface(interfaceId);\n    }\n}\n",
  "sourcePath": "/Users/alevine/quissce-qoin/src/contracts/QuissceDads.sol",
  "compiler": {
    "name": "solc",
    "version": "0.8.5+commit.a4f2e591.Emscripten.clang"
  },
  "schemaVersion": "3.4.3",
  "updatedAt": "2021-08-30T14:15:06.074Z",
  "networkType": "ethereum",
  "devdoc": {
    "kind": "dev",
    "methods": {
      "approve(address,uint256)": {
        "details": "See {IERC721-approve}."
      },
      "balanceOf(address)": {
        "details": "See {IERC721-balanceOf}."
      },
      "burn(uint256)": {
        "details": "Burns `tokenId`. See {ERC721-_burn}. Requirements: - The caller must own `tokenId` or be an approved operator."
      },
      "getApproved(uint256)": {
        "details": "See {IERC721-getApproved}."
      },
      "isApprovedForAll(address,address)": {
        "details": "See {IERC721-isApprovedForAll}."
      },
      "name()": {
        "details": "See {IERC721Metadata-name}."
      },
      "ownerOf(uint256)": {
        "details": "See {IERC721-ownerOf}."
      },
      "safeTransferFrom(address,address,uint256)": {
        "details": "See {IERC721-safeTransferFrom}."
      },
      "safeTransferFrom(address,address,uint256,bytes)": {
        "details": "See {IERC721-safeTransferFrom}."
      },
      "setApprovalForAll(address,bool)": {
        "details": "See {IERC721-setApprovalForAll}."
      },
      "symbol()": {
        "details": "See {IERC721Metadata-symbol}."
      },
      "tokenByIndex(uint256)": {
        "details": "See {IERC721Enumerable-tokenByIndex}."
      },
      "tokenOfOwnerByIndex(address,uint256)": {
        "details": "See {IERC721Enumerable-tokenOfOwnerByIndex}."
      },
      "tokenURI(uint256)": {
        "details": "See {IERC721Metadata-tokenURI}."
      },
      "totalSupply()": {
        "details": "See {IERC721Enumerable-totalSupply}."
      },
      "transferFrom(address,address,uint256)": {
        "details": "See {IERC721-transferFrom}."
      }
    },
    "version": 1
  },
  "userdoc": {
    "kind": "user",
    "methods": {},
    "version": 1
  }
}