{
  "contractName": "QuissceDads",
  "abi": [
    {
      "inputs": [
        {
          "internalType": "contract QuissceQoin",
          "name": "_quissceQoin",
          "type": "address"
        }
      ],
      "stateMutability": "nonpayable",
      "type": "constructor"
    },
    {
      "anonymous": false,
      "inputs": [
        {
          "indexed": true,
          "internalType": "address",
          "name": "owner",
          "type": "address"
        },
        {
          "indexed": true,
          "internalType": "address",
          "name": "approved",
          "type": "address"
        },
        {
          "indexed": true,
          "internalType": "uint256",
          "name": "tokenId",
          "type": "uint256"
        }
      ],
      "name": "Approval",
      "type": "event"
    },
    {
      "anonymous": false,
      "inputs": [
        {
          "indexed": true,
          "internalType": "address",
          "name": "owner",
          "type": "address"
        },
        {
          "indexed": true,
          "internalType": "address",
          "name": "operator",
          "type": "address"
        },
        {
          "indexed": false,
          "internalType": "bool",
          "name": "approved",
          "type": "bool"
        }
      ],
      "name": "ApprovalForAll",
      "type": "event"
    },
    {
      "anonymous": false,
      "inputs": [
        {
          "indexed": true,
          "internalType": "address",
          "name": "from",
          "type": "address"
        },
        {
          "indexed": true,
          "internalType": "address",
          "name": "to",
          "type": "address"
        },
        {
          "indexed": true,
          "internalType": "uint256",
          "name": "tokenId",
          "type": "uint256"
        }
      ],
      "name": "Transfer",
      "type": "event"
    },
    {
      "inputs": [
        {
          "internalType": "address",
          "name": "to",
          "type": "address"
        },
        {
          "internalType": "uint256",
          "name": "tokenId",
          "type": "uint256"
        }
      ],
      "name": "approve",
      "outputs": [],
      "stateMutability": "nonpayable",
      "type": "function"
    },
    {
      "inputs": [
        {
          "internalType": "address",
          "name": "owner",
          "type": "address"
        }
      ],
      "name": "balanceOf",
      "outputs": [
        {
          "internalType": "uint256",
          "name": "",
          "type": "uint256"
        }
      ],
      "stateMutability": "view",
      "type": "function",
      "constant": true
    },
    {
      "inputs": [
        {
          "internalType": "uint256",
          "name": "tokenId",
          "type": "uint256"
        }
      ],
      "name": "burn",
      "outputs": [],
      "stateMutability": "nonpayable",
      "type": "function"
    },
    {
      "inputs": [
        {
          "internalType": "address",
          "name": "",
          "type": "address"
        }
      ],
      "name": "claimableDadDollars",
      "outputs": [
        {
          "internalType": "uint256",
          "name": "",
          "type": "uint256"
        }
      ],
      "stateMutability": "view",
      "type": "function",
      "constant": true
    },
    {
      "inputs": [],
      "name": "dadCounter",
      "outputs": [
        {
          "internalType": "uint256",
          "name": "",
          "type": "uint256"
        }
      ],
      "stateMutability": "view",
      "type": "function",
      "constant": true
    },
    {
      "inputs": [
        {
          "internalType": "uint256",
          "name": "",
          "type": "uint256"
        }
      ],
      "name": "dadDataArray",
      "outputs": [
        {
          "internalType": "uint256",
          "name": "id",
          "type": "uint256"
        },
        {
          "internalType": "string",
          "name": "firstName",
          "type": "string"
        },
        {
          "internalType": "string",
          "name": "lastName",
          "type": "string"
        },
        {
          "internalType": "string",
          "name": "favoriteFood",
          "type": "string"
        },
        {
          "internalType": "string",
          "name": "hobbies",
          "type": "string"
        },
        {
          "internalType": "uint256",
          "name": "dadScore",
          "type": "uint256"
        },
        {
          "internalType": "bool",
          "name": "isBurned",
          "type": "bool"
        },
        {
          "internalType": "uint256",
          "name": "salePrice",
          "type": "uint256"
        },
        {
          "internalType": "string",
          "name": "tokenURI",
          "type": "string"
        },
        {
          "internalType": "string",
          "name": "imageURI",
          "type": "string"
        }
      ],
      "stateMutability": "view",
      "type": "function",
      "constant": true
    },
    {
      "inputs": [
        {
          "internalType": "uint256",
          "name": "tokenId",
          "type": "uint256"
        }
      ],
      "name": "getApproved",
      "outputs": [
        {
          "internalType": "address",
          "name": "",
          "type": "address"
        }
      ],
      "stateMutability": "view",
      "type": "function",
      "constant": true
    },
    {
      "inputs": [
        {
          "internalType": "address",
          "name": "owner",
          "type": "address"
        },
        {
          "internalType": "address",
          "name": "operator",
          "type": "address"
        }
      ],
      "name": "isApprovedForAll",
      "outputs": [
        {
          "internalType": "bool",
          "name": "",
          "type": "bool"
        }
      ],
      "stateMutability": "view",
      "type": "function",
      "constant": true
    },
    {
      "inputs": [],
      "name": "name",
      "outputs": [
        {
          "internalType": "string",
          "name": "",
          "type": "string"
        }
      ],
      "stateMutability": "view",
      "type": "function",
      "constant": true
    },
    {
      "inputs": [
        {
          "internalType": "uint256",
          "name": "tokenId",
          "type": "uint256"
        }
      ],
      "name": "ownerOf",
      "outputs": [
        {
          "internalType": "address",
          "name": "",
          "type": "address"
        }
      ],
      "stateMutability": "view",
      "type": "function",
      "constant": true
    },
    {
      "inputs": [],
      "name": "quissceQoin",
      "outputs": [
        {
          "internalType": "contract QuissceQoin",
          "name": "",
          "type": "address"
        }
      ],
      "stateMutability": "view",
      "type": "function",
      "constant": true
    },
    {
      "inputs": [
        {
          "internalType": "address",
          "name": "from",
          "type": "address"
        },
        {
          "internalType": "address",
          "name": "to",
          "type": "address"
        },
        {
          "internalType": "uint256",
          "name": "tokenId",
          "type": "uint256"
        }
      ],
      "name": "safeTransferFrom",
      "outputs": [],
      "stateMutability": "nonpayable",
      "type": "function"
    },
    {
      "inputs": [
        {
          "internalType": "address",
          "name": "from",
          "type": "address"
        },
        {
          "internalType": "address",
          "name": "to",
          "type": "address"
        },
        {
          "internalType": "uint256",
          "name": "tokenId",
          "type": "uint256"
        },
        {
          "internalType": "bytes",
          "name": "_data",
          "type": "bytes"
        }
      ],
      "name": "safeTransferFrom",
      "outputs": [],
      "stateMutability": "nonpayable",
      "type": "function"
    },
    {
      "inputs": [
        {
          "internalType": "address",
          "name": "operator",
          "type": "address"
        },
        {
          "internalType": "bool",
          "name": "approved",
          "type": "bool"
        }
      ],
      "name": "setApprovalForAll",
      "outputs": [],
      "stateMutability": "nonpayable",
      "type": "function"
    },
    {
      "inputs": [],
      "name": "symbol",
      "outputs": [
        {
          "internalType": "string",
          "name": "",
          "type": "string"
        }
      ],
      "stateMutability": "view",
      "type": "function",
      "constant": true
    },
    {
      "inputs": [
        {
          "internalType": "uint256",
          "name": "index",
          "type": "uint256"
        }
      ],
      "name": "tokenByIndex",
      "outputs": [
        {
          "internalType": "uint256",
          "name": "",
          "type": "uint256"
        }
      ],
      "stateMutability": "view",
      "type": "function",
      "constant": true
    },
    {
      "inputs": [
        {
          "internalType": "address",
          "name": "owner",
          "type": "address"
        },
        {
          "internalType": "uint256",
          "name": "index",
          "type": "uint256"
        }
      ],
      "name": "tokenOfOwnerByIndex",
      "outputs": [
        {
          "internalType": "uint256",
          "name": "",
          "type": "uint256"
        }
      ],
      "stateMutability": "view",
      "type": "function",
      "constant": true
    },
    {
      "inputs": [],
      "name": "totalSupply",
      "outputs": [
        {
          "internalType": "uint256",
          "name": "",
          "type": "uint256"
        }
      ],
      "stateMutability": "view",
      "type": "function",
      "constant": true
    },
    {
      "inputs": [
        {
          "internalType": "address",
          "name": "from",
          "type": "address"
        },
        {
          "internalType": "address",
          "name": "to",
          "type": "address"
        },
        {
          "internalType": "uint256",
          "name": "tokenId",
          "type": "uint256"
        }
      ],
      "name": "transferFrom",
      "outputs": [],
      "stateMutability": "nonpayable",
      "type": "function"
    },
    {
      "inputs": [],
      "name": "getDadData",
      "outputs": [
        {
          "components": [
            {
              "internalType": "uint256",
              "name": "id",
              "type": "uint256"
            },
            {
              "internalType": "string",
              "name": "firstName",
              "type": "string"
            },
            {
              "internalType": "string",
              "name": "lastName",
              "type": "string"
            },
            {
              "internalType": "string",
              "name": "favoriteFood",
              "type": "string"
            },
            {
              "internalType": "string",
              "name": "hobbies",
              "type": "string"
            },
            {
              "internalType": "uint256",
              "name": "dadScore",
              "type": "uint256"
            },
            {
              "internalType": "bool",
              "name": "isBurned",
              "type": "bool"
            },
            {
              "internalType": "uint256",
              "name": "salePrice",
              "type": "uint256"
            },
            {
              "internalType": "string",
              "name": "tokenURI",
              "type": "string"
            },
            {
              "internalType": "string",
              "name": "imageURI",
              "type": "string"
            }
          ],
          "internalType": "struct QuissceDads.Dad[]",
          "name": "",
          "type": "tuple[]"
        }
      ],
      "stateMutability": "view",
      "type": "function",
      "constant": true
    },
    {
      "inputs": [],
      "name": "getDadsOwnedByAddress",
      "outputs": [
        {
          "components": [
            {
              "internalType": "uint256",
              "name": "id",
              "type": "uint256"
            },
            {
              "internalType": "string",
              "name": "firstName",
              "type": "string"
            },
            {
              "internalType": "string",
              "name": "lastName",
              "type": "string"
            },
            {
              "internalType": "string",
              "name": "favoriteFood",
              "type": "string"
            },
            {
              "internalType": "string",
              "name": "hobbies",
              "type": "string"
            },
            {
              "internalType": "uint256",
              "name": "dadScore",
              "type": "uint256"
            },
            {
              "internalType": "bool",
              "name": "isBurned",
              "type": "bool"
            },
            {
              "internalType": "uint256",
              "name": "salePrice",
              "type": "uint256"
            },
            {
              "internalType": "string",
              "name": "tokenURI",
              "type": "string"
            },
            {
              "internalType": "string",
              "name": "imageURI",
              "type": "string"
            }
          ],
          "internalType": "struct QuissceDads.Dad[]",
          "name": "",
          "type": "tuple[]"
        }
      ],
      "stateMutability": "view",
      "type": "function",
      "constant": true
    },
    {
      "inputs": [
        {
          "internalType": "string",
          "name": "firstName",
          "type": "string"
        },
        {
          "internalType": "string",
          "name": "lastName",
          "type": "string"
        },
        {
          "internalType": "string",
          "name": "favoriteFood",
          "type": "string"
        },
        {
          "internalType": "string",
          "name": "hobbies",
          "type": "string"
        },
        {
          "internalType": "string",
          "name": "tokenURI",
          "type": "string"
        },
        {
          "internalType": "string",
          "name": "imageURI",
          "type": "string"
        }
      ],
      "name": "createDad",
      "outputs": [
        {
          "internalType": "uint256",
          "name": "",
          "type": "uint256"
        }
      ],
      "stateMutability": "nonpayable",
      "type": "function"
    },
    {
      "inputs": [
        {
          "internalType": "uint256",
          "name": "dadId",
          "type": "uint256"
        },
        {
          "internalType": "uint256",
          "name": "amount",
          "type": "uint256"
        }
      ],
      "name": "updateSalePrice",
      "outputs": [],
      "stateMutability": "nonpayable",
      "type": "function"
    },
    {
      "inputs": [
        {
          "internalType": "uint256",
          "name": "dadId",
          "type": "uint256"
        }
      ],
      "name": "buyDadWithQuissceQoin",
      "outputs": [],
      "stateMutability": "nonpayable",
      "type": "function"
    },
    {
      "inputs": [
        {
          "internalType": "uint256",
          "name": "dadId",
          "type": "uint256"
        }
      ],
      "name": "burnDad",
      "outputs": [],
      "stateMutability": "nonpayable",
      "type": "function"
    },
    {
      "inputs": [
        {
          "internalType": "bytes4",
          "name": "interfaceId",
          "type": "bytes4"
        }
      ],
      "name": "supportsInterface",
      "outputs": [
        {
          "internalType": "bool",
          "name": "",
          "type": "bool"
        }
      ],
      "stateMutability": "view",
      "type": "function",
      "constant": true
    },
    {
      "inputs": [
        {
          "internalType": "uint256",
          "name": "tokenId",
          "type": "uint256"
        }
      ],
      "name": "tokenURI",
      "outputs": [
        {
          "internalType": "string",
          "name": "",
          "type": "string"
        }
      ],
      "stateMutability": "view",
      "type": "function",
      "constant": true
    }
  ],
  "bytecode": "0x60806040523480156200001157600080fd5b50604051620036d6380380620036d683398101604081905262000034916200016f565b604080518082018252600c81526b51756973736365204461647360a01b6020808301918252835180850190945260048452631451105160e21b9084015281519192916200008491600091620000c9565b5080516200009a906001906020840190620000c9565b5050600b80546001600160a01b0319166001600160a01b039390931692909217909155506000600c55620001de565b828054620000d790620001a1565b90600052602060002090601f016020900481019282620000fb576000855562000146565b82601f106200011657805160ff191683800117855562000146565b8280016001018555821562000146579182015b828111156200014657825182559160200191906001019062000129565b506200015492915062000158565b5090565b5b8082111562000154576000815560010162000159565b6000602082840312156200018257600080fd5b81516001600160a01b03811681146200019a57600080fd5b9392505050565b600181811c90821680620001b657607f821691505b60208210811415620001d857634e487b7160e01b600052602260045260246000fd5b50919050565b6134e880620001ee6000396000f3fe608060405234801561001057600080fd5b50600436106101a95760003560e01c80634f6ccce7116100f9578063a22cb46511610097578063bee8a23a11610071578063bee8a23a146103ad578063c87b56dd146103b6578063e356380b146103c9578063e985e9c5146103d157600080fd5b8063a22cb46514610367578063a5279b561461037a578063b88d4fde1461039a57600080fd5b8063770efa1a116100d3578063770efa1a1461030e57806386ee212c1461032157806391fb0dd41461033657806395d89b411461035f57600080fd5b80634f6ccce7146102d55780636352211e146102e857806370a08231146102fb57600080fd5b80632c7417831161016657806342966c681161014057806342966c6814610289578063446d07d71461029c57806347183051146102af5780634896672e146102c257600080fd5b80632c741783146102505780632f745c591461026357806342842e0e1461027657600080fd5b806301ffc9a7146101ae57806306fdde03146101d6578063081812fc146101eb578063095ea7b31461021657806318160ddd1461022b57806323b872dd1461023d575b600080fd5b6101c16101bc366004612e8c565b61040d565b60405190151581526020015b60405180910390f35b6101de61041e565b6040516101cd91906131ec565b6101fe6101f9366004612fbb565b6104b0565b6040516001600160a01b0390911681526020016101cd565b610229610224366004612e45565b61053d565b005b6008545b6040519081526020016101cd565b61022961024b366004612d56565b610653565b61022f61025e366004612ec6565b610685565b61022f610271366004612e45565b61099d565b610229610284366004612d56565b610a33565b610229610297366004612fbb565b610a4e565b6102296102aa366004612fbb565b610ac8565b600b546101fe906001600160a01b031681565b6102296102d0366004612fd4565b610d00565b61022f6102e3366004612fbb565b610dab565b6101fe6102f6366004612fbb565b610e3e565b61022f610309366004612d08565b610eb5565b61022961031c366004612fbb565b610f3c565b61032961105a565b6040516101cd91906130c2565b610349610344366004612fbb565b611457565b6040516101cd9a999897969594939291906132a2565b6101de6117f0565b610229610375366004612e0e565b6117ff565b61022f610388366004612d08565b600e6020526000908152604090205481565b6102296103a8366004612d92565b6118c4565b61022f600c5481565b6101de6103c4366004612fbb565b6118fc565b610329611907565b6101c16103df366004612d23565b6001600160a01b03918216600090815260056020908152604080832093909416825291909152205460ff1690565b600061041882611dd3565b92915050565b60606000805461042d906133b6565b80601f0160208091040260200160405190810160405280929190818152602001828054610459906133b6565b80156104a65780601f1061047b576101008083540402835291602001916104a6565b820191906000526020600020905b81548152906001019060200180831161048957829003601f168201915b5050505050905090565b60006104bb82611df8565b6105215760405162461bcd60e51b815260206004820152602c60248201527f4552433732313a20617070726f76656420717565727920666f72206e6f6e657860448201526b34b9ba32b73a103a37b5b2b760a11b60648201526084015b60405180910390fd5b506000908152600460205260409020546001600160a01b031690565b600061054882610e3e565b9050806001600160a01b0316836001600160a01b031614156105b65760405162461bcd60e51b815260206004820152602160248201527f4552433732313a20617070726f76616c20746f2063757272656e74206f776e656044820152603960f91b6064820152608401610518565b336001600160a01b03821614806105d257506105d281336103df565b6106445760405162461bcd60e51b815260206004820152603860248201527f4552433732313a20617070726f76652063616c6c6572206973206e6f74206f7760448201527f6e6572206e6f7220617070726f76656420666f7220616c6c00000000000000006064820152608401610518565b61064e8383611e15565b505050565b61065e335b82611e83565b61067a5760405162461bcd60e51b815260040161051890613251565b61064e838383611f6d565b600b546040516323b872dd60e01b815233600482015230602482015269152d02c7e14af680000060448201526000916001600160a01b0316906323b872dd90606401602060405180830381600087803b1580156106e157600080fd5b505af11580156106f5573d6000803e3d6000fd5b505050506040513d601f19601f820116820180604052508101906107199190612e6f565b506000600c54905060006040518061014001604052808381526020018a8152602001898152602001888152602001878152602001610757848c612118565b81526000602080830182905260408301829052606083018990526080909201879052600d8054600181018255915282517fd7b6990105719101dabeb77144f2a3385c8033acd3af97e9423a695e81ad1eb5600a909202918201908155838301518051949550859491936107ef937fd7b6990105719101dabeb77144f2a3385c8033acd3af97e9423a695e81ad1eb60192910190612b87565b506040820151805161080b916002840191602090910190612b87565b5060608201518051610827916003840191602090910190612b87565b5060808201518051610843916004840191602090910190612b87565b5060a0820151600582015560c082015160068201805460ff191691151591909117905560e08201516007820155610100820151805161088c916008840191602090910190612b87565b5061012082015180516108a9916009840191602090910190612b87565b5050506108b63383612158565b6108c08286612172565b60005b600d5481101561097a57600d81815481106108e0576108e0613462565b600091825260209091206006600a90920201015460ff1661096857600061090682610e3e565b9050600d828154811061091b5761091b613462565b90600052602060002090600a020160050154600e6000836001600160a01b03166001600160a01b0316815260200190815260200160002060008282546109619190613347565b9091555050505b80610972816133f1565b9150506108c3565b50600c805490600061098b836133f1565b90915550919998505050505050505050565b60006109a883610eb5565b8210610a0a5760405162461bcd60e51b815260206004820152602b60248201527f455243373231456e756d657261626c653a206f776e657220696e646578206f7560448201526a74206f6620626f756e647360a81b6064820152608401610518565b506001600160a01b03919091166000908152600660209081526040808320938352929052205490565b61064e838383604051806020016040528060008152506118c4565b610a5733610658565b610abc5760405162461bcd60e51b815260206004820152603060248201527f4552433732314275726e61626c653a2063616c6c6572206973206e6f74206f7760448201526f1b995c881b9bdc88185c1c1c9bdd995960821b6064820152608401610518565b610ac5816121fd565b50565b610ad181610e3e565b6001600160a01b0316336001600160a01b03161415610b325760405162461bcd60e51b815260206004820152601d60248201527f616c726561647920746865206f776e6572206f662074686973206461640000006044820152606401610518565b600d8181548110610b4557610b45613462565b90600052602060002090600a02016007015460001415610ba75760405162461bcd60e51b815260206004820152601860248201527f7468697320646164206973206e6f7420666f722073616c6500000000000000006044820152606401610518565b30610bb1826104b0565b6001600160a01b031614610bf65760405162461bcd60e51b815260206004820152600c60248201526b1b9bdd08185c1c1c9bdd995960a21b6044820152606401610518565b600b546001600160a01b03166323b872dd33610c1184610e3e565b600d8581548110610c2457610c24613462565b600091825260209091206007600a9092020101546040516001600160e01b031960e086901b1681526001600160a01b0393841660048201529290911660248301526044820152606401602060405180830381600087803b158015610c8757600080fd5b505af1158015610c9b573d6000803e3d6000fd5b505050506040513d601f19601f82011682018060405250810190610cbf9190612e6f565b50610cd3610ccc82610e3e565b3383611f6d565b6000600d8281548110610ce857610ce8613462565b90600052602060002090600a02016007018190555050565b610d0982610e3e565b6001600160a01b0316336001600160a01b031614610d7e5760405162461bcd60e51b815260206004820152602c60248201527f6f6e6c792074686520646164206f776e65722063616e2075706461746520746860448201526b652073616c6520707269636560a01b6064820152608401610518565b80600d8381548110610d9257610d92613462565b90600052602060002090600a0201600701819055505050565b6000610db660085490565b8210610e195760405162461bcd60e51b815260206004820152602c60248201527f455243373231456e756d657261626c653a20676c6f62616c20696e646578206f60448201526b7574206f6620626f756e647360a01b6064820152608401610518565b60088281548110610e2c57610e2c613462565b90600052602060002001549050919050565b6000818152600260205260408120546001600160a01b0316806104185760405162461bcd60e51b815260206004820152602960248201527f4552433732313a206f776e657220717565727920666f72206e6f6e657869737460448201526832b73a103a37b5b2b760b91b6064820152608401610518565b60006001600160a01b038216610f205760405162461bcd60e51b815260206004820152602a60248201527f4552433732313a2062616c616e636520717565727920666f7220746865207a65604482015269726f206164647265737360b01b6064820152608401610518565b506001600160a01b031660009081526003602052604090205490565b610f4581610a4e565b60005b600d54811015610fc85781600d8281548110610f6657610f66613462565b90600052602060002090600a0201600001541415610fb6576001600d8281548110610f9357610f93613462565b60009182526020909120600a90910201600601805460ff19169115159190911790555b80610fc0816133f1565b915050610f48565b50600b5460405163a9059cbb60e01b8152336004820152690a968163f0a57b40000060248201526001600160a01b039091169063a9059cbb90604401602060405180830381600087803b15801561101e57600080fd5b505af1158015611032573d6000803e3d6000fd5b505050506040513d601f19601f820116820180604052508101906110569190612e6f565b5050565b6060600d805480602002602001604051908101604052809291908181526020016000905b8282101561144e57838290600052602060002090600a020160405180610140016040529081600082015481526020016001820180546110bc906133b6565b80601f01602080910402602001604051908101604052809291908181526020018280546110e8906133b6565b80156111355780601f1061110a57610100808354040283529160200191611135565b820191906000526020600020905b81548152906001019060200180831161111857829003601f168201915b5050505050815260200160028201805461114e906133b6565b80601f016020809104026020016040519081016040528092919081815260200182805461117a906133b6565b80156111c75780601f1061119c576101008083540402835291602001916111c7565b820191906000526020600020905b8154815290600101906020018083116111aa57829003601f168201915b505050505081526020016003820180546111e0906133b6565b80601f016020809104026020016040519081016040528092919081815260200182805461120c906133b6565b80156112595780601f1061122e57610100808354040283529160200191611259565b820191906000526020600020905b81548152906001019060200180831161123c57829003601f168201915b50505050508152602001600482018054611272906133b6565b80601f016020809104026020016040519081016040528092919081815260200182805461129e906133b6565b80156112eb5780601f106112c0576101008083540402835291602001916112eb565b820191906000526020600020905b8154815290600101906020018083116112ce57829003601f168201915b505050918352505060058201546020820152600682015460ff16151560408201526007820154606082015260088201805460809092019161132b906133b6565b80601f0160208091040260200160405190810160405280929190818152602001828054611357906133b6565b80156113a45780601f10611379576101008083540402835291602001916113a4565b820191906000526020600020905b81548152906001019060200180831161138757829003601f168201915b505050505081526020016009820180546113bd906133b6565b80601f01602080910402602001604051908101604052809291908181526020018280546113e9906133b6565b80156114365780601f1061140b57610100808354040283529160200191611436565b820191906000526020600020905b81548152906001019060200180831161141957829003601f168201915b5050505050815250508152602001906001019061107e565b50505050905090565b600d818154811061146757600080fd5b60009182526020909120600a9091020180546001820180549193509061148c906133b6565b80601f01602080910402602001604051908101604052809291908181526020018280546114b8906133b6565b80156115055780601f106114da57610100808354040283529160200191611505565b820191906000526020600020905b8154815290600101906020018083116114e857829003601f168201915b50505050509080600201805461151a906133b6565b80601f0160208091040260200160405190810160405280929190818152602001828054611546906133b6565b80156115935780601f1061156857610100808354040283529160200191611593565b820191906000526020600020905b81548152906001019060200180831161157657829003601f168201915b5050505050908060030180546115a8906133b6565b80601f01602080910402602001604051908101604052809291908181526020018280546115d4906133b6565b80156116215780601f106115f657610100808354040283529160200191611621565b820191906000526020600020905b81548152906001019060200180831161160457829003601f168201915b505050505090806004018054611636906133b6565b80601f0160208091040260200160405190810160405280929190818152602001828054611662906133b6565b80156116af5780601f10611684576101008083540402835291602001916116af565b820191906000526020600020905b81548152906001019060200180831161169257829003601f168201915b5050506005840154600685015460078601546008870180549697939660ff9093169550909350906116df906133b6565b80601f016020809104026020016040519081016040528092919081815260200182805461170b906133b6565b80156117585780601f1061172d57610100808354040283529160200191611758565b820191906000526020600020905b81548152906001019060200180831161173b57829003601f168201915b50505050509080600901805461176d906133b6565b80601f0160208091040260200160405190810160405280929190818152602001828054611799906133b6565b80156117e65780601f106117bb576101008083540402835291602001916117e6565b820191906000526020600020905b8154815290600101906020018083116117c957829003601f168201915b505050505090508a565b60606001805461042d906133b6565b6001600160a01b0382163314156118585760405162461bcd60e51b815260206004820152601960248201527f4552433732313a20617070726f766520746f2063616c6c6572000000000000006044820152606401610518565b3360008181526005602090815260408083206001600160a01b03871680855290835292819020805460ff191686151590811790915590519081529192917f17307eab39ab6107e8899845ad3d59bd9653f200f220920489ca2b5937696c31910160405180910390a35050565b6118ce3383611e83565b6118ea5760405162461bcd60e51b815260040161051890613251565b6118f684848484612206565b50505050565b606061041882612239565b6060600061191433610eb5565b905060008167ffffffffffffffff81111561193157611931613478565b6040519080825280602002602001820160405280156119ba57816020015b6119a76040518061014001604052806000815260200160608152602001606081526020016060815260200160608152602001600081526020016000151581526020016000815260200160608152602001606081525090565b81526020019060019003908161194f5790505b50905060005b8151811015611dcc57600d6119d5338361099d565b815481106119e5576119e5613462565b90600052602060002090600a02016040518061014001604052908160008201548152602001600182018054611a19906133b6565b80601f0160208091040260200160405190810160405280929190818152602001828054611a45906133b6565b8015611a925780601f10611a6757610100808354040283529160200191611a92565b820191906000526020600020905b815481529060010190602001808311611a7557829003601f168201915b50505050508152602001600282018054611aab906133b6565b80601f0160208091040260200160405190810160405280929190818152602001828054611ad7906133b6565b8015611b245780601f10611af957610100808354040283529160200191611b24565b820191906000526020600020905b815481529060010190602001808311611b0757829003601f168201915b50505050508152602001600382018054611b3d906133b6565b80601f0160208091040260200160405190810160405280929190818152602001828054611b69906133b6565b8015611bb65780601f10611b8b57610100808354040283529160200191611bb6565b820191906000526020600020905b815481529060010190602001808311611b9957829003601f168201915b50505050508152602001600482018054611bcf906133b6565b80601f0160208091040260200160405190810160405280929190818152602001828054611bfb906133b6565b8015611c485780601f10611c1d57610100808354040283529160200191611c48565b820191906000526020600020905b815481529060010190602001808311611c2b57829003601f168201915b505050918352505060058201546020820152600682015460ff161515604082015260078201546060820152600882018054608090920191611c88906133b6565b80601f0160208091040260200160405190810160405280929190818152602001828054611cb4906133b6565b8015611d015780601f10611cd657610100808354040283529160200191611d01565b820191906000526020600020905b815481529060010190602001808311611ce457829003601f168201915b50505050508152602001600982018054611d1a906133b6565b80601f0160208091040260200160405190810160405280929190818152602001828054611d46906133b6565b8015611d935780601f10611d6857610100808354040283529160200191611d93565b820191906000526020600020905b815481529060010190602001808311611d7657829003601f168201915b505050505081525050828281518110611dae57611dae613462565b60200260200101819052508080611dc4906133f1565b9150506119c0565b5092915050565b60006001600160e01b0319821663780e9d6360e01b14806104185750610418826123a8565b6000908152600260205260409020546001600160a01b0316151590565b600081815260046020526040902080546001600160a01b0319166001600160a01b0384169081179091558190611e4a82610e3e565b6001600160a01b03167f8c5be1e5ebec7d5bd14f71427d1e84f3dd0314c0f7b2291e5b200ac8c7c3b92560405160405180910390a45050565b6000611e8e82611df8565b611eef5760405162461bcd60e51b815260206004820152602c60248201527f4552433732313a206f70657261746f7220717565727920666f72206e6f6e657860448201526b34b9ba32b73a103a37b5b2b760a11b6064820152608401610518565b6000611efa83610e3e565b9050806001600160a01b0316846001600160a01b03161480611f355750836001600160a01b0316611f2a846104b0565b6001600160a01b0316145b80611f6557506001600160a01b0380821660009081526005602090815260408083209388168352929052205460ff165b949350505050565b826001600160a01b0316611f8082610e3e565b6001600160a01b031614611fe85760405162461bcd60e51b815260206004820152602960248201527f4552433732313a207472616e73666572206f6620746f6b656e2074686174206960448201526839903737ba1037bbb760b91b6064820152608401610518565b6001600160a01b03821661204a5760405162461bcd60e51b8152602060048201526024808201527f4552433732313a207472616e7366657220746f20746865207a65726f206164646044820152637265737360e01b6064820152608401610518565b6120558383836123f8565b612060600082611e15565b6001600160a01b0383166000908152600360205260408120805460019290612089908490613373565b90915550506001600160a01b03821660009081526003602052604081208054600192906120b7908490613347565b909155505060008181526002602052604080822080546001600160a01b0319166001600160a01b0386811691821790925591518493918716917fddf252ad1be2c89b69c2b068fc378daa952ba7f163c4a11628f55a4df523b3ef91a4505050565b600080444285856040516020016121329493929190613051565b60408051601f1981840301815291905280516020909101209050611f656103e88261340c565b611056828260405180602001604052806000815250612403565b61217b82611df8565b6121de5760405162461bcd60e51b815260206004820152602e60248201527f45524337323155524953746f726167653a2055524920736574206f66206e6f6e60448201526d32bc34b9ba32b73a103a37b5b2b760911b6064820152608401610518565b6000828152600a60209081526040909120825161064e92840190612b87565b610ac581612436565b612211848484611f6d565b61221d84848484612476565b6118f65760405162461bcd60e51b8152600401610518906131ff565b606061224482611df8565b6122aa5760405162461bcd60e51b815260206004820152603160248201527f45524337323155524953746f726167653a2055524920717565727920666f72206044820152703737b732bc34b9ba32b73a103a37b5b2b760791b6064820152608401610518565b6000828152600a6020526040812080546122c3906133b6565b80601f01602080910402602001604051908101604052809291908181526020018280546122ef906133b6565b801561233c5780601f106123115761010080835404028352916020019161233c565b820191906000526020600020905b81548152906001019060200180831161231f57829003601f168201915b50505050509050600061235a60408051602081019091526000815290565b905080516000141561236d575092915050565b81511561239f578082604051602001612387929190613022565b60405160208183030381529060405292505050919050565b611f6584612583565b60006001600160e01b031982166380ac58cd60e01b14806123d957506001600160e01b03198216635b5e139f60e01b145b8061041857506301ffc9a760e01b6001600160e01b0319831614610418565b61064e83838361265b565b61240d8383612713565b61241a6000848484612476565b61064e5760405162461bcd60e51b8152600401610518906131ff565b61243f81612852565b6000818152600a602052604090208054612458906133b6565b159050610ac5576000818152600a60205260408120610ac591612c0b565b60006001600160a01b0384163b1561257857604051630a85bd0160e11b81526001600160a01b0385169063150b7a02906124ba903390899088908890600401613085565b602060405180830381600087803b1580156124d457600080fd5b505af1925050508015612504575060408051601f3d908101601f1916820190925261250191810190612ea9565b60015b61255e573d808015612532576040519150601f19603f3d011682016040523d82523d6000602084013e612537565b606091505b5080516125565760405162461bcd60e51b8152600401610518906131ff565b805181602001fd5b6001600160e01b031916630a85bd0160e11b149050611f65565b506001949350505050565b606061258e82611df8565b6125f25760405162461bcd60e51b815260206004820152602f60248201527f4552433732314d657461646174613a2055524920717565727920666f72206e6f60448201526e3732bc34b9ba32b73a103a37b5b2b760891b6064820152608401610518565b600061260960408051602081019091526000815290565b905060008151116126295760405180602001604052806000815250612654565b80612633846128f9565b604051602001612644929190613022565b6040516020818303038152906040525b9392505050565b6001600160a01b0383166126b6576126b181600880546000838152600960205260408120829055600182018355919091527ff3f7a9fe364faab93b216da50a3214154f22a0a2b415b23a84c8169e8b636ee30155565b6126d9565b816001600160a01b0316836001600160a01b0316146126d9576126d983826129f7565b6001600160a01b0382166126f05761064e81612a94565b826001600160a01b0316826001600160a01b03161461064e5761064e8282612b43565b6001600160a01b0382166127695760405162461bcd60e51b815260206004820181905260248201527f4552433732313a206d696e7420746f20746865207a65726f20616464726573736044820152606401610518565b61277281611df8565b156127bf5760405162461bcd60e51b815260206004820152601c60248201527f4552433732313a20746f6b656e20616c7265616479206d696e746564000000006044820152606401610518565b6127cb600083836123f8565b6001600160a01b03821660009081526003602052604081208054600192906127f4908490613347565b909155505060008181526002602052604080822080546001600160a01b0319166001600160a01b03861690811790915590518392907fddf252ad1be2c89b69c2b068fc378daa952ba7f163c4a11628f55a4df523b3ef908290a45050565b600061285d82610e3e565b905061286b816000846123f8565b612876600083611e15565b6001600160a01b038116600090815260036020526040812080546001929061289f908490613373565b909155505060008281526002602052604080822080546001600160a01b0319169055518391906001600160a01b038416907fddf252ad1be2c89b69c2b068fc378daa952ba7f163c4a11628f55a4df523b3ef908390a45050565b60608161291d5750506040805180820190915260018152600360fc1b602082015290565b8160005b81156129475780612931816133f1565b91506129409050600a8361335f565b9150612921565b60008167ffffffffffffffff81111561296257612962613478565b6040519080825280601f01601f19166020018201604052801561298c576020820181803683370190505b5090505b8415611f65576129a1600183613373565b91506129ae600a8661340c565b6129b9906030613347565b60f81b8183815181106129ce576129ce613462565b60200101906001600160f81b031916908160001a9053506129f0600a8661335f565b9450612990565b60006001612a0484610eb5565b612a0e9190613373565b600083815260076020526040902054909150808214612a61576001600160a01b03841660009081526006602090815260408083208584528252808320548484528184208190558352600790915290208190555b5060009182526007602090815260408084208490556001600160a01b039094168352600681528383209183525290812055565b600854600090612aa690600190613373565b60008381526009602052604081205460088054939450909284908110612ace57612ace613462565b906000526020600020015490508060088381548110612aef57612aef613462565b6000918252602080832090910192909255828152600990915260408082208490558582528120556008805480612b2757612b2761344c565b6001900381819060005260206000200160009055905550505050565b6000612b4e83610eb5565b6001600160a01b039093166000908152600660209081526040808320868452825280832085905593825260079052919091209190915550565b828054612b93906133b6565b90600052602060002090601f016020900481019282612bb55760008555612bfb565b82601f10612bce57805160ff1916838001178555612bfb565b82800160010185558215612bfb579182015b82811115612bfb578251825591602001919060010190612be0565b50612c07929150612c41565b5090565b508054612c17906133b6565b6000825580601f10612c27575050565b601f016020900490600052602060002090810190610ac591905b5b80821115612c075760008155600101612c42565b600067ffffffffffffffff80841115612c7157612c71613478565b604051601f8501601f19908116603f01168101908282118183101715612c9957612c99613478565b81604052809350858152868686011115612cb257600080fd5b858560208301376000602087830101525050509392505050565b80356001600160a01b0381168114612ce357600080fd5b919050565b600082601f830112612cf957600080fd5b61265483833560208501612c56565b600060208284031215612d1a57600080fd5b61265482612ccc565b60008060408385031215612d3657600080fd5b612d3f83612ccc565b9150612d4d60208401612ccc565b90509250929050565b600080600060608486031215612d6b57600080fd5b612d7484612ccc565b9250612d8260208501612ccc565b9150604084013590509250925092565b60008060008060808587031215612da857600080fd5b612db185612ccc565b9350612dbf60208601612ccc565b925060408501359150606085013567ffffffffffffffff811115612de257600080fd5b8501601f81018713612df357600080fd5b612e0287823560208401612c56565b91505092959194509250565b60008060408385031215612e2157600080fd5b612e2a83612ccc565b91506020830135612e3a8161348e565b809150509250929050565b60008060408385031215612e5857600080fd5b612e6183612ccc565b946020939093013593505050565b600060208284031215612e8157600080fd5b81516126548161348e565b600060208284031215612e9e57600080fd5b81356126548161349c565b600060208284031215612ebb57600080fd5b81516126548161349c565b60008060008060008060c08789031215612edf57600080fd5b863567ffffffffffffffff80821115612ef757600080fd5b612f038a838b01612ce8565b97506020890135915080821115612f1957600080fd5b612f258a838b01612ce8565b96506040890135915080821115612f3b57600080fd5b612f478a838b01612ce8565b95506060890135915080821115612f5d57600080fd5b612f698a838b01612ce8565b94506080890135915080821115612f7f57600080fd5b612f8b8a838b01612ce8565b935060a0890135915080821115612fa157600080fd5b50612fae89828a01612ce8565b9150509295509295509295565b600060208284031215612fcd57600080fd5b5035919050565b60008060408385031215612fe757600080fd5b50508035926020909101359150565b6000815180845261300e81602086016020860161338a565b601f01601f19169290920160200192915050565b6000835161303481846020880161338a565b83519083019061304881836020880161338a565b01949350505050565b8481528360208201528260408201526000825161307581606085016020870161338a565b9190910160600195945050505050565b6001600160a01b03858116825284166020820152604081018390526080606082018190526000906130b890830184612ff6565b9695505050505050565b60006020808301818452808551808352604092508286019150828160051b87010184880160005b838110156131de57603f1989840301855281516101408151855288820151818a87015261311882870182612ff6565b91505087820151858203898701526131308282612ff6565b9150506060808301518683038288015261314a8382612ff6565b92505050608080830151868303828801526131658382612ff6565b9250505060a080830151818701525060c0808301516131878288018215159052565b505060e0828101519086015261010080830151868303828801526131ab8382612ff6565b9250505061012080830151925085820381870152506131ca8183612ff6565b9689019694505050908601906001016130e9565b509098975050505050505050565b6020815260006126546020830184612ff6565b60208082526032908201527f4552433732313a207472616e7366657220746f206e6f6e20455243373231526560408201527131b2b4bb32b91034b6b83632b6b2b73a32b960711b606082015260800190565b60208082526031908201527f4552433732313a207472616e736665722063616c6c6572206973206e6f74206f6040820152701ddb995c881b9bdc88185c1c1c9bdd9959607a1b606082015260800190565b60006101408c83528060208401526132bc8184018d612ff6565b905082810360408401526132d0818c612ff6565b905082810360608401526132e4818b612ff6565b905082810360808401526132f8818a612ff6565b90508760a084015286151560c08401528560e08401528281036101008401526133218186612ff6565b90508281036101208401526133368185612ff6565b9d9c50505050505050505050505050565b6000821982111561335a5761335a613420565b500190565b60008261336e5761336e613436565b500490565b60008282101561338557613385613420565b500390565b60005b838110156133a557818101518382015260200161338d565b838111156118f65750506000910152565b600181811c908216806133ca57607f821691505b602082108114156133eb57634e487b7160e01b600052602260045260246000fd5b50919050565b600060001982141561340557613405613420565b5060010190565b60008261341b5761341b613436565b500690565b634e487b7160e01b600052601160045260246000fd5b634e487b7160e01b600052601260045260246000fd5b634e487b7160e01b600052603160045260246000fd5b634e487b7160e01b600052603260045260246000fd5b634e487b7160e01b600052604160045260246000fd5b8015158114610ac557600080fd5b6001600160e01b031981168114610ac557600080fdfea2646970667358221220485b7b2ae01ef996b975818e2a896686c1e4333647fd5d26925e4c49db3da7e164736f6c63430008050033",
  "immutableReferences": {},
  "source": "pragma solidity ^0.8.5;\n\nimport \"@openzeppelin/contracts/token/ERC721/ERC721.sol\";\nimport \"@openzeppelin/contracts/token/ERC721/extensions/ERC721Burnable.sol\";\nimport \"@openzeppelin/contracts/token/ERC721/extensions/ERC721Enumerable.sol\";\nimport \"@openzeppelin/contracts/token/ERC721/extensions/ERC721URIStorage.sol\";\nimport \"./QuissceQoin.sol\";\n\ncontract QuissceDads is\n    ERC721,\n    ERC721Burnable,\n    ERC721Enumerable,\n    ERC721URIStorage\n{\n    QuissceQoin public quissceQoin;\n    uint256 public dadCounter;\n    struct Dad {\n        uint256 id;\n        string firstName;\n        string lastName;\n        string favoriteFood;\n        string hobbies;\n        uint256 dadScore;\n        bool isBurned;\n        uint256 salePrice;\n        string tokenURI;\n        string imageURI;\n    }\n\n    Dad[] public dadDataArray;\n    mapping(address => uint256) public claimableDadDollars;\n\n    constructor(QuissceQoin _quissceQoin) ERC721(\"Quissce Dads\", \"QDAD\") {\n        quissceQoin = _quissceQoin;\n        dadCounter = 0;\n    }\n\n    function getDadData() public view returns (Dad[] memory) {\n        return dadDataArray;\n    }\n\n    function getDadScore(uint256 dadId, string memory dadFirstName)\n        private\n        view\n        returns (uint256)\n    {\n        uint256 randomHash = uint256(\n            keccak256(\n                abi.encodePacked(\n                    block.difficulty,\n                    block.timestamp,\n                    dadId,\n                    dadFirstName\n                )\n            )\n        );\n        return randomHash % 1000;\n    }\n\n    function getDadsOwnedByAddress() public view returns (Dad[] memory) {\n        uint256 dadsOwnedByAddress = balanceOf(msg.sender);\n        Dad[] memory dads = new Dad[](dadsOwnedByAddress);\n        for (uint256 i = 0; i < dads.length; i++) {\n            dads[i] = dadDataArray[tokenOfOwnerByIndex(msg.sender, i)];\n        }\n        return dads;\n    }\n\n    function createDad(\n        string memory firstName,\n        string memory lastName,\n        string memory favoriteFood,\n        string memory hobbies,\n        string memory tokenURI,\n        string memory imageURI\n    ) public returns (uint256) {\n        quissceQoin.transferFrom(msg.sender, address(this), 100_000e18);\n\n        uint256 newDadId = dadCounter;\n        Dad memory newDad = Dad(\n            newDadId,\n            firstName,\n            lastName,\n            favoriteFood,\n            hobbies,\n            getDadScore(newDadId, firstName),\n            false,\n            0,\n            tokenURI,\n            imageURI\n        );\n        dadDataArray.push(newDad);\n\n        _safeMint(msg.sender, newDadId);\n        _setTokenURI(newDadId, tokenURI);\n\n        for (uint256 i = 0; i < dadDataArray.length; i++) {\n            if (!dadDataArray[i].isBurned) {\n                address tokenOwner = ownerOf(i);\n                claimableDadDollars[tokenOwner] += dadDataArray[i].dadScore;\n            }\n        }\n\n        dadCounter++;\n        return newDadId;\n    }\n\n    function updateSalePrice(uint256 dadId, uint256 amount) public {\n        require(\n            msg.sender == ownerOf(dadId),\n            \"only the dad owner can update the sale price\"\n        );\n        dadDataArray[dadId].salePrice = amount;\n    }\n\n    function buyDadWithQuissceQoin(uint256 dadId) public {\n        require(msg.sender != ownerOf(dadId), \"already the owner of this dad\");\n        require(dadDataArray[dadId].salePrice != 0, \"this dad is not for sale\");\n        require(getApproved(dadId) == address(this), \"not approved\");\n        quissceQoin.transferFrom(\n            msg.sender,\n            ownerOf(dadId),\n            dadDataArray[dadId].salePrice\n        );\n        _transfer(ownerOf(dadId), msg.sender, dadId);\n        dadDataArray[dadId].salePrice = 0;\n    }\n\n    function burnDad(uint256 dadId) public {\n        burn(dadId);\n\n        for (uint256 i = 0; i < dadDataArray.length; i++) {\n            if (dadDataArray[i].id == dadId) {\n                dadDataArray[i].isBurned = true;\n            }\n        }\n\n        quissceQoin.transfer(msg.sender, 50_000e18);\n    }\n\n    function _beforeTokenTransfer(\n        address from,\n        address to,\n        uint256 tokenId\n    ) internal virtual override(ERC721, ERC721Enumerable) {\n        super._beforeTokenTransfer(from, to, tokenId);\n    }\n\n    function supportsInterface(bytes4 interfaceId)\n        public\n        view\n        virtual\n        override(ERC721, ERC721Enumerable)\n        returns (bool)\n    {\n        return super.supportsInterface(interfaceId);\n    }\n\n    function tokenURI(uint256 tokenId)\n        public\n        view\n        virtual\n        override(ERC721, ERC721URIStorage)\n        returns (string memory)\n    {\n        return super.tokenURI(tokenId);\n    }\n\n    function _burn(uint256 tokenId)\n        internal\n        virtual\n        override(ERC721, ERC721URIStorage)\n    {\n        return super._burn(tokenId);\n    }\n}\n",
  "sourcePath": "/Users/alevine/quissce-qoin/src/contracts/QuissceDads.sol",
  "compiler": {
    "name": "solc",
    "version": "0.8.5+commit.a4f2e591.Emscripten.clang"
  },
  "schemaVersion": "3.4.3",
  "updatedAt": "2021-09-09T12:13:05.093Z",
  "networkType": "ethereum",
  "devdoc": {
    "kind": "dev",
    "methods": {
      "approve(address,uint256)": {
        "details": "See {IERC721-approve}."
      },
      "balanceOf(address)": {
        "details": "See {IERC721-balanceOf}."
      },
      "burn(uint256)": {
        "details": "Burns `tokenId`. See {ERC721-_burn}. Requirements: - The caller must own `tokenId` or be an approved operator."
      },
      "getApproved(uint256)": {
        "details": "See {IERC721-getApproved}."
      },
      "isApprovedForAll(address,address)": {
        "details": "See {IERC721-isApprovedForAll}."
      },
      "name()": {
        "details": "See {IERC721Metadata-name}."
      },
      "ownerOf(uint256)": {
        "details": "See {IERC721-ownerOf}."
      },
      "safeTransferFrom(address,address,uint256)": {
        "details": "See {IERC721-safeTransferFrom}."
      },
      "safeTransferFrom(address,address,uint256,bytes)": {
        "details": "See {IERC721-safeTransferFrom}."
      },
      "setApprovalForAll(address,bool)": {
        "details": "See {IERC721-setApprovalForAll}."
      },
      "symbol()": {
        "details": "See {IERC721Metadata-symbol}."
      },
      "tokenByIndex(uint256)": {
        "details": "See {IERC721Enumerable-tokenByIndex}."
      },
      "tokenOfOwnerByIndex(address,uint256)": {
        "details": "See {IERC721Enumerable-tokenOfOwnerByIndex}."
      },
      "totalSupply()": {
        "details": "See {IERC721Enumerable-totalSupply}."
      },
      "transferFrom(address,address,uint256)": {
        "details": "See {IERC721-transferFrom}."
      }
    },
    "version": 1
  },
  "userdoc": {
    "kind": "user",
    "methods": {},
    "version": 1
  }
}